:020000040800F2
:1000000000500020B11000087110000871100008A5
:100010007110000871100008711000080000000045
:100020000000000000000000000000007110000847
:10003000711000080000000071100008AD070008F2
:10004000711000087110000871100008711000088C
:10005000711000087110000871100008711000087C
:10006000711000087110000871100008711000086C
:10007000711000087110000871100008711000085C
:10008000711000087110000871100008711000084C
:10009000BD1C0008711000087110000871100008E4
:1000A000711000087110000871100008711000082C
:1000B000711000087110000871100008711000081C
:1000C000711000087110000871100008711000080C
:1000D00071100008711000087110000871100008FC
:1000E0007110000871100008391B000800000000A2
:1000F0000000000000000000000000000000000000
:0C01000000000000000000005FF808F1A3
:10010C00083F00080000002028010020083F0008DC
:10011C000000000000000000280100204413002013
:0C012C000000000000000000D10C0008E2
:10013800C068704738B50D46084C0122204601F0CA
:1001480030F9012000F093FE20462946002201F0F4
:1001580028F9BDE83840012000F089BE000C0140B4
:10016800F8B506460D460824084F05F001024FF47D
:100178000071384601F015F94FF480713046FFF7E9
:10018800D9FF013C4FEA5505EFD1F8BD000C0140FD
:1001980037B5044631B3012928D00121082001F0E0
:1001A80015F903234FF470758DF80630102301A953
:1001B8000F488DF80730ADF8045001F095F829463E
:1001C8000B4801F0ECF820464021FFF7B3FF20462A
:1001D8004FF48071FFF7AEFF80212046FFF7AAFF9A
:1001E80003B030BD034BA3602171D6E7024BFAE799
:1001F800000C0140405973070095BA0A002370B5F6
:100208008268C1600446184602F0A2FE042506462C
:10021800F1B22046FFF7A4FF013D4FEA1626F7D1B9
:1002280021792046FFF79CFF2046BDE870408021D9
:10023800FFF780BF10B54FF4004086B001F0BCF85E
:1002480001214FF4017001F0C1F80F230024ADF82B
:1002580000300323694617488DF803408DF80230B3
:1002680001F042F84FF460230194CDE903348DF88E
:1002780008408DF80940012401A90F488DF8144061
:1002880000F094FF0C48214600F0B4FF0A4800F043
:10029800BAFF094800F0BCFF0028FAD1064800F070
:1002A800BBFF054C204600F0BCFF0028FAD106B081
:1002B80010BD00BF000801400024014008B50A48ED
:1002C8000723012200F0BAFF0121074800F0ADFF23
:1002D8000221054800F0FBFF0028F9D0BDE80840DE
:1002E800014800F0F1BF00BF002401402DE9F041B2
:1002F800002506460F4690462C46454509D0394606
:100308003046FFF7DBFF0444052000F0B0FD01355F
:10031800F3E7B4FBF5F080B2BDE8F0812DE9F341D5
:100328004FF4005503274FF0140802AC012106468C
:10033800102001F04BF824F8045D21461E488DF882
:1003480006708DF8078000F0CFFF29461A4801F0A3
:1003580024F80121082001F039F8214617488DF8C2
:100368000780ADF8045000F0BFFFBDF80410134833
:1003780001F013F848238DF807304FF41043214655
:100388000E488DF80670ADF8043000F0ADFF4FF45C
:1003980080510A4800F0FBFF60B94FF4004107485C
:1003A80000F0F5FF002814BF02233B46337002B06B
:1003B800BDE8F0810123F9E700100140000C01407D
:1003C80037B5FFF7ABFF03238DF8063010238DF800
:1003D80007304FF45C4302AC104D24F8043D21462D
:1003E800284600F081FFBDF80410284600F0D7FF2A
:1003F8000121042000F0EAFF4FF40073A5F58065A1
:1004080021462846ADF8043000F06EFF4FF4005145
:10041800284600F0C4FF03B030BD00BF000C014007
:1004280010B581F0010422464FF40051054800F050
:10043800B8FF2246BDE810404FF40051024800F0D2
:10044800B0BF00BF00100140000C014038B5154690
:10045800074C0A4620464FF4004100F0A2FF2A4606
:100468002046BDE838404FF4805100F09ABF00BFE5
:10047800000C0140082210B5037883EA010414F047
:10048800010F4FEA530318BF83F08C0302F1FF32C8
:1004980018BFDBB212F0FF024FEA5101EDD1037031
:1004A80010BD70B505460C468E18B44205D014F838
:1004B800011B2846FFF7DEFFF7E770BD0022416009
:1004C8000270704738B540680D46836F144643B9CB
:1004D800114602F0FDFA21462846BDE83840FFF7EC
:1004E800C9BF38BD70B505460E461446D2B2FFF7EF
:1004F800E9FF220A31462846BDE87040FFF7E2BF0F
:10050800F7B51D46002302AC0D2D0646174604F824
:10051800043D06D841EA0532214692B2FFF7E2FFD0
:100528000EE0B5F5877F25D241F460422146FFF7FA
:10053800D9FFA5F10E02D2B221463046FFF7C2FF1D
:100548007068836FA3B95DB12A46394602F0E6FAAE
:1005580073689B6F63B92A4639462046FFF7A1FFA7
:1005680070689DF8041002F0B3FA706802F05CFA43
:1005780003B0F0BD41F470422146FFF7B3FFA5F583
:10058800877292B221463046C8E738B540680D46B2
:10059800836F43B902F0F8F9044601462846FFF78D
:1005A80069FF204638BD0024FBE770B505460E46B6
:1005B800FFF7EBFF314604462846FFF7E6FF04EB5A
:1005C800002080B270BD2DE9F3419846002304460F
:1005D80002AD05F8043D03700E4629461746FFF79D
:1005E800E4FF63689B6F23B10223237002B0BDE868
:1005F800F081C0F30F330D2BC0F30A003370708005
:1006080023D8B3806068836F002BEDD1B688464548
:1006180028BF464666B13246394602F0E9F96368B2
:100628009B6F002BE2D1324639462846FFF739FF47
:10063800606802F0A9F963689B6F002BD4D19DF81C
:100648000420824218BF0123CFE70E2B29462046FB
:1006580004D1FFF79AFF0E30B080D3E7FFF7A5FF6C
:1006680000F58770F8E700007FB5012140F6040027
:1006780000F0ACFE0121084600F0B4FE4FF4807390
:10068800ADF8003018238DF80330032300244FF60B
:10069800FF76214D694621488DF8023000F024FE8E
:1006A800284600F035FF01A92846CDE90144ADF8F8
:1006B8000C40ADF8086001F00FF8234622462846A2
:1006C800502101F06AF82021284601F07FF84FF008
:1006D800804000F01DFF01A94FF08040CDE90146A0
:1006E80000F0FAFF21464FF0804001F04AF8214619
:1006F800284601F075F821464FF0804001F070F867
:100708002846012101F032F801214FF0804001F024
:100718002DF804B070BD00BF002C01400008014056
:1007280070B504680546013C0460B4B94FF08040D8
:1007380001F058F80646094801F054F840EA064026
:1007480068602146054801F04BF821464FF080408B
:1007580001F046F84FF47A732B6070BD002C01400D
:10076800002330B5064D074C195D5A5D4A40C3F168
:10077800A3014A40C25401333C2BF5D130BD00BF20
:10078800543B0008903B000810B50446044801F0AB
:1007980057F804F12C00BDE81040FFF7C1BF00BFB7
:1007A800290100200148FFF7EFBF00BF2C010020FE
:1007B80010B50446044800F05AFB00226068114650
:1007C800BDE81040FFF742BEA086010090F8222045
:1007D80010B5012A044605D001D3032A0AD90123FA
:1007E800237310BD00214068FFF730FE2046FFF755
:1007F800DFFFF4E701224FF40041024800F0D1FD89
:10080800EDE700BF000C014090F8221010B5012957
:10081800044605D001D303290AD90023237310BD48
:1008280000224068FFF712FE2046FFF7C1FFF4E7F9
:1008380000224FF40041024800F0B3FDEDE700BF8D
:10084800000C0140012902D9022902D07047FFF7A4
:10085800DBBFFFF7BBBF002324301A461946FFF75A
:100868004FBE00F10F02152301212430FFF748BEC7
:1008780010B50446064800F0D3FF2246072342F885
:10088800080F022104F12400BDE81040FFF738BE2C
:100898002901002010B5044690B001A8FFF760FFB9
:1008A8003C2301AA032104F12400FFF729FE10B01C
:1008B80010BD09683830FFF7A1BC07B5436C02AA20
:1008C80042F8043D102104232430FFF719FE03B039
:1008D8005DF804FB00F580531B7870B5012B0446C6
:1008E8000D461DD0897AFFF7ADFF294604F148006F
:1008F80000F065FAB4F8593094F85B1001339BB2F4
:10090800022904BF5B009BB206335B0004F150026E
:1009180004F124009BB23121BDE87040FFF7F0BD1F
:1009280070BD10B5097800F1380480F8231020460E
:10093800FFF72EFC2046BDE810400021FFF75EBC03
:1009480090F8223010B5012B0C461BD90B78837315
:100958000A780D4802F001024FF4805100F021FDA1
:1009680022784FF48061C2F34002074800F019FD75
:1009780022784FF40061BDE81040C2F380020248BB
:1009880000F00FBD10BD00BF000C014090F82230F0
:10099800012B09D90A784FF48041003218BF01228F
:1009A8004273024800F0FDBC704700BF000C0140D4
:1009B80013B500F13404032202212046FFF796FC08
:1009C8000322ADF8040011462046FFF78FFC0023F0
:1009D8009DF8042062F307039DF8052062F30F23B6
:1009E800C2B262F31743C0F3072060F31F631846CF
:1009F80002B010BD70B501F1340604460D4603225D
:100A080000213046FFF772FC032220800121304686
:100A1800FFF76CFC60802846FFF7CAFFC0F3072386
:100A28006371C0F30743A3712B6B2071C0F3076098
:100A3800E071A360204670BD1FB50446014601A8B9
:100A4800FFF7D8FF0C2301AA122104F12400FFF7B5
:100A580057FD04B010BD000038B504463F4D1023C3
:100A68003F4A29462430FFF7AEFD94F82430002B86
:100A780073D16B88122B4AD017D8032B3BD008D8D8
:100A8800012B2ED0022B31D02046BDE83840FFF78D
:100A9800E2BE102B34D0112BF6D1E37B002BF3D020
:100AA8002F492046FFF705FFEEE7152B3DD00AD862
:100AB800132B33D0142BE7D1E37B002BE4D0204653
:100AC800FFF784FEE0E7172B3FD036D3302BDBD17E
:100AD800E37B002B41D02046BDE838402049FFF792
:100AE800F9BE2046BDE83840FFF7BBBE2046BDE84A
:100AF8003840FFF7BDBE2046BDE83840FFF7CABE04
:100B0800E37B53B32046BDE83840FFF7D6BEE37B0E
:100B18001BB32046BDE83840FFF78EBFE37B002BB0
:100B2800B2D02046FFF770FEAEE7E37B002BABD0D8
:100B38000B492046FFF7F5FEA6E7E37B002BA3D081
:100B480007492046FFF7FCFE9EE7E37B002B9BD07E
:100B580003492046FFF71AFF96E738BD30120020F8
:100B68003612002038B500250446C0E90012C573C6
:100B78002430FFF7A3FC4FF47A73C4E90B35064B16
:100B88006564A36304F1340204F1380104F14800F8
:100B980000F0B4F8204638BD4C3B00084FF47A7298
:100BA800274B30B51B6891B0B3FBF2F3013BB3F1AF
:100BB800807F044609D2F021224A5360224B83F8F1
:100BC80023100023936007231360002501A8A56064
:100BD80025736573A573FFF7C3FD1C4B01991A684C
:100BE80091420AD11A4A08991268914205D1194AC4
:100BF8000F9D1268AA1A554255411B6804F12C0032
:100C08002361134BE5731B686361124B1B68A36177
:100C1800114BE36145F68E33238463681B7884F8AF
:100C28002230012384F82330FFF71EFD04F134003D
:100C3800FFF700FB2046FFF7E7FD11B030BD00BF0E
:100C48001000002010E000E000ED00E0E8F7FF1FD2
:100C5800ECF7FF1FF0F7FF1F03034B95044608B599
:100C6800483000F000F901216068FFF7D9FBA36A5A
:100C780093F8BD2093F8BE309A42F4D06068002102
:100C8800FFF7CEFB2046FFF7E7FEECE708B509487B
:100C980000F0F8F8084800F0FFF8084C0848FFF79B
:100CA8008FFB084801F018FE2046FFF777FF204623
:100CB800FFF7D4FF29010020D03B00082C010020B9
:100CC800280100203011002038B5084D084C28466E
:100CD80000F08AFD2946204601F0DAFD2146BDE8EC
:100CE8003840044A0448FFF73DBF00BF29010020EF
:100CF80030110020280100202C010020C0E900123A
:100D0800002280F8B82F70470023143000EB41010F
:100D1800884202D020F8023BFAE77047143000EB13
:100D28004101884205D0038893FBF2F320F8023B87
:100D3800F7E770472DE9F84305468946174600242A
:100D4800D0F809804C4538D22868414603681B68AA
:100D58009847052000F08BF8E97C012913D005D3CA
:100D6800022912D0D5F80D309844EBE73A46002115
:100D78006868FFF7BBFA621C05EB4404A38A1844B1
:100D8800A08294B2EEE73A46F2E73A466868FFF77F
:100D9800ADFA05EB4402631C9EB2938A0321184402
:100DA800908268683A46FFF7A1FA05EB46039A8AEB
:100DB80002341044A4B29882D4E7BDE8F8832DE940
:100DC800F8430B8904469DB26A1EB2F57A7F35D284
:100DD8004A689AB3012084F8B80F0868A4F811305B
:100DE800C4F809008B7A2068022BE37405F1010529
:100DF8000368ADB208BF6D00C4F80D205B6808BF7A
:100E0800ADB2CE7A9847370906F00F06013632465A
:100E1800290981462046FFF78DFF29462046FFF71E
:100E280073FF4FF00008013747450EDD324629466B
:100E38002046FFF77FFF08F10108F5E700236374F8
:100E4800A37402232372BDE8F8833A462946204654
:100E5800FFF764FF2068494603681B68984700232A
:100E680084F8B83FEFE7002380F8B83F704782B0B6
:100E7800C0000190019B5A1E0192002BFAD102B0CA
:100E8800704700000122024B1860024B1A7070472D
:100E9800481200204C1200200FB41D4B13B51B78CC
:100EA8008BB31C4B1C4C186800F0BAFC1B4A034659
:100EB8006421204602F0DCF9204602F00DFA05AB69
:100EC800C0F16301049A2044019302F039FA2046E4
:100ED80002F002FA0A2323540023204443704FF0FF
:100EE8006043013C14F8012F6AB1D3F8801EC8078B
:100EF800F8D5D3F8001EC907F4D5196809B900BF99
:100F0800FBE71A70EEE702B0BDE8104004B0704786
:100F18004C120020481200204D120020D83B000837
:100F2800374B82B01A6842F001021A605968354A94
:100F38000A405A601A6822F0847222F480321A60D9
:100F48001A6822F480221A605A6822F4FE025A6053
:100F58004FF41F029A600022009201921A6842F42C
:100F680080321A601A6802F400320192009A013243
:100F78000092019A1AB9009AB2F5A06FF2D11A68D4
:100F880012F4003218BF01220192019A012A30D1CD
:100F98001D4A116841F010011160116821F0030128
:100FA8001160116841F0020111605A685A605A686C
:100FB8005A605A6842F480625A605A6822F47C1275
:100FC8005A605A6842F4E8125A601A6842F080720D
:100FD8001A601A689201FCD55A6822F003025A6016
:100FE8005A6842F002025A605A6802F00C02082A53
:100FF800FAD14FF00062054B9A6002B0704700BF0B
:10100800001002400000FFF80020024000ED00E060
:10101800104B11495A6802F00C02082A0AD00F4AEC
:101028000A605B680E4AC3F30313D25C0B68D340B3
:101038000B6070475A685868C2F38342C00302F1D4
:10104800020202D407484243EAE758688003F9D409
:101058000248F8E7001002401000002000127A0051
:101068000000002000093D00FEE700000B4A08B51B
:101078001168034609B90A4911601068033323F05F
:101088000303084903448B4206D902F0E3F80C2312
:1010980003604FF0FF3008BD1360FCE7B412002076
:1010A80044130020004C002070B5FFF739FF194A9F
:1010B800194B1A499A601A4A1A4B8B4218D30021C5
:1010C800194B1A4A934218D3FFF7A2FF0025184E6E
:1010D800184CA41BA410AC4212DC0025164E174C69
:1010E800A41BA410AC4210DCBDE87040FFF7CEBDD5
:1010F80052F8040F43F8040BDFE743F8041BE1E759
:1011080056F8253098470135E5E756F825309847D1
:101118000135E7E70000000800ED00E028010020A5
:10112800043F00080000002028010020441300208C
:1011380034010008340100083401000838010008AF
:1011480040F0BF60024B40F40030D860704700BFE9
:1011580000ED00E070B50125017801F01F039D4006
:10116800C3784C09C3B10F4BDA684378D243C2F352
:101178000222C2F1040603FA06F683780F2020FA49
:1011880002F213403343084A1B01DBB2114481F8D1
:10119800003342F8245070BD034B203443F82450E8
:1011A800F9E700BF00ED00E000E100E043680A79DC
:1011B80023F4702323F4807343EA02230A6810B5EA
:1011C800134343608468D1E902231343084A224049
:1011D80013434A7943EA420383600A7CC36A013AAB
:1011E80023F47003D2B243EA0253C36210BD00BFB6
:1011F800FDF7F1FF836819B143F00103836070477D
:1012080023F00103FAE7836843F00803836070471B
:101218008068C0F3C0007047836843F004038360AC
:1012280070478068C0F380007047836819B143F441
:10123800A0038360704723F4A003FAE7092970B577
:101248001BD90726A1F10A04C56804EB4404A6408B
:1012580025EA060503FA04F42C43C460062A18D8C4
:101268001F24013A436B02EB8202944023EA0403F1
:1012780001FA02F21A43426370BD0724056901EBC3
:101288004106B44025EA040503FA06F42C43046138
:10129800E4E70C2A0CD81F24073A036B02EB8202FE
:1012A800944023EA040301FA02F21A430263E3E7D3
:1012B8001F240D3AC36A02EB8202944023EA040316
:1012C80091401943C162D7E7C06C80B27047036888
:1012D800194214BF0120002070470000014B5861DB
:1012E800704700BF00040140CA782DE9F041D306D9
:1012F80048BF8B780E8802F00F0548BF1D4316F0D3
:10130800FF0F1AD000214FF0010C4FF00F0E0368A9
:101318000CFA01F737EA06040BD18C000EFA04F830
:1013280023EA080305FA04F4282A43EA040326D129
:10133800476101310829EBD10360FF2E1DD908242C
:101348004FF0010C4FF00F0E41680CFA04F737EA22
:1013580006030ED104F18043083B9B000EFA03F804
:1013680021EA080105FA03F3282A41EA03010AD110
:1013780047610134102CE8D14160BDE8F081482A6A
:1013880008BF0761D5E7482A08BF0761F1E7836806
:10139800194214BF01200020704701617047416164
:1013A80070470AB10161704741617047014B18608D
:1013B800704700BFD8004242034A536823F44043B1
:1013C80018435060704700BF00100240044B9A69F0
:1013D80011B110439861704722EA0000FAE700BF94
:1013E80000100240044BDA6911B11043D86170470C
:1013F80022EA0000FAE700BF00100240044BDA6856
:1014080011B11043D860704722EA0000FAE700BF24
:1014180000100240044B1A6911B11043186170475B
:1014280022EA0000FAE700BF0010024030B5048C41
:1014380042EA031324F001042404240C0484048BDA
:10144800058C24F0F3042404240C1C43114BADB286
:101458009842A4B241F0010112D003F5006398420A
:101468000ED0B0F1804F0BD0A3F59833984207D037
:1014780003F58063984203D003F58063984205D151
:1014880025F0020529430483018430BD25F00A05AF
:10149800F8E700BF002C014070B5058C120225F05A
:1014A80010052D042D0C0584058B42EA033325F421
:1014B80040752D052D0D1D43144B048C0E019842CB
:1014C800A4B2B6B2ADB212D003F5006398420ED002
:1014D800B0F1804F0BD0A3F59833984207D003F5AD
:1014E8008063984203D003F58063984207D124F0C3
:1014F800200446F0100634430583048470BD24F0AC
:10150800A00441F010010C43F6E700BF002C014095
:1015180008B5614B98420BD101214FF40060FFF7E9
:101528006DFF00214FF40060BDE80840FFF766BF7B
:10153800B0F1804F09D101210846FFF76BFF002168
:101548000120BDE80840FFF765BF544B984206D11B
:1015580001210220FFF75EFF00210220F1E7504B36
:10156800984206D101210420FFF754FF00210420EE
:10157800E7E74C4B984206D101210820FFF74AFFC4
:1015880000210820DDE7484B984206D101211020B0
:10159800FFF740FF00211020D3E7444B984206D1C3
:1015A80001212020FFF736FF00212020C9E7404B0A
:1015B800984208D101214FF40050FFF71FFF002186
:1015C8004FF40050B0E73B4B984208D101214FF44B
:1015D8000020FFF713FF00214FF40020A4E7364B4B
:1015E800984208D101214FF48010FFF707FF00212E
:1015F8004FF4801098E7314B984208D101214FF4FD
:101608000010FFF7FBFE00214FF400108CE72C4B75
:10161800984206D101214020FFF7FCFE002140201E
:101628008FE7284B984206D101218020FFF7F2FE70
:101638000021802085E7244B984208D101214FF4EE
:101648008070FFF7E7FE00214FF4807079E71F4BA9
:10165800984208D101214FF48030FFF7CFFE0021D6
:101668004FF4803060E71A4B984208D101214FF4BB
:101678000030FFF7C3FE00214FF4003054E7154B4C
:10168800984208D101214FF48020FFF7B7FE0021CE
:101698004FF4802048E708BD002C014000040040BA
:1016A80000080040000C00400010004000140040FA
:1016B80000340140004C01400050014000540140FA
:1016C80000180040001C004000200040004001407D
:1016D8000044014000480140224A038890429BB2DE
:1016E80012D002F5006290420ED0B0F1804F0BD0BC
:1016F800A2F59832904207D002F58062904203D05A
:1017080002F58062904203D14A8823F070031343A4
:10171800154A904208D002F5806290421FBF23F418
:101728004073CA889BB2134303808B8883850B88D8
:1017380003850C4B98420FD003F5006398420BD0F9
:1017480003F54063984207D003F58063984203D0BD
:1017580003F58063984201D10B7A038601238382C3
:10176800704700BF002C014000100040038819B1E9
:1017780043F001030380704723F001031B041B0C93
:10178800F8E7038923F070031B041B0C194301813C
:10179800038943F007030381704738B50D46602D70
:1017A800114604464FF001020DD1FFF775FE21895D
:1017B80021F070010904090C29432181238943F090
:1017C8000703238138BDFFF731FEF0E7838823F054
:1017D80070031B041B0C8380838819438180704726
:1017E80081847047808C70474FF47A72094B1B686C
:1017F800B3FBF2F3013BB3F1807F09D2F021064A33
:101808005360064B83F8231000239360072313606B
:10181800704700BF1000002010E000E000ED00E07D
:10182800014B1868704700BFB8120020034B1868B6
:10183800884294BF00200120704700BFB8120020E2
:10184800024A136801331360704700BFB8120020C2
:10185800704700004FF6FF52034B1A60034A137893
:101868000133DBB213707047445C0040C41200209F
:101878004FF6FF32024B1A60024B5B68184700BFF5
:10188800445C0040400000204DF6FF72014B1A6096
:10189800704700BF445C00404EF6FF72024B0020C8
:1018A8001A6001F003BB00BF445C00404FF6FF63C1
:1018B800F0B4294C88B02360284B29481B6813F4DE
:1018C800004F41D00368013303600368032B3DD9FF
:1018D80024490B6813F0080338D10D68224AADB2C9
:1018E80015601D4605F1805606F5B856B6003668EF
:1018F80008AF07EB85070135B6B2082D47F8206C0D
:10190800F0D1156845F0010515601568ADB20D6098
:10191800156825F001051560126892B20A60226800
:101928005205FCD54FF6FF32226008AA02EB83026B
:1019380052F8201C03F1805202F5B852013392008C
:1019480089B2082B1160F0D100230360072008B08A
:10195800F0BC01F0ABBA00BF445C0040485C0040FA
:10196800C8120020405C0040CC12002008B5074B8C
:101978001B7833B101F04CFA4FF2FF72044B1A6036
:1019880008BD022001F092FAF6E700BFC00000206F
:10199800445C004000232DE9F3478246DFF8889134
:1019A800DFF88881ADF80630D9F800305A4A99B284
:1019B800118019044CD5138803F00F0388F8003000
:1019C800002B65D14BF6BF76544C554D2368554FC7
:1019D8009BB22B802B8803F030033B802B8803F4C9
:1019E80040532B802368334083F4005383F0200353
:1019F80043F4004343F080032360138813F0100F6F
:101A0800236828D123F4E14323F070031B041B0C43
:101A1800236000F057FD23682A883340D0042A88C1
:101A280048BF83F4805391043A8848BF83F4005335
:101A3800D2063A8848BF83F01003960648BF83F061
:101A4800200343F4004343F08003344A9BB21360FD
:101A580002B0BDE8F0879BB2ADF80630BDF806309D
:101A68001A0508D5236823F070031B051B0D236096
:101A780000F030FBCFE7BDF806301B0494D523688F
:101A880023F070031B051B0D236000F087FCC2E7E1
:101A980003F1805202F5B8529200116889B2ADF88C
:101AA8000610BDF806100D0412D511680AEBC30321
:101AB80021F070010905090D1160996B5B6B4A10E3
:101AC800CC070AEB020044BF5AF80220D3589847C3
:101AD800BDF8063018067FF567AF98F8002002F1C8
:101AE800805303F5B8539B00196821F4E14121F0B4
:101AF80070010904090C19605AF832100AEBC20384
:101B08004A10C9070AEB020053F8043C44BF5AF8CC
:101B18000220D358984747E7D0120020005C0040C5
:101B2800BC120020BE120020445C0040F8120020C5
:101B38004FF48020FFF7D2BB334A10B50260334A16
:101B48000021106001220346C0E90112304A00F169
:101B58000C0492E8030084E8030003F1140402F182
:101B6800080103C984E8030003F11C0402F1100111
:101B780003C984E8030003F1240402F1180103C92E
:101B880084E8030003F12C0402F1200103C984E86E
:101B9800030003F1340402F1280103C984E80300B7
:101BA80003F13C0402F1300103C984E8030003F1A6
:101BB800440402F1380103C984E8030003F14C042A
:101BC80002F1400103C984E8030003F1540402F15F
:101BD800480103C984E8030003F15C0402F15001E1
:101BE80003C984E8030003F1640402F1580103C93E
:101BF800603284E8030092E8030003F16C0484E88F
:101C08000300184610BD00BF503C0008C012002059
:101C1800E03B0008244B70B51B68244D9BB2244E52
:101C28002B802B88328804461340990502D5036817
:101C38009B6B984732882B8813401A0403D5236876
:101C48002046DB6B98472B88328813405B0503D509
:101C5800236820461B6C98472B88328813409804C9
:101C680003D5236820465B6C98472B88328813403D
:101C7800D90403D5236820469B6C984732882B8863
:101C880013401A0503D523682046DB6C98472B8838
:101C980032881340DB0505D523682046BDE870402F
:101CA8001B6D184770BD00BF445C0040D012002077
:101CB80008130020014B1868FFF7ACBFC0120020C2
:101CC80008B50020FFF772FBBDE8084001214FF47A
:101CD8000000FFF787BB07B54FF4A060FFF730FAA5
:101CE8001423ADF8043000238DF80630012301A831
:101CF8008DF80730FFF72EFA2A2301A8ADF8043033
:101D0800FFF728FA03B05DF804FB000010B5064C95
:101D180018B9012223681A8210BD044B1B681B687E
:101D2800984720680A30F7E7FC12002004130020C7
:101D380010B5064C18B9012223681A8210BD044B4D
:101D48001B689B68984720680C30F7E7FC12002056
:101D5800041300201E4B10B51C68002310B9022381
:101D6800238210BD1B4803802178024611F07F01B1
:101D780012D1617A8C0644BF0223037003784806A7
:101D88004CBF43F0010323F001031370124B1B688F
:101D98001B6998470F48E4E70129E2D0022915D1C9
:101DA800617901F00F0303F1805303F5B8539B00E9
:101DB80009061B6805D503F03003102BE6D1012373
:101DC800E3E703F44053B3F5805FF7E71846C8E745
:101DD800FC120020D8120020041300202DE9F8433B
:101DE800224FDFF89C803D682C8ACCB92E7A042ECD
:101DF80016D11F490B7873B11E4B1A681E4B92B24D
:101E080013445B001C6030230C70A8F800303B685A
:101E18001E72BDE8F88310230726A8F80030F6E7FD
:101E2800AB8A9C4294BF042602269C4228BF1C46CB
:101E3800AB69204698478146002000F07DFC224689
:101E48000146484600F088FB2146002000F090FC3F
:101E58002B8A4FF440521B1B2B826B8A1C44302365
:101E6800A8F80030054B6C821A80D0E7FC120020DD
:101E7800D2120020505C004002300020BC1200202A
:101E8800BE12002010B50A4B0A491B684978DA7857
:101E980091420AD3997841B99C8834B99A72064B11
:101EA8001B685B689847204610BD0220FCE700BF0E
:101EB800FC120020700000200413002038B50E4AE0
:101EC8000E4D12682B689269D978587990472B681B
:101ED8009A7A7AB170B91A7962B99C7854B9084B70
:101EE8001B68DB68984720462B685A79DA72DA78DB
:101EF8001A7338BD0220FCE700130020FC120020F2
:101F08000413002038B52D4B1B68187810F07F009B
:101F180004D15A7A22F020025A7238BD02284BD1D5
:101F28005A88002AF9D11A79002AF6D15979244D0C
:101F380021F0800000F1805404F5B854A400226810
:101F480049B22D780029B4BF02F0300202F44052A1
:101F5800854231D982B39B7A73B30029236811DA99
:101F680003F03003102B07D1C4B2204600F0B1FBB8
:101F78003021204600F030FB124B1B685B69984704
:101F88000020CAE703F44053B3F5805FF4D10E4D47
:101F980078B90E4B93F82C1000F0F8FB23682B400F
:101FA8009BB283F4405343F4004343F0800323601F
:101FB800E2E700F07BFBF1E70220AEE7FC1200202D
:101FC80070000020041300208FBFFFFF4000002096
:101FD80038B51D4B1D4D18682D78417921F08004C6
:101FE80004F1805202F5B8529200136849B20029F0
:101FF800B4BF03F0300303F44053A54221D9448809
:10200800FCB9F3B1837AE3B113680029B5BF23F4AF
:10201800E04323F4804323F0400323F07003B5BF6B
:102028009BB29BB283F0100383F4805343F40043C4
:1020380043F080031360064B1B689B699847002098
:1020480038BD0220FCE700BFFC1200207000002011
:102058000413002008B5064B1A68537A43F020038E
:102068005372044B1B68DB699847002008BD00BF0A
:10207800FC12002004130020054B10B51C68628A6E
:1020880018B98B889B1A238210BD08681044FBE797
:10209800FC12002008B50B4B002093F82C1000F020
:1020A80075FB094B1B68187A082806D14FF4805233
:1020B800064B1A801022064B1A80A0F109035842D9
:1020C800584108BD40000020FC120020BC1200202E
:1020D800BE120020F7B5984C984E276832683B7AB4
:1020E800092B19D0964B92B213445B001D886D00E2
:1020F80005F1804505F5C0452B783B706B787B7002
:10210800A88800F073FB78802889276800F06EFBA8
:10211800B880AA892368DA80012223681A72DA88CB
:102128005D78002A63D11A7812F07F024CD1092D0C
:1021380003D1FFF7A7FE40BB16E0052D20D193F988
:102148000320002A07DA08232268137203B0BDE8C7
:10215800F040FFF79FBF9A78002AF4D19A88002AA6
:10216800F1D19B7A002BEED13268764B92B21344B0
:1021780000225B001A603022734B1A800623E3E7C3
:10218800032D11D1DA78012A08D0704B28461B6834
:102198005B699847032827D10923D5E79B88002B3B
:1021A800F3D1FFF757FFC6E7012DEED1DA78012A00
:1021B800EBD19A88002AE8D15B7A9F06E5D5644B73
:1021C8001A60FFF79FFEB6E7012A04D10B2DDCD178
:1021D800FFF774FEAFE7022AD7D1012DF1D0032D06
:1021E800D3D1FFF7F5FEA6E70028ACD1BCE7062D52
:1021F80012D11A7855065BD19B78544A012B126884
:1022080002D1D369DBB953E0022B01D1136AF9E794
:10221800032B4DD1536AF5E7002D55D15988002974
:1022280046D15A6822F47F42B2F5003F40D11A786D
:1022380012F07F0216D19B88002B39D1454B00251F
:102248002268284655829361984728464FF6FF71C1
:1022580023681A8A8A4234D0022801D0002A56D12B
:1022680008222FE0012A0AD1384A5879126892695F
:102278009047E8B923689B7A002BDFD118E0022A3F
:1022880016D15A7902F00F0101F18053100603F5B7
:10229800B85331484FEA83031B6800784CBF03F0FA
:1022A800300303F44053884202D912F0700FE3D090
:1022B800264B22681B6850781B6998470328C5D1AC
:1022C800236809221A7241E7082D04D11B785B069E
:1022D800EED1224BB3E70A2DEAD11A7802F07F0239
:1022E800012AE5D19A7A002AE2D059880029DFD15B
:1022F8005A6822F47F42B2F5803FD9D1134A5879FF
:102308001268926990470028D2D1154B97E793F944
:102318000010002937DAD9880C4801910068019D1E
:1023280090F82C00AA4284B21CD9019A1A829C8285
:10233800FFF754FD0AE700BFFC120020505C004084
:102348000430002002300020BE12002000130020BC
:10235800D41200205D1D000870000020151D000823
:10236800391D00088A42E2D2A24203D20021094A5A
:102378001170DCE792FBF0F100FB1122002AD6D1A4
:10238800044A0121F4E703221A724FF44052024B27
:102398001A80DBE6D2120020BC120020F8B5334DBB
:1023A8002C68237A022B5ED0042B5CD0032B01D03F
:1023B800052B52D1A369B3B1268AA6B1A28A964247
:1023C80028BF164630469847238A07469B1B238218
:1023D800638A00203344638200F0BCF93246014628
:1023E800384600F0CAF8238A53B100214FF440520E
:1023F8001F4B08461A8000F0BBF930221D4B1A808B
:10240800268AA28A2B68B24209D803221A722B683C
:102418001B7A2A681372BDE8F840FFF73BBE0EB17D
:102428000522F3E706221A72134B1B689B6898472C
:102438002B6810491B7A082B06D14FF480520C4B9D
:102448001A8010230B80E2E70C4B1A680C4B92B2EF
:1024580013445B001E603023F4E7072B03D1064BBF
:102468001B68DB6898470823D3E700BFFC120020ED
:10247800BC120020BE12002000130020505C004057
:1024880002300020F0B5002240F60F7648F28005B1
:102498000A4B1F78BA420CD202F1805303F5B853A5
:1024A8009B00196842EA0504314021431960013252
:1024B800F0E7034B40F080001860F0BD700000208A
:1024C8004C5C004010B5134C23681A7A022A01D0DC
:1024D800042A09D1FFF782FC23681B7A2268137249
:1024E800BDE81040FFF7D6BD062A10D15A78052A54
:1024F80009D11A78520606D1D878FFF7C3FF064BE0
:102508001B681B6A9847054B1B689B6898470823FC
:10251800E4E700BFFC120020041300200013002091
:1025280070470000064B074A0749136002221A72D7
:10253800064B074A1360074A1B681160184700BF1B
:10254800DC120020FC120020940000204000002033
:10255800001300200413002001F1005101F540513F
:1025680001324900520801EB82028A4204D030F855
:10257800023B21F8043BF8E77047002310B501F14E
:102588000051013201F54051521049009A4205D0DC
:1025980051F8234020F813400133F7E710BD00003D
:1025A800014B1860704700BF445C00404FF6F87359
:1025B800014A034013607047505C004000F18050AE
:1025C80000F5B8508000036823F4EC4323F070034F
:1025D800194389B20160704700F1805000F5B85086
:1025E80080000368CA0623F4E04323F040039BB24B
:1025F80048BF83F010038A0648BF83F0200343F4E2
:10260800004343F080030360704700F1805000F5F9
:10261800B85080000368CA0423F4804323F0700391
:102628009BB248BF83F480538A0448BF83F40053A5
:1026380043F4004343F080030360704700F1805087
:1026480000F5B8508000036823F4E04323F040030A
:102658009BB283F0300343F4004343F080030360EC
:10266800704700F1805000F5B8508000036823F4EB
:10267800804323F070039BB283F4405343F4004338
:1026880043F080030360704700F1805000F5B850B4
:102698008000036823F4F8731B051B0D43F4004303
:1026A80043F0800303607047FFF7EEBF00F18050EE
:1026B80000F5B850800003685B0409D5036823F06F
:1026C800F0031B051B0D43F4404343F080030360F4
:1026D800704700F1805000F5B850800003685B0631
:1026E80009D5036823F0F0031B051B0D43F40043D1
:1026F80043F0C00303607047064B21F001011B68DB
:102708009BB203EBC00000F1005000F540504000C0
:1027180001607047505C0040054B21F001011B68C7
:102728009BB203EBC000034B03445B001960704786
:10273800505C004004300020054B1B689BB203EB43
:10274800C00000F1005000F540504000008870477C
:10275800505C0040044B1B689BB203EBC000034B6A
:1027680003445B0018887047505C00400430002028
:10277800044B1B689BB203EBC000034B03445B0094
:1027880019607047505C0040023000200D4B0E4A23
:102798001B683E299BB203EBC00002444FEA420289
:1027A8000AD94B09C80604BF03F1FF339BB29B0249
:1027B80043F40043136070474B08C90748BF01330F
:1027C8009B02F7E7505C004006300020054B1B6871
:1027D8009BB203EBC000044B03445B001868C0F3D2
:1027E80009007047505C004006300020C3B2000A60
:1027F80040EA0320704700000020044B044A186098
:102808004FF43F431380034A13607047445C004011
:1028180008130020405C004010B590F8FD1090F8B7
:10282800FE300446C91AC9B20548FEF735FB002335
:1028380084F8FD3084F8FE3084F87C3010BD00BF89
:10284800633D000838B590F8BE2090F8BD300446C6
:102858009A421AD30320FFF7B9FF05460320FFF772
:1028680079FF2A460146EDB204F17D00FFF785FEA7
:1028780084F8BD5094F8BD1094F8BE300348C91AC6
:10288800C9B2BDE83840FEF707BB38BDA73D000810
:1028980038B504460D46FFF74FF9656700250D4B1F
:1028A80029462360A56784F87C50402204F17D0006
:1028B80000F0D6FC84F8BD503E2284F8BE5029466C
:1028C80004F1BF0000F0CCFC84F8FD50204684F8E9
:1028D800FE5038BDC83D000810B50446FFF7F0F9B2
:1028E8002046FFF7F8F9FFF71DFE3E2240210A486F
:1028F800FEF7D2FA94F8FD1094F8FE30074A94F8DF
:10290800FD00C91A064BC9B23D2898BF1A46BDE852
:1029180010400448FEF7C0BADD3C0008D63C000869
:10292800D53C00080B3D000838B50023044680F864
:10293800BD3080F8BE300320FFF793FE1048FEF745
:10294800ABFA606FFEF76CFF00F5FA7594F8BE20DD
:1029580094F8BD309A4207D32946606FFEF766FFA8
:102968000028F3D00123A36794F8BD1094F8BE3073
:10297800A26FC91AC9B20348BDE83840FEF78CBA3D
:10298800A43C0008BB3C0008002370B5836790F89E
:10299800BE2090F8BD3004469A4205D31248FEF78F
:1029A8007BFA2046FFF7C0FFA56FDDB994F8BE306B
:1029B800DBB25A1CD2B284F8BE20234494F8BE205D
:1029C80093F87D6094F8BD309A4209D30748FEF722
:1029D80063FA84F8BD50032084F8BE50FFF741FE27
:1029E800304670BD0026FBE7293D0008433D00083E
:1029F80070B50C4690F8FD1090F8FE301646C91ACE
:102A08000546C9B20748FEF747FA2644B44207D03C
:102A1800AB6F2BB92846FFF7B7FF04F8010BF5E7B2
:102A280070BD00BF1F3D000838B590F87C300446E3
:102A380003F0FF0223B1BDE838402348FEF72CBA63
:102A480090F8FD1090F8FE3099423BD0012580F8AF
:102A58007C50826790F8FD2090F8FE30C021D21A91
:102A6800D2B2BF30FFF778FD94F8FD1094F8FE302D
:102A78002846C91AC9B2FFF77BFE2846FFF7DEFDD4
:102A8800606FFEF7CDFE00F5FA7594F87C3073B1EF
:102A98002946606FFEF7CAFE0028F6D00123A36717
:102AA800002384F8FD3084F8FE3084F87C3094F8F4
:102AB800FD1094F8FE300548C91AC9B2BDE838407F
:102AC800FEF7EAB938BD00BF743D00088F3D000825
:102AD80038B590F8FD3004463D2B0D460CD9FFF76C
:102AE800A3FF94F8FD30DBB25A1CD2B284F8FD2063
:102AF8001C4484F8BF5038BD90F8FD30DBB25A1C36
:102B0800D2B2034480F8FD2083F8BF1090F8FD305E
:102B18003D2BF0D9BDE83840FFF786BF70B50D46AC
:102B280090F8FD1090F8FE301646C91A0446C9B24E
:102B38000748FEF7B1F92E44B54207D0A36F2BB969
:102B480015F8011B2046FFF7C3FFF5E770BD00BF6E
:102B58009C3D0008002370B51E46050FECB2092DF8
:102B680094BF3034373401F8134001EB4304013388
:102B78006670DCB2A2424FEA0010EED870BD0000C9
:102B88000A4B10B5186808331B68C0180CD0084BDE
:102B980008221C680749FFF7DDFF2046BDE8104002
:102BA80004220549FFF7D6BF10BD00BFE8F7FF1F95
:102BB800ECF7FF1F1600002026000020034B9B7A2D
:102BC80013B10522024B1A60704700BFDC120020C7
:102BD800301300200422014B1A6070473013002084
:102BE800034B1A78202A04BF00221A70704700BFCE
:102BF8000A13002070470000212810B508D1104B97
:102C08001B681B7803F07F03212B16D0022013E0EA
:102C18002028FBD10A4B1B681B7803F07F03212B6C
:102C2800084B1870F2D1084B0024054A2046126858
:102C3800936154829847204610BD044BF4E700BFC7
:102C4800FC1200200A130020A52C00088D2C000877
:102C5800074B1B681B7803F07F03212B06D100F07C
:102C6800DF00022814BF02200020704702207047AE
:102C7800FC12002021B901288CBF022000207047D7
:102C88000220704720B90822024B1B681A8270473D
:102C980001487047FC120020B8000020FFF7F2BF7F
:102CA80010B50024FFF76CFF044B1B689C7200F002
:102CB80095F8FFF7A1FD024B1C6010BDFC12002027
:102CC8003013002010B50024324B334A1B68D279E8
:102CD8005C815A722046FFF769FC4FF40071204668
:102CE800FFF76CFC10212046FFF776FC40212046B8
:102CF800FFF712FD80212046FFF7FEFC2046FFF774
:102D0800D3FC264B204693F82C10FFF73FFD2046B6
:102D1800FFF7A7FC21460120FFF750FCC021012046
:102D2800FFF7EAFC20210120FFF756FC214601208D
:102D3800FFF76BFC4FF4C0610220FFF73FFC4FF434
:102D480080710220FFF7D8FC21460220FFF75DFCC6
:102D580020210220FFF740FC21460320FFF72EFC2C
:102D68004FF488710320FFF7D7FC40210320FFF7B9
:102D78000DFD4FF440510320FFF747FC2146032087
:102D8800FFF72AFC2046FFF77DFB0122044B1A605F
:102D980010BD00BFFC1200201C3E000840000020AF
:102DA800301300200149FFF767B900BF3800002041
:102DB8000149FFF761B900BF30000020054B1B68CF
:102DC800DB78032B04D8044901EBC301FFF754B99E
:102DD80000207047FC12002074000020012370B509
:102DE8000024084D084E2B60084B348020462C6088
:102DF8001B68FFF7D5FB4FF4E053204633802B6068
:102E080070BD00BF405C004008130020445C0040D7
:102E180030B51D4C002125461C4A13689BB201F1B0
:102E2800805000F5B8508000006880B244F8210056
:102E380001310829F3D143F4806123F001031160C3
:102E48009BB241F00101116043F4806111601049A7
:102E580008684005FCD54FF6FF300860002155F89A
:102E6800214001F1805000F5B85001318000A4B232
:102E780008290460F3D143F48163136013689BB29B
:102E880043F00403136030BD0C130020405C004085
:102E9800445C00404FF6FB72034B19680A401A6005
:102EA8004FF43F421A607047405C004010B5254C13
:102EB800072818BF20702378052B09D8DFE803F00E
:102EC800030D1519222D204B1B681BB9FFF7E2FFD4
:102ED800062300E00523237006E0FFF7DBFF042349
:102EE80001222370184B1A6010BD0223637003235C
:102EF800F1E76378013BDBB263706378002BF3D1B1
:102F08000423E8E7114A13689BB243F010031360E7
:102F1800052323700A236370E6E76378013BDBB27D
:102F28006370637803F0FF01002BDDD14FF6EF7378
:102F3800064A10680340136006232370024B196089
:102F4800D2E700BF2C13002034130020405C00405F
:102F580053B94AB9002908BF00281CBF4FF0FF31F8
:102F68004FF0FF3000F074B9ADF1080C6DE904CEF4
:102F780000F006F8DDF804E0DDE9022304B070474C
:102F88002DE9F0478C460446089E002B4BD18A4217
:102F9800154667D9B2FA82F24AB1C2F1200701FA9E
:102FA80002F320FA07F7954047EA030C94404FEAEA
:102FB800154EBCFBFEF71FFA85F80EFB17C307FB7F
:102FC80008F9210C41EA0343994509D9EB1807F19F
:102FD800FF3180F01C81994540F21981023F2B4452
:102FE800A3EB0903B3FBFEF00EFB103300FB08F163
:102FF800A4B244EA0344A14209D92C1900F1FF33D1
:1030080080F00781A14240F2048102382C4440EA52
:1030180007400027641A1EB10023D440C6E90043C4
:103028003946BDE8F0878B4209D9002E00F0EC80C4
:103038000027C6E9000138463946BDE8F087B3FAEB
:1030480083F7002F48D18B4202D3824200F2FB80E3
:10305800841A61EB030301209C46002EE0D0C6E9E8
:10306800004CDDE702B9FFDEB2FA82F2002A40F036
:103078008F800127491B4FEA15481FFA85F9B1FBD4
:10308800F8FE08FB1E1109FB0EF04FEA144C4CEA3F
:103098000143984207D9EB180EF1FF3102D298424A
:1030A80000F2CD808E461B1AB3FBF8F008FB1033F4
:1030B80009FB00F9A4B244EA0344A14507D92C1935
:1030C80000F1FF3302D2A14500F2B6801846A4EB06
:1030D800090440EA0E409EE7C7F12005BB4022FAEA
:1030E80005FC4CEA030C21FA05F44FEA1C4EB4FB2C
:1030F800FEF91FFA8CF80EFB194420FA05F3B940C3
:1031080009FB08FA19430B0C43EA0444A24502FAE6
:1031180007F200FA07F30BD91CEB040409F1FF309E
:1031280080F08880A24540F28580A9F102096444B4
:10313800A4EB0A04B4FBFEF00EFB104400FB08FAF3
:1031480089B241EA0444A24508D91CEB040400F101
:10315800FF316BD2A24569D90238644440EA09407C
:10316800A0FB0289A4EB0A044C454146CE4654D341
:1031780051D0002E69D05A1A64EB0E0404FA05F5F2
:1031880022FA07F3FC401D43C6E90054002747E72D
:103198009540C2F1200321FA03F04FEA1548B0FB2D
:1031A800F8F71FFA85F908FB170024FA03F3914092
:1031B80007FB09FC0B43190C41EA00418C4504FA52
:1031C80002F407D9691807F1FF3031D28C452FD99D
:1031D800023F2944A1EB0C01B1FBF8F008FB101CDD
:1031E80000FB09FE99B241EA0C418E4507D96918DE
:1031F80000F1FF3318D28E4516D902382944A1EBC5
:103208000E0140EA07473AE73746304608E70F46D7
:10321800E6E61846FBE64345ABD2B8EB020169EB9C
:103228000C0201389646A4E71846E8E7084695E7F1
:103238000746CFE781467BE702382C4447E7AEF1E3
:10324800020E2B442FE7384607E73746E8E600BF6B
:10325800704700BF014B1868704700BFC4000020CA
:1032680003460244934200D1704703F8011BF9E773
:103278000CB430B5174B0C1E9DB01D6808DA8B23B3
:103288004FF0FF302B601DB0BDE8304002B07047F2
:103298004FF40273ADF814300CBF234604F1FF332A
:1032A800049307934FF6FF7302900690ADF816301B
:1032B800209A21AB02A92846019300F0A9F8431CE3
:1032C800BCBF8B232B60002CDDD00022029B1A7020
:1032D800D9E700BFC4000020034613F8012B002AD9
:1032E800FBD1181A0138704730B5141E05469BB03B
:1032F800184605DA8B234FF0FF302B601BB030BD2A
:103308004FF40273ADF80C300CBF234604F1FF33C1
:10331800029305934FF6FF7300910491ADF80E30B8
:1033280002461E9B6946284600F072F8431CBCBF43
:103338008B232B60002CE1D00022009B1A70DDE764
:1033480007B5009313460A46014603480068FFF78D
:10335800CBFF03B05DF804FBC40000202DE9F04763
:103368008E6882469E420C469046994637D88A898E
:1033780012F4906F31D00223256809696F1A6569C4
:1033880005EB450595FBF3F509F101033B449D4227
:1033980038BF1D46530530D5294600F035FB064693
:1033A80050B90C234FF0FF30CAF80030A38943F01E
:1033B8004003A381BDE8F0873A46216900F0B4FADA
:1033C800A38923F4906343F08003A38126613E44DC
:1033D80026604E466561ED1BA5604E4500D94E46F8
:1033E80032464146206800F0AAFAA36800209B1BD9
:1033F800A36023681E442660DCE72A4600F05EFBD3
:1034080006460028E2D12169504600F0B1FAC8E723
:103418002DE9F04F9DB003938B8980461D060C461D
:1034280016460FD50B696BB9402100F0EDFA206004
:10343800206128B90C23C8F800304FF0FF30C7E0EE
:10344800402363610023099320238DF8293030231A
:103458004FF0010B8DF82A3037463D4615F8013BF1
:103468000BB1252B3ED1B7EB060A0BD0534632469B
:1034780021464046FFF772FF013000F0A480099B07
:10348800534409933B78002B00F09D8000234FF0B4
:10349800FF32CDE90523049307938DF853301A932F
:1034A8002F46052217F8011B4F4800F02FFA049BFE
:1034B800D0B9D90644BF20228DF853201A0744BF3B
:1034C8002B228DF853202A782A2A15D02F4600203F
:1034D8000A25079A394611F8013B303B092B4DD98B
:1034E800B8B10FE02F46B8E73F4A3D46801A0BFABD
:1034F80000F018430490D3E7039A111D1268039152
:10350800002A01DB079204E0524243F002030792CB
:1035180004933B782E2B0CD17B782A2B33D1039B39
:1035280002371A1D1B680392002BB8BF4FF0FF33F8
:1035380005932E4D03223978284600F0E7F938B173
:103548004023401B03FA00F0049B01370343049314
:103558003978062226487E1C8DF8281000F0D6F906
:10356800002838D0234B13BB039B073323F00703F2
:1035780008330393099B4B4409936DE705FB02321B
:1035880001200F46A6E700230A25194601370593AF
:10359800384610F8012B303A092A03D9002BC8D035
:1035A8000591C6E705FB012101230746F0E703ABB8
:1035B80000932246104B04A94046AFF30080B0F1B7
:1035C800FF3F8146D6D1A3895B063FF536AF099800
:1035D8001DB0BDE8F08F03AB00932246064B04A94B
:1035E800404600F081F8EAE7CD3E0008D33E0008E7
:1035F800D73E000800000000653300082DE9F047B9
:1036080091461F468A680B6906469342B8BF13461F
:10361800C9F8003091F843200C46DDF8208012B13B
:103628000133C9F800302368990642BFD9F8003041
:103638000233C9F80030256815F0060507D104F1F2
:10364800190AE368D9F800209B1AAB4229DC94F8E0
:1036580043302268003318BF012392062ED404F1A8
:10366800430239463046C047013021D02368E56817
:1036780003F00603042B18BF0025D9F800204FF0EB
:10368800000908BFAD1AA368226908BF25EAE575D5
:103698009342C4BF9B1AED181A344D451AD1002025
:1036A80008E00123524639463046C047013003D16D
:1036B8004FF0FF30BDE8F0870135C2E73020E11850
:1036C80081F843005A1C94F845102244023382F8CA
:1036D8004310C4E70123224639463046C04701302B
:1036E800E6D009F10109D8E72DE9F04301F1430CCF
:1036F8000C46097E85B06E291746064698460C9AF0
:1037080000F0B38022D8632936D00AD8002900F007
:10371800B980582900F0838004F1420584F84210EA
:1037280032E0642901D06929F6D1206813680506BA
:1037380003F104012AD51B681160002B03DA2D223E
:103748005B4284F843206F480A2239E0732900F06D
:103758009D8008D86F2920D07029DDD1236843F0D7
:103768002003236003E0752917D07829D4D1782362
:10377800654884F8453055E0136804F14205191D81
:103788001B68116084F8423001238CE01B6810F03C
:10379800400F116018BF1BB2CFE713682568181DCA
:1037A8001060280601D51B6802E06806FBD51B8857
:1037B8006F2914BF0A2208225248002184F84310B6
:1037C8006568002DA560C0F29580216821F004018C
:1037D8002160002B3DD1002D40F08E806546082ADF
:1037E8000BD12368DB0708D5236962689A42DEBFDC
:1037F800302305F8013C05F1FF35ACEB05032361E7
:10380800CDF800803B4603AA21463046FFF7F6FE76
:1038180001304DD14FF0FF3005B0BDE8F083394895
:1038280084F84510136821681D1D1B6815600A0679
:103838000BD5CA0744BF41F0200121601BB922689B
:1038480022F0200222601022B7E74D0648BF9BB243
:10385800EFE76546B3FBF2F102FB1133C35C05F8F1
:10386800013D0B460029F5D1B9E713682568181DF5
:103878006169106028061B6801D5196002E06A06B4
:10388800FBD51980002365462361B9E71368191D24
:1038980011601D6862680021284600F037F808B1F9
:1038A800401B606063682361002384F84330A7E706
:1038B80023692A4639463046C0470130AAD02368D2
:1038C8009B0713D4E068039B9842B8BF1846A3E748
:1038D80001234A4639463046C04701309AD001355F
:1038E800E368039A9B1AAB42F2DCEBE7002504F18C
:1038F8001909F5E7002BACD1037804F1420584F8E7
:1039080042306CE7DE3E0008EF3E000810B5C9B251
:1039180002449042034601D1002303E01C780130A1
:103928008C42F6D1184610BD10B5431E0A44914288
:1039380000D110BD11F8014B03F8014FF7E7884299
:1039480010B501EB020307D8421E99420AD011F8BC
:10395800014B02F8014FF8E78342F5D98118D21AD2
:10396800D34200D110BD13F8014D01F8014DF7E71E
:1039780038B50546002943D051F8043C0C1F002BEC
:10398800B8BFE41800F0D0F81E4A1368104633B9DF
:10399800636014602846BDE8384000F0C6B8A3420A
:1039A8000BD921686218934201BF1A685B685218E4
:1039B800226063600460EDE713465A680AB1A242C8
:1039C800FAD919685818A0420BD120680144581830
:1039D80082421960DED110685268014419605A6049
:1039E800D8E702D90C232B60D4E7206821188A4233
:1039F80001BF116852680918216062605C60C9E7FC
:103A080038BD00BF3813002070B5CD1C25F0030564
:103A180008350C2D38BF0C25002D064601DBA942C0
:103A280003D90C233360002070BD00F07DF8214AD3
:103A38001468214691B9204C23681BB9304600F020
:103A480063F820602946304600F05EF8431C24D114
:103A58000C233046336000F068F8E4E70B685B1B22
:103A680018D40B2B0FD90B60CC18CD50304600F072
:103A78005CF804F10B00231D20F00700C31AD3D013
:103A88005A42E250D0E74B688C4216BF636013601D
:103A98000C46EBE70C464968CCE7C41C24F0030449
:103AA800A04205D0211A304600F02EF80130CFD0C0
:103AB8002560DBE7381300203C130020F8B50746E3
:103AC80014460E4621B9BDE8F8401146FFF79CBFE1
:103AD80022B9FFF74DFF25462846F8BD00F026F825
:103AE800A0420FD221463846FFF78EFF0546002830
:103AF800F2D031462246FFF717FF31463846FFF726
:103B080037FFE9E73546E7E738B50023054C0546B2
:103B180008462360FDF7AAFA431C02D1236803B1C3
:103B28002B6038BD401300207047704751F8043CA3
:103B3800181F002BBCBF0B58C018704700000000AE
:103B480000000000050200083901000831F22B6767
:103B58003985566094E27B60F9E7E29FE3A1169A03
:103B68009FD228881F0268051744164830A450E4DD
:103B7800D95F54D4EF5331DA5BD25C4BEB8C507382
:103B8800D19804927D92738DC7AFFFC1D47AAF9557
:103B9800604BC29A1751245A4677C05E105CA50440
:103BA8009488E18DD9BAC699FE47A301CD017AF868
:103BB800A26701EC2CA4293F98FE2103BEF669FEFA
:103BC80022C11262A174B990737461727465640041
:103BD800253031306C752000040000000100000021
:103BE80008000000010000000C00000001000000B7
:103BF8001000000001000000140000000100000097
:103C080018000000010000001C0000000100000076
:103C18002000000001000000240000000100000056
:103C280028000000010000002C0000000100000036
:103C38003000000001000000340000000100000016
:103C4800000000000000000059180008591800087A
:103C58005918000859180008591800085918000878
:103C68005918000859180008591800085918000868
:103C78005918000859180008591800085918000858
:103C88005D1800089D1900087918000891180008A7
:103C9800A118000875190008B5180008776169743B
:103CA800696E6720666F72207061636B6574202E81
:103CB8002E2E00726563656976656420256420424E
:103CC8002C207374617475733A2025640A00286681
:103CD800756C6C29005553422056434F4D20696E30
:103CE800697469616C697A65642028525820627524
:103CF800663A2025642C205458206275663A20259F
:103D080064290054582062756620636F756E743A92
:103D18002025642025730072656164202564204293
:103D280000727842756620656D7074792C20726512
:103D38006164206D6F72652E2E2E00727842756652
:103D480020656D7074792C207363686564756C6583
:103D5800206E657874207265616400657031696EE3
:103D68003A2073656E742025642042007772697466
:103D78006520616C726561647920696E2070726F6C
:103D880067726573732100666C75736865642025B6
:103D980064204200777269746520256420420065BA
:103DA80070336F75743A207265636569766564204F
:103DB8002564204200000000000000000000000010
:103DC800212800085918000859180008591800082F
:103DD80059180008591800085918000859180008F7
:103DE800591800084D2800085918000859180008E3
:103DF80059180008591800085D1800089D1900088E
:103E08007918000891180008A11800087519000809
:103E1800B518000809024300020100C03209040075
:103E2800000102020100052400100105240100011F
:103E3800042402020524060001070582030800FF86
:103E480009040100020A00000007050302400000FF
:103E580007058102400000120100020202024083AD
:103E680004405700020102030104030904320372EB
:103E7800006100640069006F00330020006200796F
:103E88000020005300510036004400470054002031
:103E98000020002000200020002000200020002614
:103EA80003530054004D006900630072006F006501
:103EB800006C0065006300740072006F006E00699A
:103EC8000063007300232D302B2000686C4C0065C4
:103ED800666745464700303132333435363738392E
:103EE8004142434445460030313233343536373861
:083EF800396162636465660034
:083F000088F0FF7F01000000C2
:103F08000000000000000000010203040607080981
:103F180000A24A041A03530054004D003300320033
:103F28000000000000000000000000000000FFFF8B
:103F38001C3E0008430000005F3E0008120000001D
:103F4800A92C0008CD2C0008E92B0008FD2B00083F
:103F5800012C0008592C00087D2C0008AD2D000804
:103F6800B92D0008C52D0008000000004000000021
:103F78000401FFFF713E000804000000A73E00088E
:103F880026000000753E00083200000014000020E2
:103F98001A00000029250008C52B0008292500085B
:103FA80029250008292500082925000829250008B1
:103FB80029250008DD2B000800C2010000000800C8
:103FC80001FFFFFFC8000020000000000000000003
:103FD80000000000000000000000000000000000D9
:103FE80000000000000000000000000000000000C9
:103FF80000000000000000000000000000000000B9
:1040080000000000000000000000000000000000A8
:104018000000000000000000000000000000000098
:08402800000000000000000090
:0400000508000138B6
:00000001FF
