:020000040800F2
:100000000050002071100008311000083110000865
:100010003110000831100008311000080000000005
:100020000000000000000000000000003110000887
:1000300031100008000000003110000865070008BA
:10004000311000083110000831100008311000088C
:10005000311000083110000831100008311000087C
:10006000311000083110000831100008311000086C
:10007000311000083110000831100008311000085C
:10008000311000083110000831100008311000084C
:10009000851C0008311000083110000831100008DC
:1000A000311000083110000831100008311000082C
:1000B000311000083110000831100008311000081C
:1000C000311000083110000831100008311000080C
:1000D00031100008311000083110000831100008FC
:1000E0003110000831100008011B0008000000005A
:1000F0000000000000000000000000000000000000
:0C01000000000000000000005FF808F1A3
:10010C00FC3E00080000002028010020FC3E0008F6
:10011C000000000000000000280100205013002007
:0C012C000000000000000000850C00082E
:10013800C068704738B50D46084C0122204601F0CA
:100148000EF9012000F072FE20462946002201F037
:1001580006F9BDE83840012000F068BE000C0140F7
:10016800F8B506460D460824084F05F001024FF47D
:100178000071384601F0F3F84FF480713046FFF70C
:10018800D9FF013C4FEA5505EFD1F8BD000C0140FD
:1001980013B50446F9B1012921D00121082001F045
:1001A800F3F8104B01A91048019301F07DF84FF4C2
:1001B80070710D4801F0D1F820464021FFF7BAFFD1
:1001C80020464FF48071FFF7B5FF80212046FFF7E6
:1001D800B1FF02B010BD054BA3602171DDE7044BF0
:1001E800FAE700BFC0030310000C01404059730731
:1001F8000095BA0A002370B58268C16004461846A3
:1002080002F088FE04250646F1B22046FFF7A8FF53
:10021800013D4FEA1626F7D121792046FFF7A0FFC6
:100228002046BDE870408021FFF784BF10B54FF429
:10023800004086B001F09EF801214FF4017001F0F2
:10024800A3F8164B694616480093012401F02CF8D0
:1002580000234FF4602201A912480193ADF8083039
:10026800CDE903238DF8144000F080FF0D482146A6
:1002780000F0A0FF0B4800F0A6FF0A4800F0A8FF16
:100288000028FAD1074800F0A7FF064C204600F0E6
:10029800A8FF0028FAD106B010BD00BF0F00030068
:1002A800000801400024014008B50A48072301223C
:1002B80000F0A4FF0121074800F097FF022105483C
:1002C80000F0E5FF0028F9D0BDE80840014800F03B
:1002D800DBBF00BF002401402DE9F04100250646A0
:1002E8000F4690462C46454509D039463046FFF71B
:1002F800DBFF0444052000F099FD0135F3E7B4FB6A
:10030800F5F080B2BDE8F08113B501210446102054
:1003180001F03AF81C4B01A91C48019300F0C4FFF6
:100328004FF40051194801F016F80121082001F096
:100338002BF814238DF807304FF4005301A9144803
:10034800ADF8043000F0B0FFBDF80410104801F01B
:1003580002F8104B01A90E48019300F0A5FF4FF4D5
:1003680080510B4800F0F1FF58B94FF4004108489C
:1003780000F0EBFF002814BF02230323237002B010
:1003880010BD0123FAE700BF00200314001001404C
:10039800000C01400090034813B5114CFFF7B4FF5F
:1003A800104B01A92046019300F07EFFBDF8041010
:1003B800204600F0D2FF0121042000F0E5FF4FF4B1
:1003C8000073A4F5806401A92046ADF8043000F05C
:1003D8006BFF4FF40051204600F0BFFF02B010BD84
:1003E800000C014000DC031010B581F00104224626
:1003F8004FF40051054800F0B2FF2246BDE8104016
:100408004FF40051024800F0AABF00BF001001409D
:10041800000C014038B51546074C0A4620464FF4F3
:10042800004100F09CFF2A462046BDE838404FF4C2
:10043800805100F094BF00BF000C0140082210B5A5
:10044800037883EA010414F0010F4FEA530318BF3D
:1004580083F08C0302F1FF3218BFDBB212F0FF0207
:100468004FEA5101EDD1037010BD70B505460C4639
:100478008E18B44205D014F8011B2846FFF7DEFF9A
:10048800F7E770BD002241600270704738B54068D8
:100498000D46836F144643B9114602F0FBFA214614
:1004A8002846BDE83840FFF7C9BF38BD70B50546D6
:1004B8000E461446D2B2FFF7E9FF220A3146284613
:1004C800BDE87040FFF7E2BF73B51C4600230D2C52
:1004D800054616468DF8043006D841EA043292B231
:1004E80001A9FFF7E3FF0EE0B4F5877F25D241F4B9
:1004F800604201A9FFF7DAFFA4F10E02D2B201A906
:100508002846FFF7C3FF6868836FA3B95CB122462A
:10051800314602F0E5FA6B689B6F63B922463146B3
:1005280001A8FFF7A2FF68689DF8041002F0B2FA6C
:10053800686802F05BFA02B070BD41F4704201A92C
:10054800FFF7B4FFA4F5877292B201A92846C8E75D
:1005580038B540680D46836F43B902F0F5F9044693
:1005680001462846FFF76AFF204638BD0024FBE70E
:1005780070B505460E46FFF7EBFF314604462846A0
:10058800FFF7E6FF04EB002080B270BDF7B51F4609
:100598000023044603700D4601A98DF80430164661
:1005A800FFF7E6FF63689B6F1BB10223237003B05C
:1005B800F0BDC0F30F330D2BC0F30A002B70688019
:1005C80023D8AB806068836F002BEED1AD88BD4225
:1005D80028BF3D4665B12A46314602F0EBF963680B
:1005E8009B6F002BE3D12A46314601A8FFF73DFF58
:1005F800606802F0A9F963689B6F002BD5D19DF85C
:100608000420824218BF0123D0E70E2B01A92046FF
:1006180004D1FFF79DFF0E30A880D3E7FFF7A8FFAE
:1006280000F58770F8E700007FB5012140F6040067
:1006380000F0AAFE012100244FF6FF76084600F0DC
:10064800B1FE214D214B69462148009300F02CFE54
:10065800284600F043FF01A92846CDE90144ADF83A
:100668000C40ADF8086001F01DF8234622462846E4
:10067800502101F078F82021284601F08DF84FF03C
:10068800804000F02BFF01A94FF08040CDE90146E2
:1006980001F008F821464FF0804001F058F8214653
:1006A800284601F083F821464FF0804001F07EF89B
:1006B8002846012101F040F801214FF0804001F067
:1006C8003BF804B070BD00BF002C014000010318C6
:1006D8000008014070B504680546013C0460B4B9DF
:1006E8004FF0804001F064F80646094801F060F8D0
:1006F80040EA064068602146054801F057F821465F
:100708004FF0804001F052F84FF47A732B6070BDBF
:10071800002C0140A32330B50749084C013814F8D0
:10072800012B11F8015B6A405A40013BDBB2672B91
:1007380000F8012FF3D130BD843B0008483B000886
:1007480010B50446044801F061F804F12C00BDE836
:100758001040FFF7BFBF00BF290100200148FFF785
:10076800EFBF00BF2C01002010B50446044800F07C
:100778005DFB002260681146BDE81040FFF74ABEE5
:10078800A086010090F8222010B5012A044605D061
:100798000AB1032A0AD90123237310BD0021406836
:1007A800FFF738FE2046FFF7DFFFF4E701224FF49A
:1007B8000041024800F0D3FDEDE700BF000C014006
:1007C80090F8221010B50129044605D009B1032973
:1007D8000AD90023237310BD00224068FFF71AFED0
:1007E8002046FFF7C1FFF4E700224FF4004102481A
:1007F80000F0B5FDEDE700BF000C0140012902D96A
:10080800022902D07047FFF7DBBFFFF7BBBF002309
:1008180024301A461946FFF757BE00F10F02152378
:1008280001212430FFF750BE10B50446064800F0F9
:10083800DDFF2246072342F8080F022104F12400B5
:10084800BDE81040FFF740BE2901002010B504465E
:1008580090B001A8FFF75EFF3C2301AA032104F131
:100868002400FFF731FE10B010BD09683830FFF7DB
:10087800C1BC07B5436C10210193042324300DEB50
:100888000302FFF721FE03B05DF804FB00F5805377
:100898001B7870B5012B04460D461DD0897AFFF7E9
:1008A800ADFF294604F1480000F068FAB4F8593061
:1008B80094F85B1001339BB2022904BF5B009BB222
:1008C80006335B0004F1500204F124009BB231218D
:1008D800BDE87040FFF7F8BD70BD10B5097800F1AC
:1008E800380480F823102046FFF752FC2046BDE864
:1008F80010400021FFF77EBC90F8223010B5012B84
:100908000C461AD90A784FF48051827302F001021A
:100918000A4800F024FD22784FF48061C2F34002B7
:10092800064800F01CFD22784FF40061BDE8104035
:10093800C2F38002014800F012BD10BD000C014056
:1009480090F82230012B09D90A784FF480410032FF
:1009580018BF01224273024800F001BD704700BF72
:10096800000C014013B500F1340403220221204693
:10097800FFF7B2FC0322ADF8040011462046FFF74A
:10098800ABFC00239DF8042062F307039DF80520C3
:1009980062F30F23C2B262F31743C0F3072060F378
:1009A8001F63184602B010BD70B501F13406044645
:1009B8000D46032200213046FFF78EFC03222080DB
:1009C80001213046FFF788FC60802846FFF7CAFF00
:1009D800C0F307236371C0F30743A3712B6B207126
:1009E800C0F30760E071A360204670BD1FB50446E0
:1009F800014601A8FFF7D8FF0C2301AA122104F130
:100A08002400FFF761FD04B010BD000038B50446AE
:100A1800404D1023404A29462430FFF7B7FD94F88B
:100A28002430002B74D16B88122B4BD014D8022B96
:100A380033D007D80BB1012B2AD02046BDE8384067
:100A4800FFF7E5BE102B2DD034D8032BF5D1204667
:100A5800BDE83840FFF7FABE152B41D00AD8132B52
:100A680037D0142BE9D1E37B002BE6D02046FFF7E3
:100A780089FEE2E7172B43D03AD3302BDDD1E37B55
:100A8800002B45D02046BDE838402349FFF7FEBE7D
:100A98002046BDE83840FFF7C0BE2046BDE83840D4
:100AA800FFF7C2BEE37B002B32D02046BDE83840BA
:100AB800FFF7DFBEE37B002BBFD017492046FFF7C7
:100AC800D4FEBAE7E37B1BB32046BDE83840FFF706
:100AD8008DBFE37B002BB0D02046FFF771FEACE75B
:100AE800E37B002BA9D00C492046FFF7F6FEA4E7CC
:100AF800E37B002BA1D008492046FFF7FDFE9CE7C9
:100B0800E37B002B99D004492046FFF719FF94E7AF
:100B180038BD00BF301200203612002038B500253D
:100B28000446C0E90012C5732430FFF7ABFC4FF44C
:100B38007A73C4E90B35064B6564A36304F1340288
:100B480004F1380104F1480000F0B2F8204638BD3D
:100B5800403B00084FF47A72264B30B51B6891B0C1
:100B6800B3FBF2F3013BB3F1807F044609D2F021D5
:100B7800214A5360214B83F82310002393600723F5
:100B88001360002501A8A560A581A573FFF7C2FD24
:100B98001B4B01991A6891420AD11A4A089912689E
:100BA800914205D1184A0F9D1268AA1A554255411B
:100BB8001B6804F12C002361124BE5731B68636109
:100BC800114B1B68A361114BE36145F683532384E2
:100BD80063681B7884F82230012384F82330FFF7F8
:100BE80023FD04F13400FFF721FB2046FFF7E8FD61
:100BF80011B030BD1000002010E000E000ED00E072
:100C0800E8F7FF1FECF7FF1FF0F7FF1F03034A3554
:100C1800044608B5483000F005F901216068FFF77F
:100C2800E3FBA36A93F8BD2093F8BE309A42F4D050
:100C380060680021FFF7D8FB2046FFF7E7FEECE7E6
:100C480008B5094800F0FCF8084800F003F9084C1A
:100C58000848FFF7A1FB084801F01EFE2046FFF7F1
:100C680079FF2046FFF7D4FF29010020C43B000884
:100C78002C010020280100203011002038B5084D33
:100C8800084C284600F096FD2946204601F0E0FD74
:100C98002146BDE83840044A0448FFF73FBF00BF7B
:100CA8002901002030110020280100202C010020FB
:100CB800C0E90012002280F8B82F704700231A46B6
:100CC80010B514309CB2A14203D920F8022B01338D
:100CD800F8E710BD002310B514309CB2A14206D924
:100CE80004880133B4FBF2F420F8024BF5E710BD99
:100CF8002DE9F8430546894617460024D0F80980AF
:100D08004C4539D22868414603681B689847052036
:100D180000F08CF8E97C012914D04BB22BB10229E0
:100D280012D0D5F80D309844EAE73A461946686873
:100D3800FFF7D2FA621C05EB4404A38A1844A08288
:100D480094B2EEE73A46F2E73A466868FFF7C4FA23
:100D580005EB4402631C9EB2938A032118449082D7
:100D680068683A46FFF7B8FA05EB46039A8A0234F0
:100D78001044A4B29882D4E7BDE8F8832DE9F8437B
:100D88000B8904469DB26A1EB2F57A7F43D24A683F
:100D9800002A40D0012084F8B80F0868A4F8113060
:100DA800C4F809008B7A2068022BE37405F1010569
:100DB8000368ADB208BF6D00C4F80D205B6808BFBA
:100DC800ADB2CE7A9847370906F00F06013632469B
:100DD800290981462046FFF78BFF29462046FFF761
:100DE8006DFF4FF00008013732462946204608F1CA
:100DF8000108FFF77DFF4745F6DC3A4629462046BD
:100E0800FFF768FF2068494603681B689847002376
:100E180084F8B83F04E000236374A37402232372A8
:100E2800BDE8F883002380F8B83F704782B0C0005F
:100E38000190019B5A1E0192002BFAD102B0704713
:100E48000122024B1860024B1A70704748120020AA
:100E58004C1200200FB41D4B13B51B7883B31C4BE9
:100E68001C4C186800F0C2FC1B4A0346642120464B
:100E780002F0E0F9204602F011FA05ABC0F1630177
:100E8800049A2044019302F03DFA204602F006FA43
:100E98000A2323540023204443704FF0604314F87E
:100EA800012B6AB1D3F8801EC807F8D5D3F8001E05
:100EB800C907F4D5196809B900BFFBE71A70EEE74E
:100EC80002B0BDE8104004B0704700BF4C120020CB
:100ED800481200204D120020CC3B0008374B82B04E
:100EE8001A6842F001021A605968354A0A405A6085
:100EF8001A6822F0847222F480321A601A6822F486
:100F080080221A605A6822F4FE025A604FF41F02C7
:100F18009A600022009201921A6842F480321A60A4
:100F28001A6802F400320192009A01320092019A82
:100F38001AB9009AB2F5A06FF2D11A6812F4003209
:100F480018BF01220192019A012A30D11D4A116865
:100F580041F010011160116821F00301116011685E
:100F680041F0020111605A685A605A685A605A681A
:100F780042F480625A605A6822F47C125A605A68B5
:100F880042F4E8125A601A6842F080721A601A68CD
:100F98009201FCD55A6822F003025A605A6842F05E
:100FA80002025A605A6802F00C02082AFAD14FF07D
:100FB8000062054B9A6002B0704700BF0010024003
:100FC8000000FFF80020024000ED00E0114B12493C
:100FD8005A6802F00C02042A01D0082A0AD00F4AE3
:100FE8000A605B680E4AC3F30313D25C0B68D340F4
:100FF8000B6070475A685868C2F38342C00302F115
:10100800020202D407484243EAE758688003F9D449
:101018000248F8E7001002401000002000127A0091
:101028000000002000093D00FEE700000B4A08B55B
:101038001168034609B90A4911601068033323F09F
:101048000303084903448B4206D902F0E5F80C2350
:1010580003604FF0FF3008BD1360FCE7B4120020B6
:1010680050130020004C002070B5FFF737FF194AD5
:10107800194B1A499A601A4B1A4A8B4218D3002105
:10108800194B1A4A934218D3FFF7A0FF0026184DB0
:10109800184C641BA410B44212DC0026164D174CE1
:1010A800641BA410B44210DCBDE87040FFF7C8BD53
:1010B80052F8040B43F8040BDFE743F8041BE1E79D
:1010C80055F8043B98470136E5E755F8043B98473F
:1010D8000136E7E70000000800ED00E028010020E5
:1010E80000000020FC3E00082801002050130020CA
:1010F80034010008340100083401000838010008F0
:1011080040F0BF60024B40F40030D860704700BF29
:1011180000ED00E070B50125017801F01F039D4046
:10112800C3784C09C3B10F4BDA684378D243C2F392
:101138000222C2F1040603FA06F683780F2020FA89
:1011480002F213403343084A1B01DBB2114481F811
:10115800003342F8245070BD034B203443F8245028
:10116800F9E700BF00ED00E000E100E043680A791C
:1011780023F4702323F4807343EA02230A6810B52A
:10118800134343608468D1E902231343084A224089
:1011980013434A7943EA420383600A7CC36A013AEB
:1011A80023F47003D2B243EA0253C36210BD00BFF6
:1011B800FDF7F1FF836819B143F0010383607047BD
:1011C80023F00103FAE7836843F00803836070475C
:1011D8008068C0F3C0007047836843F004038360ED
:1011E80070478068C0F380007047836819B143F482
:1011F800A0038360704723F4A003FAE7092970B5B8
:101208001BD90726A1F10A04C56804EB4404A640CB
:1012180025EA060503FA04F42C43C460062A18D804
:101228001F24013A436B02EB8202944023EA040331
:1012380001FA02F21A43426370BD0724056901EB03
:101248004106B44025EA040503FA06F42C43046178
:10125800E4E70C2A0CD81F24073A036B02EB82023E
:10126800944023EA040301FA02F21A430263E3E713
:101278001F240D3AC36A02EB8202944023EA040356
:1012880091401943C162D7E7C06C80B270470368C8
:10129800194214BF0120002070470000014B58611B
:1012A800704700BF00040140CB782DE9F041DA0611
:1012B80048BF8A780E8803F00F0548BF154316F01B
:1012C800FF0F1AD000214FF0010C4FF00F0E0268EB
:1012D8000CFA01F737EA06040BD18C000EFA04F871
:1012E80022EA080205FA04F4282B42EA040224D16F
:1012F800476101310829EBD10260FF2E1BD9082470
:101308004FF0010C4FF00F0E41680CFA04F737EA62
:1013180006020CD1A200203A0EFA02F821EA0801CE
:1013280005FA02F2282B41EA02010AD14761013489
:10133800102CEAD14160BDE8F081482B08BF076155
:10134800D7E7482B08BF0761F1E78368194214BF44
:1013580001200020704701617047416170470AB160
:101368000161704741617047014B1860704700BFC9
:10137800D8004242034A536823F44043184350605C
:10138800704700BF00100240054B19B1996901432D
:10139800996170479A6922EA00029A61704700BF12
:1013A80000100240054B19B1D9690143D961704752
:1013B800DA6922EA0002DA61704700BF00100240D1
:1013C800054B19B1D9680143D9607047DA6822EA38
:1013D8000002DA60704700BF00100240054B19B1E7
:1013E80019690143196170471A6922EA00021A61F2
:1013F800704700BF0010024030B5048C42EA031366
:1014080024F001042404240C0484048B058C24F0A7
:10141800F3042404240C1C43124BADB29842A4B22A
:1014280012D003F5006398420ED0B0F1804F0BD074
:10143800A3F59833984207D003F58063984203D008
:1014480003F58063984207D125F002050D4345F066
:1014580001010483018430BD25F00A05294341F0C8
:101468000101F6E7002C014070B5058C120225F049
:1014780010052D042D0C0584058B42EA033325F451
:1014880040752D052D0D1D43134B048C0E019842FC
:10149800A4B2B6B2ADB212D003F5006398420ED032
:1014A800B0F1804F0BD0A3F59833984207D003F5DD
:1014B8008063984203D003F58063984207D124F0F3
:1014C8002004344344F010040583048470BD24F0E0
:1014D800A0040C43F6E700BF002C014008B5614B9F
:1014E80098420BD101214FF40060FFF769FF0021FA
:1014F8004FF40060BDE80840FFF762BFB0F1804FCD
:1015080009D101210846FFF769FF00210120BDE844
:101518000840FFF763BF544B984206D101210220CF
:10152800FFF75CFF00210220F1E7504B984206D1FB
:1015380001210420FFF752FF00210420E7E74C4B6C
:10154800984206D101210820FFF748FF0021082012
:10155800DDE7484B984206D101211020FFF73EFFF6
:1015680000211020D3E7444B984206D101212020C6
:10157800FFF734FF00212020C9E7404B984208D1EB
:1015880001214FF40050FFF71BFF00214FF40050DA
:10159800B0E73B4B984208D101214FF40020FFF7F8
:1015A8000FFF00214FF40020A4E7364B984208D1E2
:1015B80001214FF48010FFF703FF00214FF4801042
:1015C80098E7314B984208D101214FF40010FFF7FA
:1015D800F7FE00214FF400108CE72C4B984206D1FF
:1015E80001214020FFF7FAFE002140208FE7284B19
:1015F800984206D101218020FFF7F0FE00218020CB
:1016080085E7244B984208D101214FF48070FFF7F9
:10161800E5FE00214FF4807079E71F4B984208D10E
:1016280001214FF48030FFF7CBFE00214FF48030CA
:1016380060E71A4B984208D101214FF40030FFF7B8
:10164800BFFE00214FF4003054E7154B984208D1F3
:1016580001214FF48020FFF7B3FE00214FF48020D2
:1016680048E708BD002C0140000400400008004085
:10167800000C0040001000400014004000340140FD
:10168800004C014000500140005401400018004047
:10169800001C004000200040004001400044014080
:1016A80000480140224A038890429BB212D002F5BA
:1016B800006290420ED0B0F1804F0BD0A2F5983264
:1016C800904207D002F58062904203D002F5806212
:1016D800904203D14A8823F070031343154A90427D
:1016E80008D002F5806290421FBF23F44073CA8875
:1016F8009BB2134303808B8883850B8803850C4B2F
:1017080098420FD003F5006398420BD003F540636D
:10171800984207D003F58063984203D003F58063AD
:10172800984201D10B7A038601238382704700BF58
:10173800002C014000100040038819B143F0010358
:101748000380704723F001031B041B0CF8E703898F
:1017580023F070031B041B0C19430181038943F018
:1017680007030381704738B50D46602D11460446BE
:101778004FF001020DD1FFF777FE218921F07001AA
:101788000904090C29432181238943F00703238194
:1017980038BDFFF731FEF0E7838823F070031B04A0
:1017A8001B0C83808388194381807047818470472C
:1017B800808C70474FF47A72094B1B68B3FBF2F3C5
:1017C800013BB3F1807F09D2F021064A5360064BF2
:1017D80083F823100023936007231360704700BF2A
:1017E8001000002010E000E000ED00E0014B186858
:1017F800704700BFB8120020034B1868884294BF96
:1018080000200120704700BFB8120020024A136868
:1018180001331360704700BFB81200207047000002
:101828004FF6FF52034B1A60034A13780133DBB2B9
:1018380013707047445C0040C41200204FF6FF321A
:10184800024B1A60024B5B68184700BF445C0040BB
:10185800400000204DF6FF72014B1A60704700BF30
:10186800445C00404EF6FF72024B00201A6001F003
:10187800FFBA00BF445C00404FF6FF63F0B4284C49
:1018880088B02360274B28481B6813F4004F40D0CA
:101898000368013303600368032B3CD923490A68B2
:1018A80012F0080237D10D68214BADB21D60154604
:1018B800AE0006F1804707F5B8473F680DF1200CE8
:1018C8000135BFB26644082D46F8207CF0D11D686A
:1018D80045F001051D601D68ADB20D601D6825F05D
:1018E80001051D601B689BB20B6023685B05FCD576
:1018F8004FF6FF332360930008A9194451F8201CC0
:1019080003F18043013203F5B84389B2082A19600C
:10191800F1D100230360072008B0F0BC01F0A8BA99
:10192800445C0040485C0040C8120020405C004015
:10193800CC12002008B5074B1B7833B101F04AFAE6
:101948004FF2FF72044B1A6008BD022001F090FAB2
:10195800F6E700BFC0000020445C004000232DE9EA
:10196800F3478246DFF88891DFF88881ADF80630C2
:10197800D9F800305A4A99B2118019044CD5138805
:1019880003F00F0388F80030002B65D14BF6BF76C3
:10199800544C554D2368554F9BB22B802B8803F030
:1019A80030033B802B8803F440532B80236833405B
:1019B80083F4005383F0200343F4004343F080038F
:1019C8002360138813F0100F236828D123F4E14310
:1019D80023F070031B041B0C236000F053FD2368E5
:1019E8002A883340D0042A8848BF83F4805391045E
:1019F8003A8848BF83F40053D2063A8848BF83F038
:101A08001003960648BF83F0200343F4004343F0D5
:101A18008003344A9BB2136002B0BDE8F0879BB2E2
:101A2800ADF80630BDF806301A0508D5236823F04E
:101A380070031B051B0D236000F02CFBCFE7BDF8DE
:101A480006301B0494D5236823F070031B051B0D77
:101A5800236000F083FCC2E703F1805202F5B8521C
:101A68009200116889B2ADF80610BDF806100D0491
:101A780012D511680AEBC30321F070010905090D9D
:101A88001160996B5B6B4A10CC070AEB020044BFEC
:101A98005AF80220D3589847BDF8063018067FF543
:101AA80067AF98F8002002F1805303F5B8539B0004
:101AB800196821F4E14121F070010904090C196049
:101AC8005AF832100AEBC2034A10C9070AEB02009F
:101AD80053F8043C44BF5AF80220D358984747E7C4
:101AE800D0120020005C0040BC120020BE12002072
:101AF800445C0040F81200204FF48020FFF7CEBB72
:101B0800334A10B50260334A0021106001220346AF
:101B1800C0E90112304A00F10C0492E8030084E89D
:101B2800030003F1140402F1080103C984E8030067
:101B380003F11C0402F1100103C984E8030003F156
:101B4800240402F1180103C984E8030003F12C04FA
:101B580002F1200103C984E8030003F1340402F10F
:101B6800280103C984E8030003F13C0402F13001B1
:101B780003C984E8030003F1440402F1380103C9EE
:101B880084E8030003F14C0402F1400103C984E82E
:101B9800030003F1540402F1480103C984E8030077
:101BA80003F15C0402F1500103C984E8030003F166
:101BB800640402F1580103C9603284E8030092E822
:101BC800030003F16C0484E80300184610BD00BF4D
:101BD800443C0008C0120020D43B0008244B70B5D8
:101BE8001B68244D9BB2244E2B802B8832880446D8
:101BF8001340990502D503689B6B984732882B8858
:101C080013401A0403D523682046DB6B98472B88BA
:101C1800328813405B0503D5236820461B6C984720
:101C28002B8832881340980403D5236820465B6CC0
:101C380098472B8832881340D90403D52368204657
:101C48009B6C984732882B8813401A0503D5236864
:101C58002046DB6C98472B8832881340DB0505D576
:101C680023682046BDE870401B6D184770BD00BF53
:101C7800445C0040D012002008130020014B186873
:101C8800FFF7ACBFC012002008B50020FFF76CFBBF
:101C9800BDE8084001214FF40000FFF783BB0000B6
:101CA80007B54FF4A060FFF72BFA074B01A8019383
:101CB800FFF730FA2A2301A8ADF80430FFF72AFA13
:101CC80003B05DF804FB00BF1400000110B5064C1A
:101CD80018B9012223681A8210BD044B1B681B68BF
:101CE800984720680A30F7E7FC1200200413002008
:101CF80010B5064C18B9012223681A8210BD044B8E
:101D08001B689B68984720680C30F7E7FC12002096
:101D1800041300201E4B10B51C68002310B90223C1
:101D2800238210BD1B4803802178024611F07F01F1
:101D380012D1617A8C0644BF0223037003784806E7
:101D48004CBF43F0010323F001031370124B1B68CF
:101D58001B6998470F48E4E70129E2D0022915D109
:101D6800617901F00F0303F1805303F5B8539B0029
:101D780009061B6805D503F03003102BE6D10123B3
:101D8800E3E703F44053B3F5805FF7E71846C8E785
:101D9800FC120020D8120020041300202DE9F8437B
:101DA800224FDFF89C803D682C8ACCB92E7A042E0D
:101DB80016D11F490B7873B11E4B1A681E4B92B28D
:101DC80013445B001C6030230C70A8F800303B689B
:101DD8001E72BDE8F88310230726A8F80030F6E73E
:101DE800AB8A9C4294BF042602269C4228BF1C460C
:101DF800AB69204698478146002000F07DFC2246CA
:101E08000146484600F088FB2146002000F090FC7F
:101E18002B8A4FF440521B1B2B826B8A1C443023A5
:101E2800A8F80030054B6C821A80D0E7FC1200201D
:101E3800D2120020505C004002300020BC1200206A
:101E4800BE12002010B50A4B0A491B684978DA7897
:101E580091420AD3997841B99C8834B99A72064B51
:101E68001B685B689847204610BD0220FCE700BF4E
:101E7800FC120020700000200413002038B50E4A20
:101E88000E4D12682B689269D978587990472B685B
:101E98009A7A7AB170B91A7962B99C7854B9084BB0
:101EA8001B68DB68984720462B685A79DA72DA781B
:101EB8001A7338BD0220FCE700130020FC12002032
:101EC8000413002038B52D4B1B68187810F07F00DC
:101ED80004D15A7A22F020025A7238BD02284BD116
:101EE8005A88002AF9D11A79002AF6D15979244D4D
:101EF80021F0800000F1805404F5B854A400226851
:101F080049B22D780029B4BF02F0300202F44052E1
:101F1800854231D982B39B7A73B30029236811DAD9
:101F280003F03003102B07D1C4B2204600F0B1FBF8
:101F38003021204600F030FB124B1B685B69984744
:101F48000020CAE703F44053B3F5805FF4D10E4D87
:101F580078B90E4B93F82C1000F0F8FB23682B404F
:101F68009BB283F4405343F4004343F0800323605F
:101F7800E2E700F07BFBF1E70220AEE7FC1200206D
:101F880070000020041300208FBFFFFF40000020D6
:101F980038B51D4B1D4D18682D78417921F0800406
:101FA80004F1805202F5B8529200136849B2002930
:101FB800B4BF03F0300303F44053A54221D9448849
:101FC800FCB9F3B1837AE3B113680029B5BF23F4F0
:101FD800E04323F4804323F0400323F07003B5BFAC
:101FE8009BB29BB283F0100383F4805343F4004305
:101FF80043F080031360064B1B689B6998470020D9
:1020080038BD0220FCE700BFFC1200207000002051
:102018000413002008B5064B1A68537A43F02003CE
:102028005372044B1B68DB699847002008BD00BF4A
:10203800FC12002004130020054B10B51C68628AAE
:1020480018B98B889B1A238210BD08681044FBE7D7
:10205800FC12002008B50B4B002093F82C1000F060
:1020680075FB094B1B68187A082806D14FF4805273
:10207800064B1A801022064B1A80A0F10903584219
:10208800584108BD40000020FC120020BC1200206E
:10209800BE120020F7B5984C984E276832683B7AF4
:1020A800092B19D0964B92B213445B001D886D0022
:1020B80005F1804505F5C0452B783B706B787B7042
:1020C800A88800F073FB78802889276800F06EFBE9
:1020D800B880AA892368DA80012223681A72DA880C
:1020E8005D78002A63D11A7812F07F024CD1092D4D
:1020F80003D1FFF7A7FE40BB16E0052D20D193F9C9
:102108000320002A07DA08232268137203B0BDE807
:10211800F040FFF79FBF9A78002AF4D19A88002AE6
:10212800F1D19B7A002BEED13268764B92B21344F0
:1021380000225B001A603022734B1A800623E3E703
:10214800032D11D1DA78012A08D0704B28461B6874
:102158005B699847032827D10923D5E79B88002B7B
:10216800F3D1FFF757FFC6E7012DEED1DA78012A40
:10217800EBD19A88002AE8D15B7A9F06E5D5644BB3
:102188001A60FFF79FFEB6E7012A04D10B2DDCD1B8
:10219800FFF774FEAFE7022AD7D1012DF1D0032D46
:1021A800D3D1FFF7F5FEA6E70028BDD0ABE7062D93
:1021B80013D11A7855065CD19B78544A012B1268C2
:1021C80003D1D369002B54D01AE0022B01D1136A32
:1021D800F8E7032B4DD1536AF4E7002D55D1598800
:1021E800002946D15A6822F47F42B2F5003F40D117
:1021F8001A7812F07F0216D19B88002B39D1454BF3
:1022080000252268284655829361984728464FF64C
:10221800FF7123681A8A8A4234D0022801D0002A22
:1022280056D108222FE0012A0AD1384A5879126873
:1022380092699047E8B923689B7A002BDFD118E0B0
:10224800022A16D15A7902F00F0101F180531006C3
:1022580003F5B85330484FEA83031B6800784CBF36
:1022680003F0300303F44053884202D912F0700F90
:10227800E3D0264B22681B6850781B6998470328CF
:10228800C5D1236809221A7240E7082D04D11B78AA
:102298005B06EED1214BB3E70A2DEAD11A7802F09A
:1022A8007F02012AE5D19A7A002AE2D059880029CA
:1022B800DFD15A6822F47F42B2F5803FD9D1134A60
:1022C80058791268926990470028D2D1144B97E741
:1022D80093F90010002936DAD9880C480191006872
:1022E800019D90F82C00AA4284B21BD9019A1A8247
:1022F8009C82FFF753FD09E7FC120020505C004068
:102308000430002002300020BE12002000130020FC
:10231800D41200201D1D000870000020D51C0008E4
:10232800F91C00088A42E3D2A24203D20021094ADA
:102338001170DDE7B2FBF0F100FB1122002AD7D1C2
:10234800044A0121F4E703221A724FF44052024B67
:102358001A80DBE6D2120020BC120020F8B5334DFB
:102368002C68237A022B5ED0042B5CD0032B01D07F
:10237800052B52D1A369B3B1268A0EB3A28A96421D
:1023880028BF164630469847238A07469B1B238258
:10239800638A00203344638200F0BCF93246014668
:1023A800384600F0CAF8238A53B100214FF440524E
:1023B8001F4B08461A8000F0BBF930221D4B1A80CB
:1023C800268AA28A2B68B24209D803221A722B687D
:1023D8001B7A2A681372BDE8F840FFF73BBE0EB1BE
:1023E8000522F3E706221A72134B1B689B6898476D
:1023F8002B6810491B7A082B06D14FF480520C4BDE
:102408001A8010230B80E2E70C4B1A680C4B92B22F
:1024180013445B001E603023F4E7072B03D1064BFF
:102428001B68DB6898470823D3E700BFFC1200202D
:10243800BC120020BE12002000130020505C004097
:102448000230002070B5002140F60F7548F2800474
:102458000A4B1E78B1420BD28A0002F1804202F583
:10246800B84213682B400B43234313600131F1E753
:10247800034B40F08000186070BD00BF7000002062
:102488004C5C004010B5134C23681A7A022A01D01C
:10249800042A09D1FFF782FC23681B7A2268137289
:1024A800BDE81040FFF7D6BD062A10D15A78052A94
:1024B80009D11A78520606D1D878FFF7C3FF064B20
:1024C8001B681B6A9847054B1B689B68984708233D
:1024D800E4E700BFFC1200200413002000130020D2
:1024E80070470000064B074A0749136002221A7218
:1024F800064B074A1360074A1B681160184700BF5C
:10250800DC120020FC120020940000204000002073
:10251800001300200413002001F1005101F540517F
:1025280001324900520801EB82028A4204D030F895
:10253800023B21F8043BF8E77047002310B501F18E
:102548000051013201F54051521049009A4205D01C
:1025580051F8234020F813400133F7E710BD00007D
:10256800014B1860704700BF445C00404FF6F87399
:10257800014A034013607047505C004000F18050EE
:1025880000F5B8508000036823F4EC4323F070038F
:10259800194389B20160704700F1805000F5B850C6
:1025A80080000368CA0623F4E04323F040039BB28B
:1025B80048BF83F010038A0648BF83F0200343F422
:1025C800004343F080030360704700F1805000F53A
:1025D800B85080000368CA0423F4804323F07003D2
:1025E8009BB248BF83F480538A0448BF83F40053E6
:1025F80043F4004343F080030360704700F18050C8
:1026080000F5B8508000036823F4E04323F040034A
:102618009BB283F0300343F4004343F0800303602C
:10262800704700F1805000F5B8508000036823F42B
:10263800804323F070039BB283F4405343F4004378
:1026480043F080030360704700F1805000F5B850F4
:102658008000036823F4F8731B051B0D43F4004343
:1026680043F0800303607047FFF7EEBF00F180502E
:1026780000F5B850800003685B0409D5036823F0AF
:10268800F0031B051B0D43F4404343F08003036034
:10269800704700F1805000F5B850800003685B0671
:1026A80009D5036823F0F0031B051B0D43F4004311
:1026B80043F0C00303607047064B21F001011B681B
:1026C8009BB203EBC00000F1005000F54050400001
:1026D80001607047505C0040054B21F001011B6808
:1026E8009BB203EBC000034B03445B0019607047C7
:1026F800505C004004300020054B1B689BB203EB84
:10270800C00000F1005000F54050400000887047BC
:10271800505C0040044B1B689BB203EBC000034BAA
:1027280003445B0018887047505C00400430002068
:10273800044B1B689BB203EBC000034B03445B00D4
:1027480019607047505C0040023000200D4B0E4A63
:102758001B683E299BB203EBC00002444FEA4202C9
:102768000AD94B09C80604BF03F1FF339BB29B0289
:1027780043F40043136070474B08C90748BF01334F
:102788009B02F7E7505C004006300020054B1B68B1
:102798009BB203EBC000044B03445B001868C0F312
:1027A80009007047505C004006300020C3B2000AA0
:1027B80040EA0320704700000020044B044A1860D8
:1027C8004FF43F431380034A13607047445C004052
:1027D80008130020405C004010B590F8FD1090F8F8
:1027E800FE300446C91AC9B20548FEF733FB002378
:1027F80084F8FD3084F8FE3084F87C3010BD00BFCA
:10280800573D000838B590F8BE2090F8BD30044612
:102818009A421AD30320FFF7B9FF05460320FFF7B2
:1028280079FF2A460146EDB204F17D00FFF785FEE7
:1028380084F8BD5094F8BD1094F8BE300348C91A06
:10284800C9B2BDE83840FEF705BB38BD9B3D00085E
:1028580038B504460D46FFF753F9656700250D4B5B
:1028680029462360A56784F87C50402204F17D0046
:1028780000F0D8FC84F8BD503E2284F8BE502946AA
:1028880004F1BF0000F0CEFC84F8FD50204684F827
:10289800FE5038BDBC3D000810B50446FFF7F4F9FA
:1028A8002046FFF7FDF9FFF71DFE3E2240210A48AA
:1028B800FEF7D0FA94F8FD1094F8FE30074A94F821
:1028C800FD00C91A064BC9B23D2898BF1A46BDE893
:1028D80010400448FEF7BEBAD13C0008CA3C0008C4
:1028E800C93C0008FF3C000838B50023044680F8BE
:1028F800BD3080F8BE300320FFF793FE1048FEF786
:10290800A9FA606FFEF772FF00F5FA7594F8BE2019
:1029180094F8BD309A4207D32946606FFEF76CFFE2
:102928000028F3D00123A36794F8BD1094F8BE30B3
:10293800A26FC91AC9B20348BDE83840FEF78ABA7F
:10294800983C0008AF3C000838B5002590F8BE2038
:1029580090F8BD3004469A4285671BD294F8BE3081
:10296800DBB25A1CD2B284F8BE20234494F8BE20AD
:1029780093F87D5094F8BD309A4214D30B48FEF773
:1029880069FA0023032084F8BD3084F8BE30FFF7CD
:1029980048FE08E00648FEF75DFA2046FFF7A4FF68
:1029A800A36F002BDAD0284638BD00BF373D00089A
:1029B8001D3D000870B50C4690F8FD1090F8FE30EB
:1029C8001646C91A0546C9B20748FEF743FA26440F
:1029D800B44207D0AB6F2BB92846FFF7B5FF04F810
:1029E800010BF5E770BD00BF133D000838B590F83E
:1029F8007C30044603F0FF0223B1BDE83840234889
:102A0800FEF728BA90F8FD1090F8FE3099423BD0B6
:102A1800012580F87C50826790F8FD2090F8FE3000
:102A2800C021D21AD2B2BF30FFF776FD94F8FD105C
:102A380094F8FE302846C91AC9B2FFF779FE28462D
:102A4800FFF7DCFD606FFEF7D1FE00F5FA7594F82C
:102A58007C3073B12946606FFEF7CEFE0028F6D0B1
:102A68000123A367002384F8FD3084F8FE3084F83E
:102A78007C3094F8FD1094F8FE300548C91AC9B2A4
:102A8800BDE83840FEF7E6B938BD00BF683D00082C
:102A9800833D000838B590F8FD3004463D2B0D46BF
:102AA8000CD9FFF7A3FF94F8FD30DBB25A1CD2B261
:102AB80084F8FD201C4484F8BF5038BD90F8FD30E0
:102AC800DBB25A1CD2B2034480F8FD2083F8BF1051
:102AD80090F8FD303D2BF0D9BDE83840FFF786BFB0
:102AE80070B50D4690F8FD1090F8FE301646C91ADC
:102AF8000446C9B20748FEF7ADF92E44B54207D0DF
:102B0800A36F2BB915F8011B2046FFF7C3FFF5E7A4
:102B180070BD00BF903D00080023F0B51F464E1C55
:102B2800050FECB2092D94BF3034373401F8134047
:102B380006F813700133DCB2A2424FEA0010EFD856
:102B4800F0BD00000A4B10B5186808331B68C018A0
:102B58000CD0084B08221C680749FFF7DDFF204608
:102B6800BDE8104004220549FFF7D6BF10BD00BFDD
:102B7800E8F7FF1FECF7FF1F1600002026000020D3
:102B8800034B9B7A13B10522024B1A60704700BFB2
:102B9800DC120020301300200422014B1A60704719
:102BA80030130020034B1A78202A04BF00221A7021
:102BB800704700BF0A13002070470000212810B595
:102BC80008D1104B1B681B7803F07F03212B16D00C
:102BD800022013E02028FBD10A4B1B681B7803F066
:102BE8007F03212B084B1870F2D1084B0024054AAB
:102BF80020461268936154829847204610BD044BC2
:102C0800F4E700BFFC1200200A130020452C00083E
:102C18002D2C000821B901288CBF02200020704704
:102C28000220704720B90822024B1B681A8270479D
:102C380001487047FC120020B8000020FFF7F2BFDF
:102C480010B50024FFF77EFF044B1B689C7200F050
:102C5800A7F8FFF7B1FD024B1C6010BDFC12002065
:102C68003013002010B50024324B334A1B68D27948
:102C78005C815A722046FFF779FC4FF400712046B8
:102C8800FFF77CFC10212046FFF786FC40212046F8
:102C9800FFF722FD80212046FFF70EFD2046FFF7B3
:102CA800E3FC264B204693F82C10FFF74FFD2046F7
:102CB800FFF7B7FC21460120FFF760FCC021012087
:102CC800FFF7FAFC20210120FFF766FC21460120CE
:102CD800FFF77BFC4FF4C0610220FFF74FFC4FF475
:102CE80080710220FFF7E8FC21460220FFF76DFC07
:102CF80020210220FFF750FC21460320FFF73EFC6D
:102D08004FF488710320FFF7E7FC40210320FFF709
:102D18001DFD4FF440510320FFF757FC21460320C7
:102D2800FFF73AFC2046FFF78DFB0122044B1A609F
:102D380010BD00BFFC120020103E0008400000201B
:102D4800301300200149FFF777B900BF3800002091
:102D58000149FFF771B900BF30000020054B1B681F
:102D6800DB78032B04D8044901EBC301FFF764B9EE
:102D780000207047FC12002074000020074B1B68DD
:102D88001B7803F07F03212B06D100F0DF00022817
:102D980014BF02200020704702207047FC12002058
:102DA800012370B50024084D084E2B60084B348071
:102DB80020462C601B68FFF7D3FB4FF4E0532046F6
:102DC80033802B6070BD00BF405C004008130020BA
:102DD800445C004030B51D4C002125461C4A136850
:102DE8009BB2880000F1804000F5B840006880B2CE
:102DF80044F8210001310829F3D143F4806123F01C
:102E0800010311609BB241F00101116043F480613C
:102E18001160104908684005FCD54FF6FF3008607E
:102E2800002155F82140880000F18040013100F56B
:102E3800B840A4B208290460F3D143F48163136055
:102E480013689BB243F00403136030BD0C130020D9
:102E5800405C0040445C00404FF6FB72034B19682D
:102E68000A401A604FF43F421A607047405C0040C5
:102E780010B5254C072818BF20702378052B09D8D2
:102E8800DFE803F0030D1519222D204B1B681BB931
:102E9800FFF7E2FF062300E00523237006E0FFF7B3
:102EA800DBFF042301222370184B1A6010BD022394
:102EB80063700323F1E76378013BDBB263706378E7
:102EC800002BF3D10423E8E7114A13689BB243F0BF
:102ED80010031360052323700A236370E6E7637801
:102EE800013BDBB26370637803F0FF01002BDDD197
:102EF8004FF6EF73064A10680340136006232370E9
:102F0800024B1960D2E700BF2C13002034130020B5
:102F1800405C004053B94AB9002908BF00281CBFCB
:102F28004FF0FF314FF0FF3000F074B9ADF1080CED
:102F38006DE904CE00F006F8DDF804E0DDE90223CF
:102F480004B070472DE9F0478C460446089E002BD4
:102F580040F086808A42154648D9B2FA82F24AB1D0
:102F6800C2F1200701FA02F320FA07F7954047EA71
:102F7800030C94404FEA154EBCFBFEF71FFA85F888
:102F88000EFB17C307FB08F9210C41EA03439945D7
:102F980009D9EB1807F1FF3180F0E180994540F23B
:102FA800DE80023F2B44A3EB0903B3FBFEF00EFBCC
:102FB800103300FB08F1A4B244EA0344A14209D942
:102FC8002C1900F1FF3380F0C880A14240F2C5807F
:102FD80002382C4440EA07400027641A1EB1002337
:102FE800D440C6E900433946BDE8F087002A54D0EA
:102FF800B2FA82F2002A40F0B4800127491B4FEA56
:1030080015481FFA85F9B1FBF8FE08FB1E1109FBEC
:103018000EF04FEA144C4CEA0143984207D9EB18DA
:103028000EF1FF3102D2984200F2EB808E461B1A55
:10303800B3FBF8F008FB103309FB00F9A4B244EA2B
:103048000344A14507D92C1900F1FF3302D2A14549
:1030580000F2DB801846A4EB090440EA0E40BDE705
:103068008B4208D9002E75D00027C6E900013846E2
:103078003946BDE8F087B3FA83F77FB98B4202D3AC
:10308800824200F2BC80841A61EB030301209C4653
:10309800002EA8D0C6E9004CA5E7FFDEC7F1200541
:1030A800BB4022FA05FC4CEA030C21FA05F44FEA6E
:1030B8001C4EB4FBFEF91FFA8CF80EFB194420FADB
:1030C80005F3B94009FB08FA19430B0C43EA044419
:1030D800A24502FA07F200FA07F30BD91CEB040425
:1030E80009F1FF3080F08980A24540F28680A9F17D
:1030F80002096444A4EB0A04B4FBFEF00EFB10447E
:1031080000FB08FA89B241EA0444A24508D91CEB3D
:10311800040400F1FF316CD2A2456AD90238644434
:1031280040EA0940A0FB0289A4EB0A044C45414649
:10313800CE4655D352D0002E6AD05A1A64EB0E04EC
:1031480004FA05F522FA07F3FC401D43C6E90054CA
:10315800002748E73746304645E718463AE70F461E
:1031680021E79540C2F1200321FA03F04FEA154800
:10317800B0FBF8F71FFA85F908FB170E24FA03FCD1
:10318800914007FB09FA4CEA0101080C40EA0E409D
:10319800824504FA02F407D9281807F1FF332AD226
:1031A800824528D9023F2844A0EB0A00B0FBF8FC6E
:1031B80008FB1C000CFB09F389B241EA00418B4271
:1031C80008D969180CF1FF3011D28B420FD9ACF134
:1031D800020C2944C91A4CEA074714E74345AAD206
:1031E800B8EB020169EB0C0201389646A3E7844666
:1031F800F0E7084694E71F46D6E781467AE738465F
:1032080046E7AEF1020E2B4411E702382C4422E7C0
:103218003746E8E6704700BF014B1868704700BFA3
:10322800C400002003460244934200D1704703F8CB
:10323800011BF9E70CB430B5174B0C1E9DB01D6887
:1032480008DA8B234FF0FF302B601DB0BDE830400B
:1032580002B070474FF40273ADF814300CBF234628
:1032680004F1FF33049307934FF6FF73029006901F
:10327800ADF81630209A21AB02A92846019300F038
:10328800ABF8431CBCBF8B232B60002CDDD0002285
:10329800029B1A70D9E700BFC4000020034613F848
:1032A800012B002AFBD1181A0138704730B5141EBB
:1032B80005469BB0184605DA8B234FF0FF302B608C
:1032C8001BB030BD4FF40273ADF80C300CBF234671
:1032D80004F1FF33029305934FF6FF7300910491B5
:1032E800ADF80E3002461E9B6946284600F074F879
:1032F800431CBCBF8B232B60002CE1D00022009B19
:103308001A70DDE707B5009313460A4601460348DD
:103318000068FFF7CBFF03B05DF804FBC400002092
:103328002DE9F0478E6882469E420C4691469846A3
:1033380038D8B1F80CC01CF4906F31D06269256898
:10334800096902EB42026F1A02EBD272013355107F
:103358003B449D4238BF1D461CF4806F30D029463F
:1033680000F040FB064650B90C234FF0FF30CAF876
:103378000030A38943F04003A381BDE8F0873A46B3
:10338800216900F0BBFAA38923F4906343F080031A
:10339800A38126613E44266046466561ED1BA56013
:1033A800464500D9464632464946206800F0B4FAF8
:1033B800A36800209B1BA36023681E442660DCE7EB
:1033C8002A4600F069FB06460028E2D121695046EA
:1033D80000F0BCFAC8E700002DE9F04F1E468B89C3
:1033E8009DB01B0607460D4614460ED50B6963B9FA
:1033F800402100F0F7FA2860286120B90C233B60CF
:103408004FF0FF30C9E040236B610023099320236C
:103418008DF8293030234FF0010ADFF898918DF8A4
:103428002A30039623461E4613F8012B0AB1252A93
:10343800F9D1B6EB040B0BD05B4622462946384639
:10344800FFF76EFF013000F0A380099B5B440993EE
:103458003378002B00F09C8000234FF0FF32CDE939
:1034680005230136049307938DF853301A93344695
:10347800052214F8011B4F4800F032FA049BC0B92A
:10348800D90644BF20228DF853201A0744BF2B22A7
:103498008DF8532032782A2A13D0344600200A2681
:1034A800079A214611F8013B303B092B4BD970B9DB
:1034B80014E0A0EB09000AFA00F01843049026462D
:1034C800D5E7039A111D12680391002A01DB0792C0
:1034D80004E0524243F002030792049323782E2B10
:1034E8000CD163782A2B33D1039B02341A1D1B6835
:1034F8000392002BB8BF4FF0FF3305932E4E0322E3
:103508002178304600F0ECF938B14023801B03FAEB
:1035180000F0049B01340343049314F8011B0622B2
:1035280026488DF8281000F0DBF9002838D0244B05
:1035380013BB039B073323F0070308330393099B4B
:10354800434409936EE706FB023201200C46A8E7C4
:1035580000230A26194601340593204610F8012B4A
:10356800303A092A03D9002BC8D00591C6E706FBD3
:10357800012101230446F0E703AB00932A46114BCF
:1035880004A93846AFF30080B0F1FF3F8046D6D19A
:10359800AB895B063FF534AF09981DB0BDE8F08FE5
:1035A80003AB00932A46074B04A9384600F082F87B
:1035B800EAE700BFC13E0008C73E0008CB3E00084E
:1035C80000000000293300082DE9F04791461F4606
:1035D8008A680B6906469342B8BF1346C9F800309B
:1035E80091F843200C46DDF8208012B10133C9F868
:1035F80000302368990642BFD9F800300233C9F871
:103608000030256815F0060507D104F1190AE368AA
:10361800D9F800209B1AAB4229DC94F84330226881
:10362800003318BF012392062ED404F14302394611
:103638003046C047013021D02368E56803F006030F
:10364800042B18BF0025D9F800204FF0000908BF47
:10365800AD1AA368226908BF25EAE5759342C4BF7D
:103668009B1AED181A344D451AD1002008E00123A1
:10367800524639463046C047013003D14FF0FF303B
:10368800BDE8F0870135C2E73020E11881F8430032
:103698005A1C94F845102244023382F84310C4E7B8
:1036A8000123224639463046C0470130E6D009F1A9
:1036B8000109D8E72DE9F04306460C4601F143001D
:1036C800097E85B06E29984617460C9B00F0BB8092
:1036D80024D8632939D00AD8002900F0C480582991
:1036E80000F0928004F1420584F8421035E0642924
:1036F80001D06929F6D125681A6815F0800F02F102
:1037080004012CD012681960002A03DA2D235242D2
:1037180084F84330DFF8C0C10A233FE0732900F082
:10372800A68008D86F2921D07029DBD1226842F001
:103738002002226003E0752918D07829D2D1782296
:10374800DFF898C184F8452062E01A6804F1420560
:10375800111D1960136884F84230012394E012683F
:1037680015F0400F196018BF12B2CDE7D4F800C0A9
:103778001A681CF0800F02F104051D6001D0126860
:1037880003E01CF0400FFAD012886F290CBF082301
:103798000A23DFF844C1002184F843106568002D2E
:1037A800A8BF2168A560A4BF21F0040121600AB95F
:1037B800002D46D00546B2FBF3F103FB112E1CF891
:1037C8000EE0934205F801ED39D9082B0BD1236897
:1037D800DA0708D5236962689A42DEBF302305F804
:1037E800013C05F1FF35401B2061CDF800803B46C8
:1037F80003AA21463046FFF7E7FE013049D14FF0D2
:10380800FF3005B0BDE8F083DFF8CCC084F8451080
:103818001D68216855F8042B1D600D060BD5CD07D2
:1038280044BF41F0200121601AB9236823F0200326
:1038380023601023AFE74B0648BF92B2EFE70A4672
:10384800B9E70546C1E71A68D4F800C0151D6169D3
:103858001CF0800F1D60136801D0196003E01CF094
:10386800400FFAD01980002305462361BDE71A6886
:10387800111D1960156800216268284600F030F8AB
:1038880008B1401B606063682361002384F84330FB
:10389800ABE723692A4639463046C0470130AED0E7
:1038A80023689B0713D4E068039B9842B8BF184667
:1038B800A7E701234A4639463046C04701309ED023
:1038C8000135E368039A9B1AAB42F2DCEBE700256B
:1038D80004F11909F5E700BFD23E0008E33E0008ED
:1038E80010B5C9B202449042034601D1002303E057
:1038F8001C7801308C42F6D1184610BD0A4491421A
:1039080000F1FF3300D1704710B511F8014B914217
:1039180003F8014FF9D110BD884210B501EB02033D
:1039280002D983421C4607D8421E994208D011F892
:10393800014B02F8014FF8E783189A1A9A4200D10E
:1039480010BD14F8011D03F8011DF7E738B5054649
:10395800002943D051F8043C0C1F002BB8BFE418D1
:1039680000F0D0F81E4A1368104633B9636014603B
:103978002846BDE8384000F0CBB8A3420BD92168EF
:103988006218934201BF1A685B685218226063602C
:103998000460EDE713465A680AB1A242FAD91968D9
:1039A8005818A0420BD12068014458188242196067
:1039B800DED110685268014419605A60D8E702D90C
:1039C8000C232B60D4E7206821188A4201BF1168B4
:1039D80052680918216062605C60C9E738BD00BFA1
:1039E80038130020F8B5CD1C25F0030508350C2D3B
:1039F80038BF0C25002D064601DBA94203D90C234C
:103A080033600020F8BD00F07DF821490A681446AB
:103A18009CB9204F3B6823B92146304600F062F834
:103A280038602946304600F05DF8431C23D10C234A
:103A38003046336000F06CF8E3E723685B1B17D46B
:103A48000B2B03D923601C44256004E06368A24261
:103A58000CBF0B605360304600F05AF804F10B00BD
:103A6800231D20F00700C21ACCD01B1AA350C9E7A7
:103A780022466468CCE7C41C24F00304A042E3D0C7
:103A8800211A304600F02EF80130DDD1CFE700BF13
:103A9800381300203C130020F8B5074614460E469C
:103AA80021B91146BDE8F840FFF79CBF22B9FFF7DE
:103AB8004DFF25462846F8BD00F030F8A0420FD249
:103AC80021463846FFF78EFF05460028F2D03146DA
:103AD8002246FFF713FF31463846FFF737FFE9E77D
:103AE8003546E7E738B50023054C05460846236008
:103AF800FDF79CFA431C02D1236803B12B6038BD43
:103B080040130020014800F011B800BF48130020FE
:103B1800014800F00CB800BF4813002051F8043CDD
:103B2800181F002BBCBF0B58C01870477047704750
:103B38000000000000000000FD0100083901000835
:103B480035F232673985566094BD3A60A0EFF2E7E6
:103B5800F58838A0FBA249FA6B026805175B124981
:103B680037A44CF4C10527D7892B3DD202D25C4B30
:103B7800EB8C5073D19804927D8D6E8DC7AFFFC1C9
:103B8800D47AAF95604BC29A1751245A4677C05ED3
:103B9800105CA5049488E18DD9BAC699FE47A301A3
:103BA800CD017AF8A26701EC2CA4293F98FE2103E5
:103BB800BEF669FE22C11262A174B9907374617273
:103BC80074656400253031306C75200004000000F5
:103BD8000100000008000000010000000C000000C7
:103BE80001000000100000000100000014000000A7
:103BF8000100000018000000010000001C00000087
:103C08000100000020000000010000002400000066
:103C18000100000028000000010000002C00000046
:103C28000100000030000000010000003400000026
:103C38000100000000000000000000002518000836
:103C48002518000825180008251800082518000858
:103C58002518000825180008251800082518000848
:103C68002518000825180008251800082518000838
:103C780025180008291800086519000845180008C3
:103C88005D1800086D1800083D1900088118000823
:103C980077616974696E6720666F72207061636B03
:103CA8006574202E2E2E0072656365697665642022
:103CB800256420422C207374617475733A2025643E
:103CC8000A002866756C6C29005553422056434FEC
:103CD8004D20696E697469616C697A65642028523F
:103CE80058206275663A2025642C20545820627545
:103CF800663A202564290054582062756620636F4F
:103D0800756E743A202564202573007265616420FD
:103D18002564204200727842756620656D7074795A
:103D28002C2072656164206D6F72652E2E2E0072D4
:103D38007842756620656D7074792C2073636865A8
:103D480064756C65206E65787420726561640065C1
:103D58007031696E3A2073656E74202564204200C4
:103D6800777269746520616C726561647920696E27
:103D78002070726F67726573732100666C75736863
:103D88006564202564204200777269746520256483
:103D98002042006570336F75743A207265636569F7
:103DA80076656420256420420000000000000000C1
:103DB80000000000E1270008251800082518000861
:103DC80025180008251800082518000825180008D7
:103DD80025180008251800080D28000825180008CF
:103DE80025180008251800082518000829180008B3
:103DF80065190008451800085D1800086D180008C6
:103E08003D1900088118000809024300020100C09A
:103E18003209040000010202010005240010010516
:103E2800240100010424020205240600010705827A
:103E3800030800FF09040100020A00000007050347
:103E48000240000007058102400000120100020242
:103E580002024083044057000201020301040309DF
:103E680004320372006100640069006F00330020AF
:103E780000620079002000530051003600440047DA
:103E880000540020002000200020002000200020F6
:103E98000020002603530054004D0069006300729F
:103EA800006F0065006C0065006300740072006FAD
:103EB800006E00690063007300232D302B2000681A
:103EC8006C4C0065666745464700303132333435FF
:103ED800363738394142434445460030313233346D
:0C3EE80035363738396162636465660066
:083EF40058F0FF7F01000000FF
:103EFC00000000000000000001020304060708098E
:103F0C0000A24A041A03530054004D00330032003F
:103F1C000000000000000000000000000000FFFF97
:103F2C00103E000843000000533E00081200000041
:103F3C00492C00086D2C0008AD2B0008C12B000883
:103F4C00C52B0008852D00081D2C00084D2D0008E0
:103F5C00592D0008652D00080000000040000000ED
:103F6C000401FFFF653E0008040000009B3E0008B2
:103F7C0026000000693E00083200000014000020FA
:103F8C001A000000E9240008892B0008E924000825
:103F9C00E9240008E9240008E9240008E9240008C1
:103FAC00E9240008A12B000800C201000000080051
:103FBC0001FFFFFFC800002000000000000000000F
:103FCC0000000000000000000000000000000000E5
:103FDC0000000000000000000000000000000000D5
:103FEC0000000000000000000000000000000000C5
:103FFC0000000000000000000000000000000000B5
:10400C0000000000000000000000000000000000A4
:08401C0000000000000000009C
:04000005080010716E
:00000001FF
