:020000040800F2
:1000000000500020F1210008A9200008A9200008C4
:10001000A9200008A9200008A9200008000000006D
:10002000000000000000000000000000A9200008FF
:10003000A920000800000000A9200008F90F00080E
:10004000A9200008A9200008A9200008A92000086C
:10005000A9200008A9200008A9200008A92000085C
:10006000A9200008A9200008A9200008A92000084C
:10007000A9200008A9200008A9200008A92000083C
:10008000A9200008A9200008A9200008A92000082C
:10009000AD310008A9200008A9200008A920000807
:1000A000A9200008A9200008A9200008A92000080C
:1000B000A9200008A9200008A9200008A9200008FC
:1000C000A9200008A9200008A9200008A9200008EC
:1000D000A9200008A9200008A9200008A9200008DC
:1000E000A9200008A9200008C53100080000000070
:1000F0000000000000000000000000000000000000
:0C01000000000000000000005FF808F1A3
:10010C00806F00080000002028010020806F00088C
:10011C000000000000000000280100205413002003
:0C012C0000000000000000003D19000869
:1001380080B483B000AF78607B68DB6818460C3702
:10014800BD4680BC7047000080B584B000AF7860C1
:100158000B46FB700023FB60FB68072B15DCFB7864
:1001680003F00103DBB21A464FF40071094802F0AC
:100178009AFB4FF48071786800F072F8FB785B1096
:10018800FB70FB680133FB60E6E700BF1037BD4634
:1001980080BD00BF000C014080B584B000AF78601E
:1001A8000B46FB70FB78002B03D0FB78012B07D0A4
:1001B8000DE07B68194A9A607B6800221A7106E094
:1001C8007B68174A9A607B6801221A7100BF012177
:1001D800082002F0A9FB4FF47073BB810323BB73A3
:1001E8001023FB7307F10C0319460E4802F06AFA54
:1001F8004FF470710B4802F048FB4021786800F01A
:100208002FF84FF48071786800F02AF88021786818
:1002180000F026F800BF1037BD4680BD405973076F
:100228000095BA0A000C014090B583B000AF786021
:1002380039603B684FF000044FF000004FF00001B8
:10024800190000207B689B684FF000041A4623467B
:1002580005F08CFE03460C4618460C37BD4690BD8B
:1002680080B582B000AF78600B467B807B88012226
:100278001946094802F017FB012001F030FD7B8880
:1002880000221946044802F00EFB012001F027FD68
:1002980000BF0837BD4680BD000C014080B584B062
:1002A80000AF786039607B683A68DA6039687868E6
:1002B800FFF7BAFFF8600023BB60BB68032B0CDCB8
:1002C800FB68DBB219467868FFF73EFFFB681B0A3C
:1002D800FB60BB680133BB60EFE77B681B7919469D
:1002E8007868FFF731FF80217868FFF7B9FF00BF12
:1002F8001037BD4680BD000080B588B000AF78607B
:100308004FF4004002F0F4FA01214FF4017002F0BA
:100318000BFB0F23BB830023FB770323BB7707F17A
:100328001C0319461D4802F0CDF90023BB600023C9
:100338003B7300237B734FF460233B6100237B6195
:1003480001233B7607F108031946154801F0EAFF37
:100358000121134802F038F8114802F050F810480B
:1003680002F05CF80346002B14BF01230023DBB224
:10037800002B00D0F3E70A4802F067F8084802F0BB
:1003880073F80346002B14BF01230023DBB2002BB4
:1003980000D0F3E700BF2037BD4680BD000801400C
:1003A8000024014080B582B000AF78600B46FB7036
:1003B800F978072301220E4802F088F801210C4839
:1003C80002F069F802210A4802F055F90346002BA9
:1003D8000CBF01230023DBB2002B00D0F2E7044856
:1003E80002F03DF9034618460837BD4680BD00BFF8
:1003F8000024014080B584B000AF78600B46FB70E4
:100408001346BB700023FB600023FB72FA7ABB78AB
:100418009A4210D2FB7819467868FFF7C3FF034663
:100428001A46FB681344FB60052001F058FCFB7A70
:100438000133FB72EAE7BB78FA68B2FBF3F39BB2CD
:1004480018461037BD4680BD80B483B000AF034660
:10045800FB71FB79002B01D0012300E00023184633
:100468000C37BD4680BC704780B584B000AF78605B
:100478000121102002F058FA0323BB731423FB73E5
:100488004FF40053BB8107F10C031946254802F0CD
:1004980019F94FF40051234802F0E9F90121082025
:1004A80002F042FA1423FB734FF40053BB8107F1A7
:1004B8000C0319461C4802F005F9BB8919461A486D
:1004C80002F0D5F90323BB734823FB734FF41043A1
:1004D800BB8107F10C031946134802F0F3F84FF4F7
:1004E8008051114802F0AAF90346002B0CBF0123E2
:1004F8000023DBB2002B0DD04FF400410A4802F074
:100508009DF90346002B01D0022200E003227B68FC
:100518001A7002E07B6801221A7000BF1037BD46CE
:1005280080BD00BF00100140000C014080B584B0C0
:1005380000AF78607868FFF797FF0323BB73102339
:10054800FB734FF45C43BB8107F10C0319460F485A
:1005580002F0B8F8BB8919460C4802F096F9012157
:10056800042002F0E1F94FF40073BB8107F10C039A
:100578001946074802F0A6F84FF40051044802F063
:1005880084F900BF1037BD4680BD00BF000C014094
:100598000008014080B584B000AF78600B46FB705E
:1005A800FB7883F00103DBB21846FFF74DFF0346E3
:1005B800FB73FB7B1A464FF40051074802F073F9AE
:1005C800FB7B1A464FF40051044802F06CF900BF57
:1005D8001037BD4680BD00BF00100140000C01402F
:1005E80080B582B000AF78600B46FB701346BB70D5
:1005F800FB781846FFF728FF03461A464FF40041D8
:10060800084802F050F9BB781846FFF71DFF03466B
:100618001A464FF48051034802F045F900BF0837E5
:10062800BD4680BD000C014080B485B000AF786045
:100638000B46FB700823FB73FB7B002B1FD07B68EA
:100648001A78FB785340DBB203F00103BB737B6875
:100658001B785B10DAB27B681A70BB7B002B07D063
:100668007B681B7883F07303DB43DAB27B681A700C
:10067800FB785B10FB70FB7B013BFB73DCE700BF87
:100688001437BD4680BC704780B584B000AFF860B1
:10069800B9601346FB80FB885A1EFA80002B14BFF2
:1006A80001230023DBB2002B08D0BB685A1CBA60B8
:1006B8001B781946F868FFF7B7FFECE700BF10375B
:1006C800BD4680BD80B483B000AF78607B689B6F07
:1006D800002B14BF01230023DBB218460C37BD469C
:1006E80080BC704780B483B000AF78607B681B78AB
:1006F80018460C37BD4680BC704790B587B000AF30
:10070800F8607A601A460B467B8113463B810023CA
:100718003B753B890D2B0ED83B891B031AB2B7F9E1
:100728000A3013431BB29AB207F114031946F8684A
:1007380000F04CF930E03B89B3F5877F16D27B890E
:100748006FEAC3436FEAD3439AB207F11403194619
:10075800F86800F03BF93B89DBB20E3BDAB207F1EF
:1007680014031946F86800F011F915E07B896FEA5F
:1007780003536FEA13539AB207F114031946F86842
:1007880000F024F93B89A3F587739AB207F11403A3
:100798001946F86800F01AF9FB685B681846FFF715
:1007A80091FF0346002B2AD13B89002B15D0FB680B
:1007B8005B683A897968184604F02AFFFB685B6829
:1007C8001846FFF77FFF0346002B1AD13A8907F135
:1007D800140379681846FFF757FFFB685C6807F150
:1007E80014031846FFF77EFF03461946204604F017
:1007F800DFFEFB685B68184604F03EFF02E000BFBE
:1008080000E000BF1C37BD4690BD80B586B000AF84
:10081800F860B9607A607B80FB6800221A70002358
:100828003B7407F110031946F86800F00AF903460B
:10083800FB82FB685B681846FFF744FF0346002B02
:1008480003D0FB6802221A708CE0FB8A1B0B9BB258
:10085800DAB2BB681A70FB8AC3F30A039AB2BB68A0
:100868005A80BB681B780D2B05D8BB681B789AB2D9
:10087800BB689A801CE0BB681B780E2B0CD107F173
:1008880010031946F86800F0BCF803469BB20E3313
:100898009AB2BB689A800BE007F110031946F86812
:1008A80000F0CFF8034603F587739AB2BB689A80C5
:1008B800FB685B681846FFF705FF0346002B03D06B
:1008C800FB6802221A704DE0BB689B887A889A42BE
:1008D80002D3BB689B8800E07B88BB82BB8A002B65
:1008E80015D0FB685B68BA8A7968184604F02AFE56
:1008F800FB685B681846FFF7E5FE0346002B30D11E
:10090800BA8A07F1100379681846FFF7BDFEFB683D
:100918005B68184604F0D6FD0346FB74FB685B6809
:100928001846FFF7CFFE0346002B03D0FB680222D0
:100938001A7017E007F110031846FFF7D3FE0346B5
:100948001A46FB7C934214BF01230023DBB2002B21
:1009580003D0FB6801221A7004E0FB6800221A70B9
:1009680000E000BF1837BD4680BD80B483B000AF3B
:10097800786039607B6800221A707B683A685A6030
:100988007B6818460C37BD4680BC704780B584B07C
:1009980000AFF860B9601346FB71FB685B681846E6
:1009A800FFF790FE0346002B0CD1FB685B68FA79D1
:1009B8001146184604F0FCFDFB791946B868FFF7A4
:1009C80033FE00E000BF1037BD4680BD80B584B05F
:1009D80000AFF860B9601346FB80FB88DBB21A46AB
:1009E800B968F868FFF7D2FFFB881B0A9BB2DBB235
:1009F8001A46B968F868FFF7C9FF00BF1037BD4647
:100A080080BD80B584B000AF786039607B685B6872
:100A18001846FFF757FE0346002B01D000230CE0D1
:100A28007B685B68184604F04DFD0346FB73FB7B4F
:100A380019463868FFF7F8FDFB7B18461037BD46A6
:100A480080BD80B584B000AF786039603968786857
:100A5800FFF7D7FF0346FB7339687868FFF7D1FFC4
:100A68000346BB73BB7B9BB21B029AB2FB7B9BB258
:100A780013449BB218461037BD4680BD80B586B07A
:100A880000AF7860012140F6040001F04DFF01211C
:100A9800012001F067FF00237B614FF48073BB8264
:100AA8001823FB750323BB7507F1140319462B485C
:100AB80001F008FE2A4801F0AFFF07F10803002201
:100AC8001A605A601A814FF6FF73BB8100233B817D
:100AD80000237B810023FB8100233B7407F108037B
:100AE80019461F4802F0AEF80023002250211C4886
:100AF80002F05AF920211A4802F09FF94FF080407D
:100B080001F08AFF4FF6FF73BB8100233B8100236E
:100B18007B810023FB8107F1080319464FF08040D1
:100B280002F090F800214FF0804002F026F90021F1
:100B38000B4802F09DF900214FF0804002F098F92F
:100B48000121074802F0FAF801214FF0804002F035
:100B5800F5F800BF1837BD4680BD00BF000801404A
:100B6800002C014090B583B000AF78607B681B68AB
:100B78005A1E7B681A607B681B68002B0CBF012318
:100B88000023DBB2002B1AD04FF0804002F07EF930
:100B980003461C040C4802F079F9034623431A461D
:100BA8007B685A600021084802F062F900214FF082
:100BB800804002F05DF97B684FF47A721A6000BFDA
:100BC8000C37BD4690BD00BF002C014080B483B0F7
:100BD80000AF03463960FB7197F90730002B0CDA38
:100BE8003B68DAB20D4997F9073003F00F03043B6D
:100BF8001201D2B20B441A760BE03B68DBB2084A0A
:100C080097F9071008461B01D9B213180A4683F84A
:100C1800002300BF0C37BD4680BC704700ED00E0E4
:100C280000E100E080B582B000AF78607B68013BEE
:100C3800B3F1807F01D301230FE00A4A7B68013BAF
:100C480053600F214FF0FF30FFF7C0FF054B002224
:100C58009A60044B07221A60002318460837BD46DD
:100C680080BD00BF10E000E080B582B000AF7860C2
:100C78007B687D33184600F024FE03461846083783
:100C8800BD4680BD80B400AF024B1B681846BD4608
:100C980080BC7047E8F7FF1F80B400AF024B1B68A9
:100CA8001846BD4680BC7047ECF7FF1F80B400AF04
:100CB800024B1B681846BD4680BC7047F0F7FF1F03
:100CC80080B487B000AF78603960144B3B613C2337
:100CD800FB6000237B617A69FB689A4219DA7B69B9
:100CE8007A6813441A787B6939690B441B78534036
:100CF800D9B27B69DAB26FF05C039B1ADAB27B690E
:100D0800386803444A40D2B21A707B6901337B6168
:100D1800E1E700BF1C37BD4680BC7047A06B0008E8
:100D280080B582B000AF78607B685B681846FFF7D3
:100D38009BFF0346002B14BF01230023DBB2184698
:100D48000837BD4680BD80B483B000AF78607B684B
:100D58001B78002B14BF01230023DBB218460C3785
:100D6800BD4680BC704780B483B000AF78607B68B4
:100D78005B6818460C37BD4680BC704780B582B0AA
:100D880000AF78600B46FB70FB781A460021786844
:100D9800FFF730FB034618460837BD4680BD80B5CF
:100DA80082B000AF78600B46FB70FB781A460121D1
:100DB8007868FFF71FFB034618460837BD4680BD15
:100DC80080B582B000AF78600B46FB70FB781A469E
:100DD80002217868FFF70EFB034618460837BD4620
:100DE80080BD80B582B000AF78600B46FB70FB78A1
:100DF8001A4603217868FFF7FDFA034618460837B4
:100E0800BD4680BD80B485B000AF78607B68B3F81C
:100E180009309BB20133FB817B68DB7A022B03D15B
:100E2800FB895B009BB200E0FB8918461437BD467E
:100E380080BC704780B582B000AF78607868FFF7F3
:100E4800E1FF034606339BB25B009BB218460837A6
:100E5800BD4680BD80B483B000AF78607B6893F8EE
:100E6800B83F18460C37BD4680BC704780B483B085
:100E780000AF78607B68083318460C37BD4680BCE5
:100E8800704780B483B000AF0346FB71FB79002B39
:100E980001D0012300E0002318460C37BD4680BC72
:100EA800704780B483B000AF78607B681B781846C1
:100EB8000C37BD4680BC704780B582B000AF786003
:100EC8000B46FB70FB781846FFF7DBFF03461A4614
:100ED8004FF48051034801F0E6FC00BF0837BD46D7
:100EE80080BD00BF000C014080B582B000AF7860C3
:100EF8000B46FB70FB781846FFF7C3FF03461A46FC
:100F08004FF48061034801F0CEFC00BF0837BD46AE
:100F180080BD00BF000C014080B582B000AF786092
:100F28000B46FB70FB781846FFF7ABFF03461A46E3
:100F38004FF40061034801F0B6FC00BF0837BD4616
:100F480080BD00BF000C014080B582B000AF786062
:100F58000B46FB70FB781846FFF793FF03461A46CB
:100F68004FF48041034801F09EFC00BF0837BD469E
:100F780080BD00BF000C014080B582B000AF786032
:100F88000B46FB70FB781846FFF77BFF03461A46B3
:100F98004FF40041034801F086FC00BF0837BD4606
:100FA80080BD00BF000C014090B591B000AF3B1D63
:100FB80019460E48FFF784FE7C68FFF763FE034678
:100FC8009C420DD13C6AFFF767FE03469C4207D15D
:100FD800FC6BFFF76BFE03469C4201D1012300E046
:100FE800002318464437BD4690BD00BFE06B00089B
:100FF80080B500AF024800F005F800BF80BD00BF13
:101008003002002080B582B000AF7860054802F059
:10101800B9F87B682C331846FFF7A4FD00BF0837E2
:10102800BD4680BD2801002080B584B000AFF860BF
:101038007A601A460B467B8113463B81FB6803F1B5
:1010480024003B8979897A68FFF757FB00BF10377E
:10105800BD4680BD80B582B000AF7860064800F01C
:101068003EFE7B685B68002200211846FFF7B8FA4D
:1010780000BF0837BD4680BDA086010080B582B09C
:1010880000AF78607B6893F82230012B05D05AB204
:10109800002A14D0032B12D80AE07B685B6801226F
:1010A80000211846FFF79CFA7868FFF7D3FF07E09E
:1010B8007B685B6801211846FFF75EFF00E000BF10
:1010C8007B6801221A7300BF0837BD4680BD80B512
:1010D80082B000AF78607B6893F82230012B05D08E
:1010E8005AB2002A14D0032B12D80AE07B685B6836
:1010F800002201211846FFF773FA7868FFF7AAFF64
:1011080007E07B685B6800211846FFF735FF00E0C1
:1011180000BF7B6800221A7300BF0837BD4680BD38
:1011280080B582B000AF78600B46FB70FB78012B6E
:1011380003D9FB78022B04D007E07868FFF7C7FFD4
:1011480003E07868FFF79AFF00BF00BF0837BD4685
:1011580080BD80B582B000AF7860002300220021F6
:101168007868FFF761FF00BF0837BD4680BD80B5CE
:1011780082B000AF78607B6803F10F02152301216C
:101188007868FFF751FF00BF0837BD4680BD0000F3
:1011980080B582B000AF7860084801F0D1FF024600
:1011A8007B689A607B6803F108020723022178684C
:1011B800FFF73AFF00BF0837BD4680BD2801002071
:1011C80080B592B000AF786007F10C031946074864
:1011D800FFF776FD07F10C023C2303217868FFF73F
:1011E80023FF00BF4837BD4680BD00BFE06B000845
:1011F80080B582B000AF786039607B6803F138024F
:101208003B681B6819461046FFF748F800BF0837C7
:10121800BD4680BD80B584B000AF78607B68383348
:101228001846FEF785FF0346FB6007F10C0204230E
:1012380010217868FFF7F8FE00BF1037BD4680BD63
:1012480090B585B000AF786039607B684833184640
:10125800FFF700FE0346012B14BF01230023DBB276
:10126800002B22D03B68FB60FB689B7A19467868A4
:10127800FFF756FF7B684833F968184600F09AFC78
:101288007B6848331846FFF7F1FD04467B6848330E
:101298001846FFF7EBFD03461846FFF7CBFD03465C
:1012A800224631217868FFF7BFFE00BF1437BD46DC
:1012B80090BD80B582B000AF786039603B681A781D
:1012C8007B6883F823207B6803F138027B6893F8F6
:1012D800233019461046FEF75FFF7B68383300213C
:1012E8001846FEF7DBFF00BF0837BD4680BD80B556
:1012F80082B000AF786039607B6893F82230012BA8
:1013080030D93B681A787B689A737B685A683B685F
:101318001B7803F00103002B14BF01230023DBB269
:1013280019461046FFF7C8FD7B685A683B681B786A
:1013380003F00203002B14BF01230023DBB219467C
:101348001046FFF7D1FD7B685A683B681B7803F0AD
:101358000403002B14BF01230023DBB219461046F7
:10136800FFF7DAFD00BF0837BD4680BD80B582B003
:1013780000AF786039607B6893F82230012B10D970
:101388003B681B78002B14BF01230023DAB27B686B
:101398005A737B685A687B685B7B19461046FFF76F
:1013A800D3FD00BF0837BD4680BD80B584B000AF0F
:1013B80078607B68343303211846FFF701FD034644
:1013C800BB817B68343303211846FFF70AFD0346C7
:1013D800FB8100233A7B62F307037A7B62F30F23D6
:1013E800BA7B62F31743FA7B62F31F631846103720
:1013F800BD4680BD90B583B000AF786039603B686A
:10140800343303211846FFF7B9FC03461A467B68B4
:101418001A803B68343303211846FFF7C0FC0346A3
:101428001A467B685A807C683868FFF7BEFF034617
:101438001A462271C3F307226271C3F30742A271ED
:10144800C3F30763E3713B682C331846FFF78BFC43
:1014580002467B689A6078680C37BD4690BD80B5B7
:1014680086B000AF786007F10C0379681846FFF77B
:10147800C1FF07F10C020C2312217868FFF7D4FD95
:1014880000BF1837BD4680BD80B582B000AF786018
:101498007B6803F1240010237A4A7B49FFF7B5F9EA
:1014A8007B6824331846FFF74EFC0346002B40F0B8
:1014B800DE80754B5B88302B00F2D58001A252F894
:1014C80023F000BF9115000899150008A115000820
:1014D800A91500086F1600086F1600086F16000897
:1014E8006F1600086F1600086F1600086F160008C0
:1014F8006F1600086F1600086F1600086F160008B0
:101508006F160008B1150008C1150008D9150008A4
:10151800E9150008FF150008151600082D16000823
:10152800451600086F1600086F1600086F160008A9
:101538006F1600086F1600086F1600086F1600086F
:101548006F1600086F1600086F1600086F1600085F
:101558006F1600086F1600086F1600086F1600084F
:101568006F1600086F1600086F1600086F1600083F
:101578006F1600086F1600086F1600086F1600082F
:101588006F1600085D1600087868FFF7E2FD75E041
:101598007868FFF7ECFD71E07868FFF7F9FD6DE01A
:1015A8007868FFF70DFE69E07B68DB7B002B60D075
:1015B8007868FFF72FFE5CE07B68DB7B002B03D0AD
:1015C80030497868FFF714FE7868FFF7C2FD55E0E8
:1015D8007B68DB7B002B4ED07868FFF740FF4AE042
:1015E8007B68DB7B002B02D07868FFF770FD78689A
:1015F800FFF7AFFD42E07B68DB7B002B02D0786809
:10160800FFF73CFD7868FFF7A4FD37E07B68DB7BDC
:10161800002B03D01B497868FFF74BFE7868FFF76B
:1016280098FD2BE07B68DB7B002B03D0154978689D
:10163800FFF75DFE7868FFF78CFD1FE07B68DB7BBA
:10164800002B03D00F497868FFF790FE7868FFF702
:1016580080FD13E07B68DB7B002B0ED0094978689E
:10166800FFF7EEFD09E07868FFF773FD06E000BFBD
:1016780004E000BF02E000BF00E000BF0837BD463D
:1016880080BD00BF3C1200203412002080B500AF9E
:10169800094800F07FFB094800F090FB0848FEF776
:1016A80045FF084803F044FE074800F085F806485F
:1016B80000F0E6F800BF80BD280100201C6C00087F
:1016C8002C010020300100203002002080B483B0BB
:1016D80000AF78607B6800221A707B6818460C3768
:1016E800BD4680BC704780B483B000AF78607B682B
:1016F8004FF47A721A607B6800225A607B68184639
:101708000C37BD4680BC704780B483B000AF7860AA
:10171800044A7B681A607B6818460C37BD4680BC53
:10172800704700BF2C6C000880B582B000AF7860AD
:101738007B681846FFF7E8FF054A7B681A607B68F4
:101748000022DA607B6818460837BD4680BD00BFB6
:10175800986B000880B584B000AFF860B9607A6013
:10176800FB68BA681A60FB687A685A60FB680F33CE
:101778001846FFF7ABFFFB682433B9681846FFF734
:10178800F4F8FB682C331846FFF7ADFFFB683833D5
:101798001846FFF7C9FFFB6803F14800FB6803F12F
:1017A8003801FB6834331A4600F006F9FB6818461E
:1017B8001037BD4680BD000080B582B000AF7860AC
:1017C8002D4B1B682D4AA2FB03239B091846FFF7E4
:1017D80029FA7B6800229A607B6800221A737B686A
:1017E80000225A737B6800229A73FFF7DDFB0346D9
:1017F8001A467B68DA73FFF745FA02467B681A6176
:10180800FFF74AFA02467B685A61FFF74FFA024629
:101818007B689A617B6803221A777B6803225A7770
:101828007A68002343F4565343F03C03D3830023E0
:1018380043F4BB4343F0030313847B685B68184697
:10184800FFF72FFB03461A467B6883F822207B6844
:10185800012283F823207B682C331846FFF70EF902
:101868007B6834331846FEF747FD7868FFF72FFC8E
:1018780000BF0837BD4680BD00000020D34D621070
:1018880080B582B000AF78607B684833184600F0B6
:1018980019FA7B685B6801211846FEF77BFE7B68B6
:1018A80024331846FFF73CFA0346002BF1D07B6837
:1018B8005B6800211846FEF76DFE7868FFF7E4FDC7
:1018C800E7E780B483B000AF78607B6893F8403076
:1018D800DAB27B6893F84130DBB2D31ADBB2184630
:1018E8000C37BD4680BC704780B582B000AF7860C9
:1018F80039607B68012B10D13B684FF6FF72934229
:101908000BD1084801F006FC0649074803F0E8FC3B
:10191800064A05490648FFF71DFF00BF0837BD46C0
:1019280080BD00BF28010020300100202C010020CC
:101938003002002080B500AF4FF6FF710120FFF79D
:10194800D3FF80BD80B483B000AF78607B681B890B
:101958009BB2002B0BD07B681B899BB2B3F57A7FB7
:1019680005D87B685B68002B01D0012300E00023C9
:1019780018460C37BD4680BC704780B483B000AFB2
:1019880078607B68DB7A03F00F03DBB20133DBB2EC
:1019980018460C37BD4680BC704780B483B000AF92
:1019A80078607B68DB7A1B09DBB20133DBB218464F
:1019B8000C37BD4680BC704780B485B000AFF86076
:1019C800B9607A60FB68BA681A60FB687A685A601E
:1019D800FB68002283F8B82FFB6818461437BD4609
:1019E80080BC704780B485B000AF78600B467B80C0
:1019F8000023FB81FA897B889A420AD2FB897A689C
:101A080008335B00134400229A80FB890133FB8171
:101A1800F0E700BF1437BD4680BC704780B485B07E
:101A280000AF78600B467B8013467B700023FB81F8
:101A3800FA897B889A4215D2FB897A6808335B0059
:101A480013449B881A467B7892FBF3F2FB8991B288
:101A58007A6808335B0013440A469A80FB8901338D
:101A6800FB81E5E700BF1437BD4680BC704780B5F1
:101A780084B000AF78600B467B8013467B707B6830
:101A8800D3F80930FB6000237B817A897B889A42EE
:101A980080F08C807B681A687B681B681B681B68F1
:101AA800F96810469847052000F019F97B68DB7C37
:101AB800012B21D05AB2002A02D0022B38D06EE076
:101AC8007B685B687A7811461846FFF757F9034632
:101AD80018467A89531C7B811346796808335B0062
:101AE8000B449B88034499B213467A6808335B0019
:101AF80013440A469A8052E07B685B687A781146FC
:101B08001846FFF74CF9034618467A89531C7B811F
:101B18001346796808335B000B449B88034499B2E9
:101B280013467A6808335B0013440A469A8036E005
:101B38007B685B687A7811461846FFF741F90346D7
:101B480018467A89531C7B811346796808335B00F1
:101B58000B449B88034499B213467A6808335B00A8
:101B680013440A469A807B685B687A78114618465F
:101B7800FFF737F9034618467A89531C7B811346C9
:101B8800796808335B000B449B88034499B2134679
:101B98007A6808335B0013440A469A8000BF7B6862
:101BA800D3F80D30FA681344FB606EE700BF1037B6
:101BB800BD4680BD80B586B000AF786039603868B2
:101BC800FFF7C0FE034683F00103DBB2002B05D10B
:101BD8003B681B899BB2B3F57A7F01D9012300E0EA
:101BE8000023002B08D07B6800225A7400229A74C4
:101BF8007B6802221A7262E07B68012283F8B82FA0
:101C08003B681A687B68C3F809203B685A687B6898
:101C1800C3F80D203B681B899AB27B68A3F8112092
:101C28003B689A7A7B68DA743868FFF7B6FE034631
:101C3800FB743868FFF7A1FE0346BB747B68083362
:101C48001846FFF7DFF803463B827B681A687B6813
:101C58001B681B6804331B6810469847F8603B8A6A
:101C68001B119BB2BA7C19467868FFF700FF3B8AC4
:101C780019467868FFF7B6FE00237B61FB7C7A691A
:101C88009A4209DABA7C3B8A19467868FFF7EFFE70
:101C98007B6901337B61F1E7FA7C3B8A19467868F6
:101CA800FFF7BCFE7B681A687B681B681B681B68AB
:101CB800F968104698477B68002283F8B82F1837D0
:101CC800BD4680BD80B483B000AF78607B680022D9
:101CD80083F8B82F00BF0C37BD4680BC704780B46E
:101CE80085B000AF78607B68DB00FB60FB685A1E3C
:101CF800FA60002B14BF01230023DBB2002B00D0B5
:101D0800F4E700BF1437BD4680BC704780B483B089
:101D180000AF78604FF06043D3F8803E03F00103D2
:101D2800002B09D04FF06043D3F8003E03F00103C5
:101D3800002B01D0012300E00023002B10D04FF02E
:101D480060431B68002B0CBF01230023DBB2002B70
:101D580001D000BFF3E77A684FF06043D2B21A703F
:101D68007B6818460C37BD4680BC704780B582B08A
:101D780000AF78607B681B78002B07D07B685A1C03
:101D88007A601B781846FFF7C1FFF3E700BF0837F2
:101D9800BD4680BD80B483B000AF7860054A7B68DB
:101DA8001360054B01221A7000BF0C37BD4680BC7A
:101DB800704700BF4C120020501200200FB480B5AD
:101DC80082B000AF1E4B1B7883F00103DBB2002BFF
:101DD8002ED11C4B1B68184601F0B2F903461A4A6B
:101DE80064211A4804F052FA184804F083FA78601B
:101DF80007F114033B607B68144A98187B68C3F1A9
:101E080063013B683A6904F0A9FA104804F072FAD1
:101E180078607B685A1C7A600C4A0A21D1540B4AB4
:101E28007B68134400221A700848FFF79FFF00E000
:101E380000BF0837BD46BDE8804004B0704700BF0A
:101E4800501200204C120020346C0008541200205C
:101E580080B500AF154B1B68144A43F001031360AB
:101E6800124B5A681149124B13404B600F4B1B68B9
:101E78000E4A23F0847323F4803313600B4B1B68E2
:101E88000A4A23F480231360084B5B68074A23F44B
:101E9800FE035360054B4FF41F029A6000F07AF876
:101EA800044B4FF000629A6000BF80BD00100240F2
:101EB8000000FFF800ED00E080B485B000AF00231B
:101EC800FB600023BB6000237B602D4B5B6803F045
:101ED8000C03FB60FB68042B09D0FB68082B0AD0B5
:101EE800FB68002B33D1274B274A1A6033E0254B78
:101EF800254A1A602FE0224B5B6803F47013BB601D
:101F08001F4B5B6803F480337B60BB689B0C023318
:101F1800BB607B68002B06D1BB681C4A02FB03F33D
:101F2800184A136017E0164B5B6803F40033002B64
:101F380006D0BB68154A02FB03F3124A13600AE095
:101F4800BB68114A02FB03F30E4A136003E00D4B12
:101F58000D4A1A6000BF0A4B5B681B0903F00F03A8
:101F68000B4AD35CDBB2FB60064B1A68FB6822FAAB
:101F780003F3044A136000BF1437BD4680BC7047A2
:101F8800001002400000002000127A0000093D0005
:101F98000400002080B500AF00F002F800BF80BD4B
:101FA80080B483B000AF00237B6000233B603A4BD2
:101FB8001B68394A43F480331360374B1B6803F4BA
:101FC80000333B607B6801337B603B68002B03D1A7
:101FD8007B68B3F5A06FF0D12F4B1B6803F4003377
:101FE800002B02D001233B6001E000233B603B68EB
:101FF800012B4BD1294B1B68284A43F0100313606F
:10200800264B1B68254A23F003031360234B1B68E8
:10201800224A43F0020313601F4B1F4A5B68536058
:102028001D4B1D4A5B6853601B4B5B681A4A43F49F
:1020380080635360184B5B68174A23F47C13536022
:10204800154B5B68144A43F4E8135360124B1B6842
:10205800114A43F08073136000BF0F4B1B6803F0F5
:102068000073002BF9D00C4B5B680B4A23F0030379
:102078005360094B5B68084A43F00203536000BF92
:10208800054B5B6803F00C03082BF9D100BF0C3734
:10209800BD4680BC704700BF0010024000200240CF
:1020A80080B400AFFEE780B500AF00F0C3F80000D1
:1020B80080B584B000AF7860144B1B68002B02D148
:1020C800124B134A1A60114B1B68FB607B68033381
:1020D80023F003037B600D4B1A687B6813440D4A99
:1020E800934207D904F0C4F802460C2313604FF05A
:1020F800FF3306E0054B1A687B681344034A1360F4
:10210800FB6818461037BD4680BD00BFB8120020D6
:1021180054130020004C002080B487B000AFF86052
:10212800B9607A60BB687B6107E0FA68131DFB60E1
:102138007B69191D796112681A607A697B689A420D
:10214800F3D300BF1C37BD4680BC704780B485B050
:1021580000AF786039607B68FB6004E0FB681A1D9B
:10216800FA6000221A60FA683B689A42F6D300BF08
:102178001437BD4680BC704780B582B000AF164AA0
:10218800164BD31A9B103B6000237B6007E0134A71
:102198007B6852F8233098477B6801337B607A6804
:1021A8003B689A42F3DB0E4A0E4BD31A9B103B60F6
:1021B80000237B6007E00B4A7B6852F8233098477E
:1021C8007B6801337B607A683B689A42F3DB00BF27
:1021D8000837BD4680BD00BF34010008340100083F
:1021E800380100083401000880B500AFFFF730FE61
:1021F800094B0A4A9A600A4A0A490B48FFF78CFFBA
:102208000A490B48FFF7A2FFFFF756FEFFF7B4FF96
:10221800FFF73CFA00BF80BD00ED00E000000008B9
:102228002801002000000020806F000854130020BF
:102238002801002080B500AFFFF7FCFF80B483B011
:1022480000AF7860054A7B6843F0BF6343F400330E
:10225800D36000BF0C37BD4680BC704700ED00E07E
:1022680080B487B000AF786000237B6100233B61B6
:102278000F23FB607B68DB78002B3AD0274BDB68A9
:10228800DB431B0A03F007037B617B69C3F104038B
:102298003B61FA687B6922FA03F3FB607B685B7831
:1022A8001A463B6902FA03F37B617B689B781A46FE
:1022B800FB6813407A6913437B617B691B017B616F
:1022C800174A7B681B787969C9B213440A4683F8B0
:1022D80000237B681B7803F01F0311497A68127882
:1022E8005209D2B21046012202FA03F341F8203013
:1022F8000FE07B681B7803F01F0309497A6812789E
:102308005209D2B2104601229A4000F1200341F846
:10231800232000BF1C37BD4680BC704700ED00E09D
:1023280000E100E080B485B000AF78603960002338
:10233800FB600023FB727B685B68FB60FB6823F42F
:10234800702323F48073FB603B681A683B681B7931
:102358001B021343FA681343FB607B68FA685A60F0
:102368007B689B68FB60FA68164B1340FB603B6810
:10237800DA683B689B681A433B685B795B001343E8
:10238800FA681343FB607B68FA689A607B68DB6ACB
:10239800FB60FB6823F47003FB603B681B7C013B1C
:1023A800DAB2FB7A1343FB72FB7A1B05FA68134314
:1023B800FB607B68FA68DA6200BF1437BD4680BCF0
:1023C800704700BFFDF7F1FF80B483B000AF7860BD
:1023D8000B46FB70FB78002B06D07B689B6843F0AC
:1023E80001027B689A6005E07B689B6823F0010224
:1023F8007B689A6000BF0C37BD4680BC704780B4CC
:1024080083B000AF78607B689B6843F008027B6804
:102418009A6000BF0C37BD4680BC704780B485B059
:1024280000AF78600023FB737B689B6803F00803A8
:10243800002B02D00123FB7301E00023FB73FB7B1D
:1024480018461437BD4680BC704780B483B000AFCF
:1024580078607B689B6843F004027B689A6000BFE1
:102468000C37BD4680BC704780B485B000AF78603B
:102478000023FB737B689B6803F00403002B02D0E6
:102488000123FB7301E00023FB73FB7B1846143721
:10249800BD4680BC704780B483B000AF78600B46FF
:1024A800FB70FB78002B06D07B689B6843F4A00286
:1024B8007B689A6005E07B689B6823F4A0027B68D0
:1024C8009A6000BF0C37BD4680BC704780B485B0A9
:1024D80000AF7860084611461A460346FB700B4663
:1024E800BB7013467B700023FB600023BB60FB7846
:1024F800092B23D97B68DB68FB60FB78A3F10A0210
:1025080013465B001344072202FA03F3BB60BB685F
:10251800DB43FA681340FB607978FB78A3F10A0281
:1025280013465B00134401FA03F3BB60FA68BB6807
:102538001343FB607B68FA68DA601EE07B681B69FE
:10254800FB60FA7813465B001344072202FA03F390
:10255800BB60BB68DB43FA681340FB607978FA78A4
:1025680013465B00134401FA03F3BB60FA68BB68C7
:102578001343FB607B68FA681A61BB78062B21D885
:102588007B685B6BFB60BB785A1E13469B00134449
:102598001F2202FA03F3BB60BB68DB43FA681340EF
:1025A800FB60F978BB785A1E13469B00134401FA66
:1025B80003F3BB60FA68BB681343FB607B68FA6887
:1025C8005A6347E0BB780C2B21D87B681B6BFB60F8
:1025D800BB78DA1F13469B0013441F2202FA03F349
:1025E800BB60BB68DB43FA681340FB60F978BB78D3
:1025F800DA1F13469B00134401FA03F3BB60FA6821
:10260800BB681343FB607B68FA681A6322E07B6847
:10261800DB6AFB60BB78A3F10D0213469B001344F1
:102628001F2202FA03F3BB60BB68DB43FA6813405E
:10263800FB60F978BB78A3F10D0213469B001344A5
:1026480001FA03F3BB60FA68BB681343FB607B685D
:10265800FA68DA6200BF1437BD4680BC704780B4A0
:1026680083B000AF78607B68DB6C9BB218460C3790
:10267800BD4680BC704780B485B000AF78600B461B
:10268800FB700023FB737B681A68FB781340002BF0
:1026980002D00123FB7301E00023FB73FB7B184688
:1026A8001437BD4680BC704780B483B000AF7860F3
:1026B800034A7B68536100BF0C37BD4680BC704736
:1026C8000004014080B489B000AF7860396000230D
:1026D800FB6100233B610023BB610023FB600023F7
:1026E8007B610023BB603B68DB7803F00F03FB6171
:1026F8003B68DB7803F01003002B05D03B689B7820
:102708001A46FB691343FB613B681B88DBB2002B4D
:1027180044D07B681B687B610023BB6138E00122E1
:10272800BB6902FA03F3FB603B681B881A46FB6827
:1027380013403B613A69FB689A4226D1BB699B000A
:10274800FB600F22FB6802FA03F3BB60BB68DB4344
:102758007A6913407B61FA69FB6802FA03F37A69C4
:1027680013437B613B68DB78282B05D10122BB69C9
:102778009A407B685A6108E03B68DB78482B04D1B3
:102788000122BB699A407B681A61BB690133BB614E
:10279800BB69072BC3D97B687A691A603B681B88B9
:1027A800FF2B46D97B685B687B610023BB613AE0FD
:1027B800BB690833012202FA03F3FB603B681B88FC
:1027C8001A46FB6813403B613A69FB689A4227D175
:1027D800BB699B00FB600F22FB6802FA03F3BB6036
:1027E800BB68DB437A6913407B61FA69FB6802FACC
:1027F80003F37A6913437B613B68DB78282B05D1A7
:10280800BB69083301229A407B685A613B68DB78D0
:10281800482B05D1BB69083301229A407B681A61AD
:10282800BB690133BB61BB69072BC1D97B687A6976
:102838005A6000BF2437BD4680BC704780B485B05D
:1028480000AF78600B467B800023FB737B689A6837
:102858007B881340002B02D00123FB7301E0002387
:10286800FB73FB7B18461437BD4680BC704780B4A9
:1028780083B000AF78600B467B807A887B681A61EA
:1028880000BF0C37BD4680BC704780B483B000AF32
:1028980078600B467B807A887B685A6100BF0C376A
:1028A800BD4680BC704780B483B000AF78600B46EB
:1028B8007B8013467B707B78002B03D07A887B68FB
:1028C8001A6102E07A887B685A6100BF0C37BD46FE
:1028D80080BC704780B483B000AF7860034A7B68DF
:1028E800136000BF0C37BD4680BC7047D800424219
:1028F80080B485B000AF78600023FB60094B5B684B
:10290800FB60FB6823F44043FB60FA687B68134371
:10291800FB60044AFB68536000BF1437BD4680BCA7
:10292800704700BF0010024080B483B000AF7860E9
:102938000B46FB70FB78002B06D0094B9A690849B7
:102948007B6813438B6106E0054B9A697B68DB4320
:10295800034913408B6100BF0C37BD4680BC7047EC
:102968000010024080B483B000AF78600B46FB7063
:10297800FB78002B06D0094BDA6908497B681343BA
:10298800CB6106E0054BDA697B68DB4303491340FA
:10299800CB6100BF0C37BD4680BC704700100240B9
:1029A80080B483B000AF78600B46FB70FB78002BD7
:1029B80006D0094BDA6808497B681343CB6006E008
:1029C800054BDA687B68DB4303491340CB6000BFE3
:1029D8000C37BD4680BC70470010024080B483B0FD
:1029E80000AF78600B46FB70FB78002B06D0094BD4
:1029F8001A6908497B6813430B6106E0054B1A699D
:102A08007B68DB43034913400B6100BF0C37BD46AD
:102A180080BC70470010024080B582B000AF78607B
:102A28007B68784A93420AD101214FF40060FFF78E
:102A3800B7FF00214FF40060FFF7B2FFDEE07B68CC
:102A4800B3F1804F08D101210120FFF7C7FF002112
:102A58000120FFF7C3FFD1E07B686B4A934208D19E
:102A680001210220FFF7BAFF00210220FFF7B6FF7D
:102A7800C4E07B68654A934208D101210420FFF72E
:102A8800ADFF00210420FFF7A9FFB7E07B68604A8B
:102A9800934208D101210820FFF7A0FF0021082058
:102AA800FFF79CFFAAE07B685A4A934208D10121AC
:102AB8001020FFF793FF00211020FFF78FFF9DE004
:102AC8007B68554A934208D101212020FFF786FFF1
:102AD80000212020FFF782FF90E07B684F4A934255
:102AE8000AD101214FF40050FFF75AFF00214FF49B
:102AF8000050FFF755FF81E07B68494A93420AD1AD
:102B080001214FF40020FFF74BFF00214FF4002074
:102B1800FFF746FF72E07B68424A93420AD10121DF
:102B28004FF48010FFF73CFF00214FF48010FFF7AF
:102B380037FF63E07B683C4A93420AD101214FF496
:102B48000010FFF72DFF00214FF40010FFF728FFBA
:102B580054E07B68354A934208D101214020FFF7B1
:102B68003DFF00214020FFF739FF47E07B68304AEE
:102B7800934208D101218020FFF730FF00218020F7
:102B8800FFF72CFF3AE07B682A4A93420AD10121D9
:102B98004FF48070FFF722FF00214FF48070FFF799
:102BA8001DFF2BE07B68244A93420AD101214FF490
:102BB8008030FFF7F5FE00214FF48030FFF7F0FE7C
:102BC8001CE07B681D4A93420AD101214FF4003072
:102BD800FFF7E6FE00214FF40030FFF7E1FE0DE0BD
:102BE8007B68174A934209D101214FF48020FFF7EF
:102BF800D7FE00214FF48020FFF7D2FE00BF083730
:102C0800BD4680BD002C0140000400400008004083
:102C1800000C004000100040001400400034014047
:102C2800004C014000500140005401400018004091
:102C3800001C0040002000400040014000440140CA
:102C48000048014080B485B000AF78603960002347
:102C5800FB817B681B88FB817B682E4A934213D0DB
:102C68007B682D4A93420FD07B68B3F1804F0BD01D
:102C78007B682A4A934207D07B68294A934203D04B
:102C88007B68284A934208D1FB8923F07003FB81B3
:102C98003B685A88FB891343FB817B68224A93422D
:102CA8000CD07B68214A934208D0FB8923F44073F7
:102CB800FB813B68DA88FB891343FB817B68FA89CF
:102CC8001A803B689A887B689A853B681A887B6873
:102CD8001A857B680F4A93420FD07B680E4A93424D
:102CE8000BD07B68124A934207D07B68114A934203
:102CF80003D07B68104A934204D13B681B7A9AB28E
:102D08007B681A867B6801229A8200BF1437BD4609
:102D180080BC7047002C0140003401400004004092
:102D280000080040000C0040001000400014004063
:102D380000400140004401400048014080B483B095
:102D480000AF78600B46FB70FB78002B08D07B68DF
:102D58001B889BB243F001039AB27B681A8007E094
:102D68007B681B889BB223F001039AB27B681A80A8
:102D780000BF0C37BD4680BC704780B582B000AF3D
:102D880078600B467B807B881946786800F03AF8B3
:102D98007B681B899BB243F007039AB27B681A8150
:102DA80000BF0837BD4680BD80B584B000AFF8606D
:102DB800084611461A4603467B810B463B8113465B
:102DC800FB807B89602B06D1FB8839890122F86852
:102DD80000F0D8F805E0FB8839890122F86800F08E
:102DE80061F87B891946F86800F00CF8FB681B89C4
:102DF8009BB243F007039AB2FB681A8100BF1037F1
:102E0800BD4680BD80B485B000AF78600B467B803E
:102E18000023FB817B681B89FB81FB8923F07003FE
:102E2800FB81FA897B881343FB817B68FA891A81C5
:102E380000BF1437BD4680BC704780B483B000AF74
:102E480078600B467B807B689B889BB223F070037D
:102E58009AB27B689A807B689B889AB27B88134376
:102E68009AB27B689A8000BF0C37BD4680BC704719
:102E780080B483B000AF78600B467B807B687A882B
:102E88009A8400BF0C37BD4680BC704780B483B0BD
:102E980000AF78607B689B8C9BB218460C37BD46A8
:102EA80080BC704780B487B000AFF8600846114610
:102EB8001A4603467B810B463B811346FB80002361
:102EC800BB820023FB82FB681B8C9BB223F00103AF
:102ED8009AB2FB681A84FB681B8BBB82FB681B8C4D
:102EE800FB82BB8A23F0F303BB82FB881B019AB2E7
:102EF8003B8913439AB2BB8A1343BB82FB681C4AC3
:102F0800934213D0FB681B4A93420FD0FB68B3F17E
:102F1800804F0BD0FB68184A934207D0FB68174ACA
:102F2800934203D0FB68164A93420BD1FB8A23F0E5
:102F38000203FB827A89FB8A13439BB243F00103A5
:102F4800FB820AE0FB8A23F00A03FB827A89FB8A68
:102F580013439BB243F00103FB82FB68BA8A1A83CE
:102F6800FB68FA8A1A8400BF1C37BD4680BC7047CC
:102F7800002C0140003401400004004000080040DB
:102F8800000C004080B487B000AFF86008461146D6
:102F98001A4603467B810B463B811346FB80002380
:102FA800BB820023FB8200237B82FB681B8C9BB2C5
:102FB80023F010039AB2FB681A84FB681B8BBB8250
:102FC800FB681B8CFB827B891B017B82BB8A23F4F9
:102FD80040731B051B0DBB82FB881B039AB2BB8A7F
:102FE8001343BB823B891B029AB2BB8A1343BB8241
:102FF800FB681C4A934213D0FB681B4A93420FD0CC
:10300800FB68B3F1804F0BD0FB68184A934207D096
:10301800FB68174A934203D0FB68164A93420BD1C8
:10302800FB8A23F02003FB827A8AFB8A13439BB234
:1030380043F01003FB820AE0FB8A23F0A003FB8223
:103048007A89FB8A13439BB243F01003FB82FB6827
:10305800BA8A1A83FB68FA8A1A8400BF1C37BD46ED
:1030680080BC7047002C014000340140000400403F
:1030780000080040000C004080B483B000AF034655
:103088003960FB7197F90730002B0CDA3B68DAB22C
:103098000D4997F9073003F00F03043B1201D2B230
:1030A8000B441A760BE03B68DBB2084A97F9071025
:1030B80008461B01D9B213180A4683F8002300BF3B
:1030C8000C37BD4680BC704700ED00E000E100E031
:1030D80080B582B000AF78607B68013BB3F1807F38
:1030E80001D301230FE00A4A7B68013B53600F219B
:1030F8004FF0FF30FFF7C0FF054B00229A60044BEA
:1031080007221A60002318460837BD4680BD00BF55
:1031180010E000E080B582B000AF7860064B1B6815
:10312800064AA2FB03239B091846FFF7D1FF7B68D9
:1031380018460837BD4680BD00000020D34D6210F8
:1031480080B483B000AF7860034B1B6818460C3717
:10315800BD4680BC704700BFBC12002080B483B05D
:1031680000AF78603960064B1B683A689A4234BFF2
:1031780001230023DBB218460C37BD4680BC7047DC
:10318800BC12002080B483B000AF7860044B1B6889
:103198000133034A136000BF0C37BD4680BC70473B
:1031A800BC12002080B500AF034B1B68184600F026
:1031B8009DF800BF80BD00BFD012002080B500AFD1
:1031C8004FF48020FFF770FA00BF80BD80B483B051
:1031D80000AF7860364A7B681A60364A7B681360AD
:1031E8007B6800225A607B6801229A607B68324AB9
:1031F8000C3392E8030083E803007B682F4A1433FA
:1032080092E8030083E803007B682D4A1C3392E8A8
:10321800030083E803007B682A4A243392E803000A
:1032280083E803007B68284A2C3392E8030083E88C
:1032380003007B68254A343392E8030083E80300DF
:103248007B68234A3C3392E8030083E803007B68E9
:10325800204A443392E8030083E803007B681E4A4F
:103268004C3392E8030083E803007B681B4A54331D
:1032780092E8030083E803007B68194A5C3392E80C
:10328800030083E803007B68164A643392E803006E
:1032980083E803007B68144A6C3392E8030083E8F0
:1032A80003007B6818460C37BD4680BC704700BFDA
:1032B800AC6C0008D01200203C6C0008446C00087C
:1032C8004C6C0008546C00085C6C0008646C0008C6
:1032D8006C6C0008746C00087C6C0008846C000836
:1032E8008C6C0008946C00089C6C000880B582B057
:1032F80000AF78604F4B1B689AB24F4B1A804E4B09
:103308001B889AB24D4B1B8813409BB203F4007381
:10331800002B14BF01230023DBB2002B05D07B68F0
:103328001B6838331B6878689847434B1B889AB2E8
:10333800424B1B8813409BB21BB29BB2DB0BDBB228
:10334800002B05D07B681B683C331B68786898475E
:10335800394B1B889AB2394B1B8813409BB203F434
:103368008063002B14BF01230023DBB2002B05D0A0
:103378007B681B6840331B68786898472E4B1B880E
:103388009AB22E4B1B8813409BB203F40053002BB8
:1033980014BF01230023DBB2002B05D07B681B6818
:1033A80044331B6878689847234B1B889AB2234B91
:1033B8001B8813409BB203F48053002B14BF0123D6
:1033C8000023DBB2002B05D07B681B6848331B68E1
:1033D80078689847184B1B889AB2184B1B8813407B
:1033E8009BB203F40063002B14BF01230023DBB25C
:1033F800002B05D07B681B684C331B68786898479E
:103408000D4B1B889AB20D4B1B8813409BB203F4DB
:103418008073002B14BF01230023DBB2002B05D0DF
:103428007B681B6850331B687868984700BF08376B
:10343800BD4680BD445C0040C0120020E812002058
:1034480080B483B000AF786000BF0C37BD4680BC45
:10345800704780B483B000AF786000BF0C37BD46BA
:1034680080BC704780B483B000AF786000BF0C3771
:10347800BD4680BC704780B483B000AF786000BFA1
:103488000C37BD4680BC704780B483B000AF78600D
:1034980000BF0C37BD4680BC704780B483B000AF16
:1034A800786000BF0C37BD4680BC704780B483B0DD
:1034B80000AF786000BF0C37BD4680BC704780B451
:1034C80083B000AF786000BF0C37BD4680BC704742
:1034D80080B483B000AF786000BF0C37BD4680BCB5
:1034E800704780B483B000AF786000BF0C37BD462A
:1034F80080BC704780B483B000AF786000BF0C37E1
:10350800BD4680BC704780B483B000AF786000BF10
:103518000C37BD4680BC704780B483B000AF78607C
:1035280000BF0C37BD4680BC704780B483B000AF85
:10353800786000BF0C37BD4680BC704780B582B04C
:1035480000AF78600020FFF7C5F901214FF40000B3
:10355800FFF708FA00BF0837BD4680BD80B584B0C4
:1035680000AF78604FF4A060FEF768FE14233B7349
:1035780000237B730023BB730123FB7307F10C0348
:103588001846FEF76DFE2A233B7300237B7307F171
:103598000C031846FEF764FE00BF1037BD4680BD19
:1035A80080B483B000AF7860074B4FF6FF521A60C3
:1035B800064B1B78DBB20133DAB2044B1A7000BF3A
:1035C8000C37BD4680BC7047445C0040C2120020E6
:1035D80080B582B000AF7860054B4FF6FF321A60B5
:1035E800044B5B68984700BF0837BD4680BD00BFE5
:1035F800445C00403C00002080B483B000AF786099
:10360800044B4DF6FF721A6000BF0C37BD4680BCF4
:10361800704700BF445C004080B582B000AF78605E
:10362800054B4EF6FF721A60002002F003FC00BF43
:103638000837BD4680BD00BF445C004080B582B0FD
:1036480000AF7860094B1B78DBB2002B02D002F088
:1036580063FB02E0022002F0EDFB054B4FF2FF7224
:103668001A6000BF0837BD4680BD00BFC0000020FB
:10367800445C004080B58CB000AF7860464B4FF694
:10368800FF621A60454B1B681BB29BB2DB0BDBB2B7
:10369800002B76D0424B1B680133414A1360404BE4
:1036A8001B68032B08D93F4B1B689BB203F0080328
:1036B800002B01D1012300E00023002B64D0394BFB
:1036C8001B689BB21A46384B1A600023FB62FB6AE0
:1036D800072B13DCFB6A03F1805303F5B8539B00F7
:1036E8001B689BB21A46FB6A9B0007F130010B442A
:1036F80043F8282CFB6A0133FB62E8E72A4B1B6876
:1037080043F00103284A1360274B1B689AB2254BE4
:103718001A60254B1B6823F00103234A1360224BD0
:103728001B689AB21F4B1A601B4B1B689BB203F4B1
:103738008063002B0CBF01230023DBB2002B00D0D9
:10374800F2E7154B4FF6FF321A600023BB62BB6AE3
:10375800072B12DCBB6A9B0007F13002134453F8B5
:10376800283C9AB2BB6A03F1805303F5B8539B0017
:103778001A60BB6A0133BB62E9E7094B00221A6091
:1037880002E0074B00221A60072002F053FB00BF3B
:103798003037BD4680BD00BF445C0040485C0040F7
:1037A800C4120020405C0040C812002090B585B0CB
:1037B80000AF78600023FB817D4B1B689AB27D4B7C
:1037C8001146198013B29BB2DB0BDBB2002B00F061
:1037D8000E82784B1B889BB2DBB203F00F03DAB280
:1037E800754B1A70744B1B78002B40F04881734B53
:1037F8001B689AB2724B1A80714B1B889BB203F0FC
:1038080030039AB26F4B1A806D4B1B889BB203F43E
:1038180040539AB26A4B1A80684B1B689BB24BF6AE
:10382800BF741C4084F4005484F02004A2B2664B98
:1038380013439AB2614B1A605E4B1B889BB203F02C
:103848001003002B0CBF01230023DBB2002B4FD049
:103858005A4B1B689BB21946584A48F60F730B40DF
:10386800136001F0D5F8554B1B689BB24BF6BF743B
:103878001C40534B1B889BB203F48053002B14BF8E
:1038880001230023DBB2002B01D084F480544C4B7D
:103898001B889BB203F40053002B14BF01230023A1
:1038A800DBB2002B01D084F40054464B1B889BB23A
:1038B80003F01003002B14BF01230023DBB2002BFD
:1038C80001D084F010043F4B1B889BB203F0200307
:1038D800002B14BF01230023DBB2002B01D084F09E
:1038E8002004A2B2384B13439AB2344B1A607EE1DB
:1038F800324B1B689BB2FB81FB899BB203F40063CC
:10390800002B14BF01230023DBB2002B5ED02B4B0E
:103918001B689BB21946294A40F68F730B40136007
:1039280001F008F8254B1B689BB24BF6BF741C408E
:10393800234B1B889BB203F48053002B14BF012335
:103948000023DBB2002B01D084F480541C4B1B886D
:103958009BB203F40053002B14BF01230023DBB2F6
:10396800002B01D084F40054164B1B889BB203F043
:103978001003002B14BF01230023DBB2002B01D05E
:1039880084F010040F4B1B889BB203F02003002B1C
:1039980014BF01230023DBB2002B01D084F02004E4
:1039A800A2B2094B13439AB2044B1A601FE100BF3D
:1039B800445C0040C0120020DD120020005C004082
:1039C800CC120020CE1200208080FFFFFB899BB222
:1039D8001BB29BB2DB0BDBB2002B3FF4EDAE854B89
:1039E8001B689BB21946834A40F68F730B401360DD
:1039F80001F056F87F4B1B689BB24BF6BF741C4016
:103A08007D4B1B889BB203F48053002B14BF01230A
:103A18000023DBB2002B01D084F48054764B1B8842
:103A28009BB203F40053002B14BF01230023DBB225
:103A3800002B01D084F40054704B1B889BB203F018
:103A48001003002B14BF01230023DBB2002B01D08D
:103A580084F01004694B1B889BB203F02003002BF1
:103A680014BF01230023DBB2002B01D084F0200413
:103A7800A2B2634B13439AB25E4B1A60B7E0614B34
:103A88001B7803F1805303F5B8539B001B689BB266
:103A9800FB81FB899BB21BB29BB2DB0BDBB2002B19
:103AA8004ED0584B1B7803F1805303F5B8539B0055
:103AB8001B689BB21946534B1B7803F1805303F5DF
:103AC800B8539B001A4640F68F730B4013604D4B5A
:103AD8001B78013B7A680733DB0013449B685B1053
:103AE8001A467B689818474B1B78013B7A6807335E
:103AF800DB0013449B6803F00103002B17D0414BF4
:103B08001B78013B7A680733DB0013449B685B1022
:103B18001A467B6813441A683A4B1B78013B79684C
:103B28000733DB000B445B6813441B6807E0354B25
:103B38001B78013B7A680733DB0013445B689847BE
:103B4800FB899BB203F08003002B14BF01230023E1
:103B5800DBB2002B3FF430AE2A4B1B7803F18053C5
:103B680003F5B8539B001B689BB21946254B1B787D
:103B780003F1805303F5B8539B001A4648F60F73B8
:103B88000B4013601F4B1B78013B7A68DB00134422
:103B98009B685B101A467B6898181A4B1B78013B88
:103BA8007A68DB0013449B6803F00103002B15D0EF
:103BB800144B1B78013B7A68DB0013449B685B104D
:103BC8001A467B6813441A680E4B1B78013B7968C8
:103BD800DB000B445B6813441B6806E0094B1B7849
:103BE800013B7A68DB0013445B689847E4E51437C7
:103BF800BD4690BD005C0040CC120020CE120020D3
:103C08008080FFFFDD12002080B582B000AF034640
:103C1800FB80FB88002B05D1084B1B6801221A8208
:103C2800002306E0064B1B681B689847034B1B687C
:103C38000A3318460837BD4680BD00BFE012002091
:103C48000813002080B500AF0F4B1B68DA780F4BC4
:103C58005B789A4215D80C4B1B689B78002B10D1C7
:103C6800094B1B689B88002B0BD1074B1A68064B26
:103C78001B68D2789A72064B1B685B6898470023CA
:103C880000E00223184680BDE01200203800002022
:103C98000813002080B582B000AF0346FB80FB8884
:103CA800002B05D1084B1B6801221A82002306E06D
:103CB800064B1B689B689847034B1B680C331846D8
:103CC8000837BD4680BD00BFE01200200813002061
:103CD80080B582B000AF1D4B1B689B691C4A1268F7
:103CE80050791B4A1268D278114698470346FB71EF
:103CF800174B1B689B7A002B23D0FB79002B09D12B
:103D0800134B1B681B79002B04D1114B1B689B7844
:103D1800002B01D0022315E0FB79002B11D10D4BAC
:103D28001B68DB6898470A4B1A68094B1B6852796D
:103D3800DA72074B1A68064B1B68D2781A7300238D
:103D480000E0022318460837BD4680BDE412002073
:103D5800E01200200813002080B584B000AF0346AD
:103D6800FB80FB88002B05D14B4B1B6802221A8273
:103D780000238CE0494B00221A80474B1B681B78B4
:103D880003F07F03002B2CD1434B1B685B7AFB733A
:103D9800FB7B03F02003002B07D0404B1B7843F03C
:103DA8000203DAB23D4B1A7006E03C4B1B7823F055
:103DB8000203DAB2394B1A70FB7B03F04003002B85
:103DC80007D0364B1B7843F00103DAB2334B1A7035
:103DD80058E0324B1B7823F00103DAB22F4B1A70EC
:103DE80050E02D4B1B681B7803F07F03012B01D19A
:103DF8002A4B4CE0284B1B681B7803F07F03022BEF
:103E08003ED1254B1B685B79BB73BB7B03F00F036B
:103E18007B7397F90E30002B18DA7B7B03F1805304
:103E280003F5B8539B001B689BB203F03003102BBB
:103E38000CBF01230023DBB2002B23D0174B1B78C8
:103E480043F00103DAB2154B1A701BE07B7B03F1D8
:103E5800805303F5B8539B001B689BB203F440538F
:103E6800B3F5805F0CBF01230023DBB2002B09D020
:103E78000A4B1B7843F00103DAB2084B1A7001E0D1
:103E8800002304E0064B1B681B699847034B184640
:103E98001037BD4680BD00BFE0120020D4120020BC
:103EA8000813002090B587B000AF744B1B681B78CF
:103EB80003F07F033B613B69002B0AD16F4B1B6802
:103EC8005A7A6E4B1B6822F02002D2B25A72002333
:103ED800D0E03B69022B40F0CC80684B1B685B88C4
:103EE800002B04D1654B1B681B79002B01D00223E2
:103EF800C0E0634BFB60614B1B685B79BB60BB68D0
:103F080023F080037B607B683B605C4B1B685B79BC
:103F18005BB2002B0BDA3B6803F1805303F5B8530F
:103F28009B001B689BB203F030037B610AE03B688F
:103F380003F1805303F5B8539B001B689BB203F44D
:103F480040537B61FB681B781A467B68934207D213
:103F58007B69002B04D0494B1B689B7A002B01D14D
:103F6800022387E0BB6803F08003002B1CD03B686A
:103F780003F1805303F5B8539B001B689BB203F011
:103F88003003102B0CBF01230023DBB2002B6AD0B7
:103F98003B68DBB2184601F013F83B68DBB230210E
:103FA800184600F0F7FE5EE03B6803F1805303F526
:103FB800B8539B001B689BB203F44053B3F5805F72
:103FC8000CBF01230023DBB2002B4CD03B68002B35
:103FD80027D13B68DAB22B4B93F82C309BB21946A9
:103FE800104601F0B1F83B6803F1805303F5B8536C
:103FF8009B001B689BB223F4804323F070039CB2A0
:1040080084F480539CB284F400539CB21E4B234327
:104018009AB23B6803F1805303F5B8539B001A60CA
:1040280021E03B68DBB2184600F098FF3B6803F1DB
:10403800805303F5B8539B001B689BB223F480435D
:1040480023F070039CB284F480539CB284F4005330
:104058009CB20D4B23439AB23B6803F1805303F59E
:10406800B8539B001A60094B1B685B69984700238B
:1040780000E0022318461C37BD4690BDE012002020
:10408800380000203C0000208080FFFF081300203B
:1040980090B585B000AF3F4B1B685B79BB60BB68D0
:1040A80023F080037B607B683B603A4B1B685B793D
:1040B8005BB2002B0BDA3B6803F1805303F5B8536E
:1040C8009B001B689BB203F03003FB600AE03B686F
:1040D80003F1805303F5B8539B001B689BB203F4AC
:1040E8004053FB602C4B1B781A463B6893420CD21A
:1040F800284B1B685B88002B07D1FB68002B04D07A
:10410800244B1B689B7A002B01D102233EE0BB683D
:1041180003F08003002B1AD03B6803F1805303F5AA
:10412800B8539B001B689BB223F4E04323F0400381
:104138009CB284F010039CB2184B23439AB23B689C
:1041480003F1805303F5B8539B001A6019E03B68EC
:1041580003F1805303F5B8539B001B689BB223F40B
:10416800804323F070039CB284F480539CB20B4BC1
:1041780023439AB23B6803F1805303F5B8539B007D
:104188001A60074B1B689B69984700231846143729
:10419800BD4690BDE0120020380000208080FFFF5F
:1041A8000813002080B500AF074B1B685A7A064BEE
:1041B8001B6842F02002D2B25A72044B1B68DB69BA
:1041C80098470023184680BDE012002008130020FD
:1041D80080B485B000AF03463960FB800D4B1B6887
:1041E8005B8AFB60FB88002B0AD13B689988FB68D7
:1041F8009AB2084B1B688A1A92B21A82002303E00B
:104208003B681A68FB68134418461437BD4680BCDF
:10421800704700BFE012002080B584B000AF434B68
:104228001B681033BB60BB681B887B60BB689B68DE
:10423800002B2DD07B68002B2AD0BB689B88FB60A5
:10424800FA687B689A4201D97B68FB60BB689B6807
:10425800FA6892B2104698473860BB681A88FB68BB
:104268009BB2D31A9AB2BB681A80BB685A88FB689B
:104278009BB213449AB2BB685A80002000F02CFF0E
:1042880003461946FB689BB21A46386800F00BFDD6
:10429800BB681B88002B0AD0254B4FF440521A806C
:1042A8000021002000F032FF224B30221A80BB6828
:1042B8001A88BB689B889A4204D31C4B1B6803224C
:1042C8001A722EE0BB681B88002B04D0174B1B68A2
:1042D80005221A7225E0BB681B88002B21D1134BDD
:1042E8001B6806221A72144B1B689B6898470F4B71
:1042F8001B681B7A082B07D10D4B4FF480521A808C
:104308000C4B10221A800CE00C4B1B689BB21A460F
:104318000B4B13445B001A4600231360054B3022F5
:104328001A8000BF1037BD4680BD00BFE0120020D4
:10433800CC120020CE120020E4120020505C004075
:104348000230002080B586B000AF3B4B1B681033AD
:10435800FB60FB681B88BB60374B1B681B7A7B6163
:10436800BB68002B1FD17B69042B1CD1334B1B78F6
:10437800002B12D0324B1B689BB21A46314B1344A8
:104388005B001A46002313602F4B30221A80042347
:104398007B612A4B00221A7045E007237B612A4B78
:1043A80010221A803FE0FB689B883B61BA683B6932
:1043B8009A4201D8042300E002237B613A69BB6872
:1043C8009A4201D9BB683B61FB689B683A6992B223
:1043D800104698477860002000F064FE03461946AE
:1043E8003B699BB21A46786800F022FC3B699BB295
:1043F8001946002000F08AFEFB681A883B699BB2C8
:10440800D31A9AB2FB681A80FB685A883B699BB238
:1044180013449AB2FB685A800B4B30221A800B4B1C
:104428004FF440521A80044B1B687A69D2B21A7250
:1044380000BF1837BD4680BDE0120020DC12002006
:10444800505C004002300020CE120020CC12002028
:1044580080B584B000AF0223FB735E4B1B685B78AA
:104468007B605C4B1B681B7803F07F03002B59D1E2
:104478007B68092B04D1FFF7E5FB0346FB7379E062
:104488007B68052B1AD1534B1B68DB785BB2002B7A
:104498000EDB504B1B689B78002B09D14D4B1B68DA
:1044A8009B88002B04D14B4B1B689B7A002B02D0B6
:1044B8000823BB6085E00023FB735BE07B68032B6C
:1044C80011D1444B1B68DB78012B09D1414B1B6888
:1044D8009B88002B04D1FFF765FE0346FB7349E078
:1044E8000223FB7346E07B68012B43D1394B1B68E1
:1044F800DB78012B13D1374B1B689B88002B0ED11F
:10450800344B1B685B7A03F02003002B07D0324B37
:1045180000221A60FFF7C6FC0346FB732AE0022359
:10452800FB7327E02B4B1B681B7803F07F03012BE1
:1045380007D17B680B2B1DD1FFF7CAFB0346FB7322
:1045480018E0244B1B681B7803F07F03022B0FD164
:104558007B68012B04D1FFF7A5FC0346FB7309E038
:104568007B68032B06D1FFF793FD0346FB7301E03D
:104578000223FB73FB7B002B0ED0184B1B685B6977
:104588007A68D2B2104698470346FB73FB7B032B2D
:1045980002D10923BB6014E0FB7B002B02D0082367
:1045A800BB600EE00623BB600D4B1B689BB21A462E
:1045B8000C4B13445B001A46002313600A4B30224D
:1045C8001A80044B1B68BA68D2B21A7200BF10373F
:1045D800BD4680BDE0120020D8120020E412002061
:1045E800505C004002300020CE12002080B58AB016
:1045F80000AF994B1B685B78BB6100237B6200238B
:104608007B61BB69062B24D1934B1B681B7803F095
:104618007F03002B40F0DE808F4B1B689B78FB7478
:10462800FB7C012B04D18D4B1B68DB697B62D1E0DD
:10463800FB7C022B04D1894B1B681B6A7B62C9E097
:10464800FB7C032B40F0C680844B1B685B6A7B6253
:10465800C0E0BB69002B7DD17F4B1B685B88002BBA
:1046680078D17D4B1B68DB88022B73D17A4B1B6892
:104678001B79002B6ED1784B1B681B7803F07F03E6
:10468800002B07D1744B1B689B88002B02D1744BFD
:104698007B629EE0704B1B681B7803F07F03012B45
:1046A80019D16E4B1B689B696B4A126852790021BD
:1046B800104698470346002B06D1674B1B689B7A28
:1046C800002B01D0012300E00023002B00F08180A3
:1046D800634B7B627DE0604B1B681B7803F07F03B4
:1046E800022B76D15C4B1B685B7903F00F03FB60F0
:1046F800594B1B685B7903F07003BB60564B1B6812
:104708005B795BB2002B0BDAFB6803F1805303F58E
:10471800B8539B001B689BB203F03003FB610AE0AF
:10472800FB6803F1805303F5B8539B001B689BB2E9
:1047380003F44053FB614B4B1B781A46FB689342CA
:1047480047D2BB68002B44D1FB69002B41D0444BB6
:104758007B623EE0BB69082B09D13F4B1B681B7885
:1047680003F07F03002B35D13F4B7B6232E0BB69FE
:104778000A2B2FD1384B1B681B7803F07F03012BC2
:1047880021D1354B1B689B7A002B1CD0324B1B6800
:104798005B88002B17D1304B1B681B79002B12D17B
:1047A8002D4B1B68DB88012B0DD12C4B1B689B699B
:1047B800294A126852790021104698470346002B6F
:1047C80001D1012300E00023002B03D0274B7B629B
:1047D80000E000BF7B6A002B0FD01F4B1B687A6973
:1047E80092B25A821C4B1B687A6A9A617B6A0020D3
:1047F8009847002387F8233013E0184B1B681B6980
:10480800154A1268527810469847034687F82330AD
:1048180097F82330032B04D10F4B1B6809221A7217
:104828007DE00D4B1B681B8A4FF6FF72934204D143
:10483800094B1B6809221A7271E097F82330022B82
:1048480004D0054B1B681B8A002B11D1024B1B6837
:1048580008221A7263E000BFE0120020E412002070
:10486800613D000838000020113C00089D3C00080C
:104878002C4B1B681B785BB2002B47DA294B1B6853
:10488800DB887B60274B1B681B8A1A467B689A4229
:104898008CBF01230023DBB2002B05D07A68214BA3
:1048A8001B6892B21A8226E01E4B1B681A8A1D4B9F
:1048B8001B68DB889A421ED21A4B1B681A8A1A4B4D
:1048C8001B6893F82C309BB29A4203D2174B0022F4
:1048D8001A7010E0134B1B681B8A134A126892F86F
:1048E8002C2093FBF2F102FB01F29B1A002B02D160
:1048F8000E4B01221A700C4B1B6893F82C20094BA5
:104908001B6892B29A82FFF71DFD08E0054B1B68F1
:1049180003221A72064B4FF440521A8000BF283700
:10492800BD4680BDE0120020E4120020DC12002009
:10493800CC12002090B583B000AF0123FB80314B2F
:104948001B689BB21A46304B13445B001B689BB232
:104958005B0003F1804303F5C0433B602B4B1B68AE
:104968001B7A092B37D03B685A1C3A60274A1268D1
:104978001B7813703B685A1C3A60244A12681B78EB
:1049880053703A68FB885B0013443B603B689A1C91
:104998003A601A881D4B1C68104600F035FC034627
:1049A80063803A68FB885B0013443B603B689A1C51
:1049B8003A601A88154B1C68104600F025FC03461F
:1049C800A3803A68FB885B0013443B603A680F4B4E
:1049D8001B681288DA800D4B1B6801221A720B4B78
:1049E8001B68DB88002B02D1FFF732FD01E0FFF7DF
:1049F800FDFD00F08FF8034600BF18460C37BD4692
:104A080090BD00BF505C004004300020E012002040
:104A180080B582B000AF1F4B1B681B7A7B607B6838
:104A2800022B02D07B68042B06D1FFF78BFC194BB5
:104A38001B681B7A7B6021E07B68062B1CD1154B19
:104A48001B685B78052B10D1124B1B681B7803F091
:104A58007F03002B09D10F4B1B68DB78184600F049
:104A680081F80D4B1B681B6A98470C4B1B689B68A9
:104A7800984708237B6001E008237B60054B1B688F
:104A88007A68D2B21A7200F045F803461846083719
:104A9800BD4680BDE012002008130020E41200206B
:104AA80080B582B000AF194B1B681B7A7B607B68AE
:104AB800022B02D07B68042B02D108237B6018E00C
:104AC8007B68032B02D07B68052B06D1FFF7A4FB7C
:104AD8000E4B1B681B7A7B600BE07B68072B06D1AB
:104AE8000B4B1B68DB68984708237B6001E00823B1
:104AF8007B60064B1B687A68D2B21A7200F00AF81B
:104B0800034618460837BD4680BD00BFE0120020A6
:104B1800E412002080B500AF0E4B93F82C309BB206
:104B28001946002000F010FB0B4B1B681B7A082B62
:104B380006D10A4B4FF480521A80094B10221A8072
:104B4800054B1B681B7A092B0CBF01230023DBB222
:104B5800184680BD3C000020E0120020CC12002046
:104B6800CE12002080B485B000AF0346FB711A4B0B
:104B78001B78BB600023FB60FA68BB689A421FD2AF
:104B8800FB68DBB203F1805303F5B8539B001B6845
:104B98009BB21A4640F60F73134043F4004343F0A8
:104BA8008003FA68D2B21A43FB68DBB203F1805380
:104BB80003F5B8539B001A60FB680133FB60DBE721
:104BC800FB7963F07F03DAB2044B1A6000BF143735
:104BD800BD4680BC704700BF380000204C5C0040D8
:104BE80080B400AF00BFBD4680BC704780B500AF41
:104BF800094B0A4A1A60084B1B6802221A72084BB2
:104C0800084A1A60084B094A1A60054B1B681B685A
:104C1800984700BF80BD00BFE0120020EC120020C2
:104C2800E41200203C000020081300206C00002043
:104C380080B489B000AF78600B467B8013463B8018
:104C48003B8801335B087B617B8803F1005303F5E4
:104C580040535B00BB617B69FB61FB69002B1DD086
:104C68007B681B783B617B6801337B607B681B78C2
:104C78001B021A463B691343FB60FB6899B2BB6988
:104C88009A1CBA610A461A80BB690233BB617B6809
:104C980001337B60FB69013BFB61DEE700BF243722
:104CA800BD4680BC704780B487B000AF78600B46C3
:104CB8007B8013463B803B8801335B10FB607B881D
:104CC80003F1005303F540535B003B61FB687B61D4
:104CD8007B69002B10D03B691A1D3A611B6899B299
:104CE8007B685A1C7A600A461A807B6801337B60AD
:104CF8007B69013B7B61EBE700BF1C37BD4680BC8D
:104D08007047000080B483B000AF0346FB80044ABC
:104D1800FB88136000BF0C37BD4680BC704700BFDE
:104D2800445C004080B483B000AF0346FB80FA883F
:104D380004494FF6F87313400B6000BF0C37BD46AB
:104D480080BC7047505C004080B483B000AF03461D
:104D58000A46FB711346BB80FB7903F1805303F5C8
:104D6800B8539B001B681BB223F4EC4323F0700379
:104D78001AB2B7F9043013431BB29AB2FB7903F1A4
:104D8800805303F5B8539B001A6000BF0C37BD462B
:104D980080BC704790B482B000AF03460A46FB71EE
:104DA8001346BB80FB7903F1805303F5B8539B008E
:104DB8001B689BB223F4E04323F040039CB2BB88FA
:104DC80003F01003002B02D084F010039CB2BB88C0
:104DD80003F02003002B02D084F020039CB2074B81
:104DE80023439AB2FB7903F1805303F5B8539B0030
:104DF8001A6000BF0837BD4690BC70478080FFFF2F
:104E080090B482B000AF03460A46FB711346BB80DC
:104E1800FB7903F1805303F5B8539B001B689BB2E1
:104E280023F4804323F070039CB2BB8803F48053BF
:104E3800002B02D084F480539CB2BB8803F4005347
:104E4800002B02D084F400539CB2074B23439AB240
:104E5800FB7903F1805303F5B8539B001A6000BF38
:104E68000837BD4690BC70478080FFFF90B482B081
:104E780000AF0346FB71FB7903F1805303F5B85388
:104E88009B001B689BB223F4E04323F040039CB2D1
:104E980084F010039CB284F020039CB2074B234398
:104EA8009AB2FB7903F1805303F5B8539B001A605B
:104EB80000BF0837BD4690BC704700BF8080FFFF29
:104EC80090B482B000AF0346FB71FB7903F18053C5
:104ED80003F5B8539B001B689BB223F4804323F06F
:104EE80070039CB284F480539CB284F400539CB247
:104EF800074B23439AB2FB7903F1805303F5B85368
:104F08009B001A6000BF0837BD4690BC704700BFC1
:104F18008080FFFF80B483B000AF0346FB71FB794C
:104F280003F1805303F5B8539B001B681AB240F68F
:104F38000F6313401AB2084B13431BB29AB2FB79A2
:104F480003F1805303F5B8539B001A6000BF0C3778
:104F5800BD4680BC704700BF8080FFFF80B483B02F
:104F680000AF0346FB71FB7903F1805303F5B85397
:104F78009B001B689BB203F48043002B14BF0123E2
:104F88000023DBB2002B16D0FB7903F1805303F525
:104F9800B8539B001B689BB21A4640F60F73134028
:104FA80043F4404242F08002FB7903F1805303F559
:104FB800B8539B001A6000BF0C37BD4680BC7047D1
:104FC80080B483B000AF0346FB71FB7903F18053D3
:104FD80003F5B8539B001B689BB203F04003002BFA
:104FE80014BF01230023DBB2002B16D0FB7903F199
:104FF800805303F5B8539B001B689BB21A4640F6D2
:105008000F73134043F4004242F0C002FB7903F1EE
:10501800805303F5B8539B001A6000BF0C37BD4698
:1050280080BC704780B483B000AF03460A46FB716A
:105038001346BB80BB8823F00102094B1B689BB257
:105048001946FB79DB000B4403F1005303F5405389
:105058005B001A6000BF0C37BD4680BC704700BFBC
:10506800505C004080B483B000AF03460A46FB7131
:105078001346BB80BB8823F00102084B1B689BB218
:105088001946FB79DB001944054B0B445B001A6099
:1050980000BF0C37BD4680BC704700BF505C004065
:1050A8000430002080B483B000AF0346FB71094B85
:1050B8001B689BB21A46FB79DB00134403F10053CB
:1050C80003F540535B001B689BB218460C37BD467E
:1050D80080BC7047505C004080B483B000AF03468A
:1050E800FB71084B1B689BB21A46FB79DB001A441C
:1050F800054B13445B001B689BB218460C37BD4632
:1051080080BC7047505C00400430002080B483B0FD
:1051180000AF03460A46FB711346BB80BA88084BAA
:105128001B689BB21946FB79DB001944054B0B44FD
:105138005B001A6000BF0C37BD4680BC704700BFDB
:10514800505C00400230002080B485B000AF0346B8
:105158000A46FB711346BB801A4B1B689BB21A4662
:10516800FB79DB001A44184B13445B00BB60BB8817
:105178003E2B12D9BB885B11FB81BB8803F01F0350
:10518800002B02D1FB89013BFB81FB899B0243F485
:1051980000431A46BB681A600FE0BB885B10FB81AE
:1051A800BB8803F00103002B02D0FB890133FB818C
:1051B800FB899B021A46BB681A6000BF1437BD46BC
:1051C80080BC7047505C00400630002080B483B03B
:1051D80000AF0346FB710A4B1B689BB21A46FB796A
:1051E800DB001A44074B13445B001B689BB2C3F3F4
:1051F80009039BB218460C37BD4680BC704700BFF8
:10520800505C00400630002080B485B000AF0346F3
:10521800FB80FB88FB73FB881B121AB2FB7B1B020B
:105228001BB213431BB29BB2BB81BB891846143710
:10523800BD4680BC7047000080B400AF074B002219
:105248001A60074B4FF43F421A80054B1A88054BEA
:105258001A6000231846BD4680BC7047445C004075
:10526800E8120020405C004080B483B000AF786052
:105278007B6800229A6700BF0C37BD4680BC704728
:1052880080B582B000AF78607B68184640231A4624
:10529800002100F0F3FF7B68002283F840207B6840
:1052A800002283F841207B6818460837BD4680BD38
:1052B80080B582B000AF78607B6818463E231A46F6
:1052C800002100F0DBFF7B68002283F83E207B682A
:1052D800002283F83F207B6818460837BD4680BD0A
:1052E80080B582B000AF786039607B681846FDF7FA
:1052F8006DFF0E4A7B681A607B683A685A677B685C
:1053080000229A677B68002283F87C207B687D33C3
:105318001846FFF7B5FF7B68BF331846FFF7C8FF8D
:105328007B6818460837BD4680BD00BF386E000848
:1053380090B583B000AF78607B681846FEF7FEF83A
:105348007B681846FEF70AF9FFF750FC3E22402119
:105358000E48FCF733FD7B68BF33184600F002FAAD
:1053680003461C467B68BF33184600F00EFA034616
:10537800002B01D0064B00E0064B1A462146064892
:10538800FCF71CFD00BF0C37BD4690BD006D000842
:10539800306D0008386D00083C6D000890B585B088
:1053A80000AF78607B687D33184600F000FA03464A
:1053B800002B20D00320FFF709FF0346FB817B6801
:1053C80003F17D040320FFF787FE03461946FB8996
:1053D8001A462046FFF767FCFB89DAB27B6883F838
:1053E800BD207B687D331846FCF76BFA03461946E7
:1053F8000348FCF7E3FC00BF1437BD4690BD00BF6F
:10540800506D000880B582B000AF78607B68BF330C
:10541800184600F0A7F9034619460848FCF7CEFCE1
:105428007B68BF33184600F0D8F97B68002283F800
:105438007C2000BF0837BD4680BD00BF686D0008EE
:1054480080B584B000AF78607B687D33184600F083
:10545800D5F90320FFF734FD1848FCF7AFFC7B684B
:105468005B6F1846FDF76CFE034603F5FA73FB60A5
:105478007B687D33184600F09AF90346002B0BD061
:105488007B685B6FF9681846FDF768FE0346002BDA
:10549800EED07B6801229A677B687D331846FCF75B
:1054A80010FA034619467B689B6F1A460448FCF7B6
:1054B80085FC00BF1037BD4680BD00BF7C6D00086D
:1054C800946D000880B584B000AF78607868FFF705
:1054D800CBFE7B687D33184600F069F90346002B44
:1054E80005D01648FCF76AFC7868FFF7A9FF7868CA
:1054F800FBF7E8F80346002B01D000231AE07B688D
:105508007D33184600F08BF90346FB737B687D33C7
:10551800184600F04CF90346002B0AD00848FCF75F
:105528004DFC7B687D33184600F068F90320FFF7CF
:10553800C7FCFB7B18461037BD4680BDB06D000820
:10554800CC6D000880B584B000AFF860B960134630
:10555800FB80FB68BF33184600F004F90346194680
:105568001248FCF72BFCFB885A1EFA80002B0AD045
:10557800F868FBF7A7F8034683F00103DBB2002BBA
:1055880001D0012300E00023002B0AD0F868FFF7C0
:1055980099FF03461946BB685A1CBA600A461A7036
:1055A800E1E700BF1037BD4680BD00BFEC6D0008C5
:1055B80080B582B000AF78600B46FB707B68BF3364
:1055C800184600F0E2F80346002B0AD0786800F08D
:1055D80053F87B68BF33FA781146184600F034F95F
:1055E80011E07B68BF33FA781146184600F02CF9B1
:1055F8007B68BF33184600F0C8F80346002B02D07A
:10560800786800F039F800BF0837BD4680BD000053
:1056180080B584B000AFF860B9601346FB80FB68C2
:10562800BF33184600F09EF8034619461148FCF7A8
:10563800C5FBFB885A1EFA80002B0AD0F868FBF7D6
:1056480041F8034683F00103DBB2002B01D00123AC
:1056580000E00023002B08D0BB685A1CBA601B78F6
:105668001946F868FFF7A4FFE3E700BF1037BD4607
:1056780080BD00BFF86D000890B585B000AF7860B8
:105688007B6893F87C30DBB2002B03D03348FCF7FF
:1056980095FB60E07B68BF33184600F063F803466B
:1056A800002B0CBF01230023DBB2002B52D17868FA
:1056B800FFF7DAFD7B68012283F87C207B6803F121
:1056C800BF047B68BF33184600F04CF803469BB212
:1056D8001A46C0212046FFF7ABFA7B68BF3318464D
:1056E80000F040F803469BB219460120FFF70EFD73
:1056F8000120FFF7BBFB7B685B6F1846FDF720FDB9
:10570800034603F5FA73FB607B6893F87C30DBB2E1
:10571800002B14D07B685B6FF9681846FDF71EFDF7
:105728000346002BF0D07B6801229A677B68BF3361
:10573800184600F052F87B68002283F87C207B68CA
:10574800BF33184600F00EF8034619460448FCF724
:1057580035FB00E000BF1437BD4690BD046E00085D
:10576800206E000880B483B000AF78607B6893F83F
:105778003E30DAB27B6893F83F30DBB2D31ADBB243
:1057880018460C37BD4680BC704780B483B000AF64
:1057980078607B6893F83E30DBB23D2B8CBF0123E9
:1057A8000023DBB218460C37BD4680BC704780B476
:1057B80083B000AF78607B6893F84130DAB27B68D9
:1057C80093F84030DBB29A422CBF01230023DBB2AE
:1057D80018460C37BD4680BC704780B483B000AF14
:1057E80078607B68002283F83E207B68002283F87B
:1057F8003F2000BF0C37BD4680BC704780B483B0E3
:1058080000AF78607B68002283F840207B68002224
:1058180083F8412000BF0C37BD4680BC704780B478
:1058280083B000AF78607B6893F84130DBB25A1CD4
:10583800D1B27A6882F841101A467B689B5C184698
:105848000C37BD4680BC704780B483B000AF786029
:105858000B46FB70F9787B6893F83E30DBB25A1C34
:10586800D0B27A6882F83E001A467B68995400BF25
:105878000C37BD4680BC704780B584B000AF0F4B75
:105888001B68FB600E4B1B68BB600E4B1B687B6084
:10589800FA687B681344FB60FB68002B09D0082278
:1058A8000949F86800F014F804220849B86800F0BB
:1058B8000FF800BF1037BD4680BD00BFE8F7FF1FD7
:1058C800ECF7FF1FF0F7FF1F16000020260000204E
:1058D80080B487B000AFF860B9601346FB7100234D
:1058E800FB750023FB75FA7DFB799A4228D2FB6889
:1058F8001B0F092B0BD8FB681B0FDAB2FB7D5B0073
:105908001946BB680B443032D2B21A700AE0FB6801
:105918001B0FDAB2FB7D5B001946BB680B443732BC
:10592800D2B21A70FB681B01FB60FB7D5B00013380
:10593800BA68134400221A70FB7D0133FB75D2E765
:1059480000BF1C37BD4680BC7047000080B500AF63
:10595800FFF792FF064B1B6800229A7200F0AAF923
:10596800FFF76AFC034B00221A6000BF80BD00BF2E
:10597800E01200201013002080B500AF374B1B68E1
:1059880000229A72354B1B68354AD2795A72334BCA
:105998001B680022DA720020FFF7C4F94FF4007187
:1059A8000020FFF7D1F910210020FFF7F3F940217B
:1059B8000020FFF757FB80210020FFF733FB002072
:1059C800FFF7A8FA274B93F82C309BB21946002012
:1059D800FFF7BAFB0020FFF773FA00210120FFF759
:1059E800B3F9C0210120FFF71DFB20210120FFF79B
:1059F800D1F900210120FFF703FA4FF4C06102201A
:105A0800FFF7A2F94FF480710220FFF70BFB00218A
:105A18000220FFF7F5F920210220FFF7BBF900214A
:105A28000320FFF791F94FF488710320FFF71AFB61
:105A380040210320FFF788FB4FF440510320FFF774
:105A4800DFF900210320FFF7A5F90020FFF78AF806
:105A5800054B01221A6000BF80BD00BFE012002084
:105A6800A06E00083C0000201013002080B483B012
:105A780000AF074B7B607B689B7A002B02D0054BFD
:105A880005221A6000BF0C37BD4680BC704700BFB6
:105A9800EC1200201013002080B400AF034B042246
:105AA8001A6000BFBD4680BC704700BF10130020BD
:105AB80080B400AF054B1B78202B02D1034B00228A
:105AC8001A7000BFBD4680BC704700BF0C13002091
